S023000061726475696E6F2D6E6F75676874732D616E642D63726F737365732E737265634B
S113000000800020CD080000B5080000B5080000FD
S113001000000000000000000000000000000000DC
S1130020000000000000000000000000B50800000F
S11300300000000000000000B508000021090000D5
S1130040B5080000B5080000B5080000B5080000B8
S1130050B5080000B5080000B5080000B9080000A4
S1130060B5080000A9450000B5080000B508000067
S113007081450000B5080000B9450000B50800003E
S1130080B5080000B5080000B5080000B508000078
S113009000000000B5080000B5080000B508000025
S11300A0B5080000B5080000B5080000B508000058
S11300B00000000010B5064C2378002B07D1054B37
S11300C0002B02D0044800E000BF0123237010BDC0
S11300D03001002000000000746A0000084B10B5D5
S11300E0002B03D00749084800E000BF0748036815
S11300F0002B00D110BD064B002BFBD09847F9E72D
S11301000000000034010020746A00002C0100206B
S11301100000000037B5036804005B6998476B462C
S11301209D1D9871236820005B6998476870288832
S11301303EBD036837B504005B699847236801AD89
S113014028705B6920009847236868705B69200009
S113015098472368A8705B6920009847E870019865
S11301603EBD000037B5040000220C4902F0D8F867
S113017000250023E05EF02329001A00009501F019
S1130180B9FFA0225200208000950223E05E2900DE
S1130190130001F0AFFF608020003EBDB0010020DD
S11301A010B5064802F014F9002806D004490548A1
S11301B000F040FC642000F0C7FB10BDB00100203B
S11301C05A5E0000C8010020012310B55B420922D9
S11301D00A21034802F0B4F9024802F037F810BDCE
S11301E04C010020B0010020F0B5A7B00EAC050012
S11301F020000291039202F0B5FD00F09FFB0CAECB
S11302000A9006220021300005F062FC2E2335708E
S11302107370C24D3433B3700B33F370280003335F
S1130220337104F08BFD029B98424BDD280004F0EF
S113023088FD039B984245DDB94D17AF280000F0B7
S1130240F1FBB849280000F0E0FB3100280000F081
S1130250E0FB2721280000F0F7FB01233200B2491C
S1130260380002F07DFE189B6360BB68A360FB68E6
S1130270E3601023FA5C1A5501331D2BFAD13B6A53
S11302802000236202F0BBFD002803D0A749280008
S113029000F0D0FBA649280000F0CCFB2000FFF7BB
S11302A039FFA44B98420FD000250EA802F09AFD06
S11302B09B4C002D03D1A049200000F0BBFB200083
S11302C000F0B0FB27B0F0BD9C49280000F09DFB76
S11302D02000FFF72EFF0A220100280000F02DFC69
S11302E02000FFF726FF2000FFF723FF9449079023
S11302F0280000F08AFB0A220799280000F01DFC60
S11303009049280000F081FB2000FFF712FF0A2229
S11303100100280000F011FC2000FFF70AFF0690FE
S11303202000FFF706FF07002000FFF7F3FE04900C
S11303300128B9D12000FFF7EDFE8349C6B2280099
S113034000F063FB0A223100280000F0ECFB182EB9
S1130350AAD12000FFF7EDFE041EA5D17B49280099
S113036000F053FB0A220699280000F0C2FB782112
S1130370280000F052FB0A223900280000F0BDFBDF
S1130380002F02DB049B089301E07F420894029A49
S1130390069B944663440493039BFB1805935D1EDC
S11303A0049B013B0B9300D5A4E0002D00DAA1E0EF
S11303B0002A00DB8AE05342099300230293039B43
S11303C0002B00DB87E05E4200230393534C2000A4
S11303D004F0B4FC0B9B834205DB200004F0AEFC6C
S11303E0029BC31A04934D4C200004F0AAFC8542DE
S11303F005DB200004F0A5FC039BC31A059303242A
S1130400069B464D013363432800A343069302F041
S11304105FF868466B466A466946808A1B8A9289F9
S113042009890090280002F017FB099B013F6343F0
S11304300393069BBF1B5F43079B3934FF18069B3E
S11304405E43079BF31800260293059BB3424EDDDF
S1130450089B029D002B00D03D00039B0EA8ED18C5
S113046002F09FFC85420BD02C4C200002F04EF889
S113047029000EA802F08BFC200002F029F83C248D
S11304800025049BAB4229DD3B2C0CD9234C2000D6
S113049002F03CF83C2217A90EA802F071FC2000DF
S11304A002F016F80024A11C621C17A8C9B2D2B22B
S11304B0035D825C415C194802F038F803340100A2
S11304C01648E4B202F03CFB0135DAE7069B0493DC
S11304D00023099373E70597002677E7069A069B9E
S11304E09446FF1A029B013663440293ADE70B481E
S11304F002F00CF80A4C1649200000F086FA00F0CD
S11305001DFA0A9B0A22C11A200000F000FB1149BF
S1130510200000F08FFA0125C7E6C0464C010020F8
S1130520C8010020F35D0000A0070020605D00000A
S1130530775D0000424D0000C75D0000835D000050
S11305408F5D00009E5D0000AC5D0000035E000056
S1130550B85D0000C35D0000F0B5194F85B004001C
S11305600DB20E1438001749019300F04EFA0A2216
S11305700199380000F0C1FA019B022B0FD1380019
S1130580012711493C4000F055FA604260413200B5
S11305906A302900FFF728FE380005B0F0BD0B498A
S11305A0380000F047FA0120044060426041023DF7
S11305B0683029B23200FFF717FE0220EDE7C0468B
S11305C0C80100201A5E00002D5E0000435E00009A
S11305D010B50C0086B00A220100684601F016FE30
S11305E00021684601F02EFE1D225F21FFF7FCFD6D
S11305F00A22210003A801F009FE03A9684601F0BC
S1130600ECFD03A801F081FD0021684601F01AFE0B
S11306101C228421FFF7E8FD684601F076FD06B050
S113062010BD0000F0B58BB00922002107A805F029
S11306304FFA03A801F00DFE502200216420FFF7B9
S1130640D3FD0023FF24AF27019301330093019BC3
S1130650082B00DD89E0474801F0BAFE0028FAD0F3
S113066005AD2800FFF77EFD0222A95E0022AB5EE5
S11306708AB210005038502813D803AA502B05DC36
S11306800F23002413805F23538014E0A02B03DC8A
S11306905F2301241380F6E7EF2BF4DC1780022498
S11306A0F1E7A13A4F2A4BD803AA502B3DDC0F2384
S11306B0032413805780FF2CCDD007AE355D002D69
S11306C0C5D16B461B78049A33550399009B2000CF
S11306D0FFF742FF019B284A0133DBB201939446A2
S11306E02B00009062469A5CB05C6246D1184A784E
S11306F0B25C824206D18978715C914202D10029B0
S113070000D00D000333182BECD11C4E1C493000D3
S113071000F07BF90A222900300000F0EEF9002DE8
S113072024D1642000F010F991E7A02B03DC5F23AF
S113073004241380BEE7EF2BBCDC17800524B9E743
S1130740F029B8DD03AA502B04DC0F230624138000
S1130750FF2399E7A02B03DC5F2307241380F7E72B
S1130760EF2BF5DC17800824F2E7002528000BB0F6
S1130770F0BDC046B001002000000020C8010020E8
S1130780105E0000F7B50022019011006120FFF710
S11307902BFD202276216320FFF726FD0021002473
S11307A00800FFF715FF0A2251216220FFF71CFD04
S11307B026002500019B9C4224DA31002800FFF723
S11307C031FF0134E4B2012818D0002810D00228E7
S11307D010D0002138006E22FFF706FD31002800FA
S11307E0FFF7F6FE084801F0F3FD0028FAD0E1E730
S11307F06627EEE70136F6B26527EAE70135EDB282
S11308006727E6E7F7BDC046B001002007B5002220
S11308106C201100FFF7E8FC0A4801F0D9FD00281C
S1130820FAD06846FFF79EFC6B461B88193BBE2B2B
S1130830F2D86B465B88CD3B322BEDD80520FFF711
S1130840A1FF07BDB0010020962110B5124C89010B
S1130850200000F009FB0021104801F0E3FE802194
S11308600F4801F093FD002808D10E49200000F044
S1130870E1F80D49200000F0DDF8FEE704210B4803
S113088002F0D4FA002803D10949200000F0D2F87C
S1130890FFF7BCFF10BDC046C80100204C0100207A
S11308A0B0010020615E00008E5E0000A007002001
S11308B0AF5E000003BEFEE7034B10B51B68002BC0
S11308C000D0984710BDC046C001002070B50F4944
S11308D00F4CA14204D100F085F900F051F8FEE775
S11308E00C4D00238D42F6D0CA18E818A24205D355
S11308F09042F0D0084B0949002204E00068043318
S11309001060F1E704C38B42FCD3E4E7000000204D
S113091030010020786A000030010020180E002009
S113092010B500F02AF8002801D100F01BF810BD22
S1130930014B18607047C046C0010020014B186885
S11309407047C046C401002070B5041E07D0044D92
S11309502E6800F011F82B689B1B9C42F9D870BDDF
S1130960C401002010B5034A13680133136000F07A
S1130970FDF810BDC4010020704700207047704787
S113098010B501F037FA05F053F8FFF7F8FF01202E
S1130990FFF7DAFF084C200000F0BCFC200000F058
S11309A031FDFFF751FFFFF7FBFB044B002BFAD09F
S11309B000E000BFF7E7C046E401002000000000AB
S11309C0002070477047F7B506000D000C008B1827
S11309D00193019B671B9C4207D0336821781B68F5
S11309E03000984701340028F3D13800FEBD70B5BB
S11309F005000C00081E07D005F04CF92B68020016
S1130A005B6821002800984770BD10B5FFF7EFFF21
S1130A1010BD10B5FFF7EBFF10BD10B503681B68E0
S1130A20984710BD10B50249FFF7E1FF10BDC0465D
S1130A30CC5E000070B50400FFF7D9FF050020006C
S1130A40FFF7F0FF401970BD70B50500FFF7E5FF33
S1130A5004002800FFF7E6FF201870BDF0B516006B
S1130A6000228DB002AB053301900D00DA77012E20
S1130A7000DC0A260BAC2800310004F0E9FE0F006C
S1130A80CBB228003100009304F05CFEFBB2373394
S1130A900500013CDBB2092F02D8009B3033DBB2E6
S1130AA02370002DE7D121000198FFF7A0FF0DB0BE
S1130AB0F0BDF8B506000C00151E04D10368C9B2D8
S1130AC01B689847F8BDD2B20A2D0DD12A0000291F
S1130AD00ADA2D21FFF7A1FF614207002A00300046
S1130AE0FFF7BCFF3818EDE721003000FFF7B6FF31
S1130AF0E8E710B5FFF7DDFF10BD70B50400FFF7A0
S1130B00D8FF05002000FFF78DFF401970BD10B518
S1130B10002A04D10368C9B21B68984710BDD2B239
S1130B20FFF79CFFFAE770B50400FFF7F0FF05003C
S1130B302000FFF777FF401970BD70B50500FFF77F
S1130B40E6FF04002800FFF76DFF201870BD0000C9
S1130B50014B18607047C046180000200122024B68
S1130B6052421A607047C04618000020164A10B559
S1130B701368591C27D0013B1360002B23D172B694
S1130B80124B134A0433934208D8BFF34F8F114AD0
S1130B90114BDA60BFF34F8FC046FDE70F4A0121C6
S1130BA01000147D0C42FCD02021148BFF319B08D3
S1130BB05B0021431183D361094B13800123027D20
S1130BC01A42FCD0E1E710BD18000020000000002C
S1130BD0030200000400FA0500ED00E000400041BB
S1130BE002A5FFFF1E2270B5464847494368934358
S1130BF01C3A1343436008238C6923438B61434CA1
S1130C00434B9C829C8A14439C82DC681442FCD033
S1130C100124404A14701578254203D055786DB2EA
S1130C20002DF8DB01249460547864B2002CFBDBC3
S1130C30394C5460547864B2002CFBDB8224E40108
S1130C405480547864B2002CFBDB02249C840E3460
S1130C50DD682542FCD0314CDC621024DD6825427D
S1130C60FCD09D8C2E4C2C439C841024DD682542A2
S1130C70FCD002249D8C80262C439C844024DD6877
S1130C803542FCD0DD682542F9D01024DD682542C8
S1130C90FCD000249460547864B2002CFBDB214C1B
S1130CA05460547864B2002CFBDB1C6A1E4D2C404B
S1130CB080251C621C6AAC431C62032393601B4B9B
S1130CC0536053785BB2002BFBDB0023FF240B72D1
S1130CD0174A4B728B72CB72164B1A60164B174A1B
S1130CE01B6811689A065B01C90E2340520F120259
S1130CF00B431343124A1385802342681343436012
S1130D0070BDC04600400041000400400C060000D5
S1130D1000080040000C004001050100B905FF7DFA
S1130D20040A000000070300FFFCFFFF03060100A4
S1130D30006CDC02980000202460800020608000A9
S1130D40004000423F20704713B56B460268D971DA
S1130D500733546819000122A04716BD10B50221BB
S1130D60006900F035FC10BD10B50321006900F0E6
S1130D7045FC10BD10B5130004000A0000690321EE
S1130D8000F036FD002801D10123636010BD00008E
S1130D9010B5054C23685A1C04D103685B69984755
S1130DA003002060180010BD6C000020074B0200F7
S1130DB0186810B5411C03D0012252421A6010BDBC
S1130DC00221106900F006FDF9E7C0466C0000201E
S1130DD010B503784222023303700249024800F03E
S1130DE0B3FD10BD28000020E401002010B50178F7
S1130DF0030042780020A12908D1212A05D11A3AFA
S1130E001649174800F0A0FD012010BD2129FCD18E
S1130E10202A11D1193A1149114800F033FC9622C5
S1130E200E4BD2001968914203D10124D8790440B1
S1130E300ED0FFF793FE0EE0222A03D19A78074BD7
S1130E40DA71ECE7232AE0D15A88064B1A60DCE712
S1130E50FA20FFF77DFE0020D7E7C04620000020DF
S1130E60E40100201C00002070470000FA22002149
S1130E70054B92009A60054A596008321A60044A88
S1130E8019761A617047C046C8010020D05E000080
S1130E90E401002030B50F25CB1D013902002A40A2
S1130EA0140000093034092A01DD373214001C70A3
S1130EB0013B8B42F2D130BD70B582291FD1C3B240
S1130EC02C4D5A01AA1891692B4C80010C40C02169
S1130ED0890521439161294908330818802150610B
S1130EE02A685B01D01804794942214301717020BA
S1130EF0995C8143080030210143995470BD002955
S1130F00FCD1C024C1B21B4E4B01F3189A681A4D90
S1130F10A4052A4022439A60194A800110180A0045
S1130F2058603068072608325201115CB1430E0044
S1130F3001213143115499690D402C439C61702463
S1130F400E495961115CA1430C0010212143115435
S1130F5099680C4C82180C40802149032143996004
S1130F609968890B89039960402351790B43537124
S1130F70C4E7C0469C060020FFFFFF8F100200203C
S1130F80D0030020FF3F00F070B50400012320CC03
S1130F9000212A782000134380222B70520004F091
S1130FA097FDAB78DB07FCD46C6270BD1F22144B39
S1130FB070B51B68590B9C0C9B0111405B0F2240C0
S1130FC01F2900D11A391F2A00D1023A072B00D158
S1130FD0043B1F2500688E01048D0A492A402140E4
S1130FE031430185018D14000A00AA43224302857E
S1130FF0028D1903044B13400B43038570BDC04697
S1131000246080003FF8FFFFFF8FFFFFEFF31083A2
S113101003600123436072B670470368002B02D15A
S113102062B6BFF36F8F704737B505690400684631
S1131030002D14D1FFF7EAFF019B621D013B02D38F
S1131040D57FEDB2FAE768460193FFF7E6FF002D7E
S113105001D100203EBD206AE369C01AFAE7FFF718
S1131060D5FF22000025019B3432013B02D31578C1
S1131070EDB2FAE768460193FFF7CFFF002DE8D001
S1131080206BE36AE9E70000F0B501254668037ABE
S113109031685A018C18FF34A77AB2183D43A572FF
S11310A0C468094D9068A404284024092043906032
S11310B090680833800B8003906040225B01CB185A
S11310C019790A431A71F0BDFF3F00F0F7B50369BF
S11310D004000E0017006846002B3DD1FFF796FF71
S11310E0019B611D013B5A1C0CD0CD7F5A1EEDB2F1
S11310F0002D05D168460193FFF78FFF2800FEBD40
S11311001300F0E7684601930025FFF786FFE369C3
S1131110AF4202D0226A934257D3226A9342EDD15E
S11311200023E361013323616846FFF76FFF220068
S11311300021019B671D013B3532581CDAD0F97739
S113114010785E1E002805D0117020000193FFF76F
S11311509BFFECE73300F0E7FFF758FF2100019B0A
S11311603431013B5A1C06D00D785A1EEDB2002DC5
S1131170C0D01300F6E7684601930025FFF74DFF42
S1131180E36ABD4202D0226B934226D3226B934280
S1131190B4D100236846E3622361FFF737FF2700D9
S11311A022000021019B3437013B3532581CA1D069
S11311B0397010785E1E002805D01170200001934C
S11311C0FFF762FFEBE73300F0E75A1CE261A26924
S11311D0D3181B787355013599E75A1CE262A26A49
S11311E0D3181B7873550135CAE7F7B5027A4368FB
S11311F0110004000831186849014118C879C00772
S113120027D501255201CD719B189A686169920412
S1131210920C002921D12262226A002A3ED0A26ABD
S1131220656168465A60FFF7F1FE27002100019BC3
S1131230661D013B343735315A1C2BD0F5773A788B
S1131240581ED2B2002A05D0019368460D70FFF7EC
S1131250E4FEF7BD0A700300EEE72263226B002A66
S11312601CD000226261A26968465A60FFF7CEFE74
S113127026002100019B3436013B671D35315A1C81
S113128008D03570FA7F581ED2B2002ADCD10A7019
S11312900300F4E768460193FFF7BFFE2000FFF761
S11312A0F3FED6E737B56B46DC1D00230D002000A6
S11312B02370FFF78DFD2B681818286004F026FAB8
S11312C0210004F0DFF92B681818286020783EBD4F
S11312D003290ED180220E4B62311B68FF31585C0A
S11312E0524202435A5468226339FF39FF329954F7
S11312F070470129FCD18022054B24311B68FF3142
S1131300585C524202435A542339FF392822EDE7EC
S11313109C06002070B500252F4B012104001F20DE
S11313201D7000F011FE01211F2000F059FE2B4B0F
S113133001211E201D7000F007FE01211E2000F077
S11313404FFE2023264A0F20D1690B43D36101228B
S113135024490B7813430B70234B1978814319707C
S113136006211D782943197020490D782A430A70F3
S11313701A7802401A70602219780A431A701C4BBA
S11313801C4A5A805A78D209FCD11B48FFF7D0FA7C
S11313901A4D2800FFF7F8FD2800FFF707FE7F210C
S11313A02B68C1201A7880000A401A700422197828
S11313B00A430C211A701A898A4311491A810A585E
S11313C01202120A0A5080220A6019787E3A0A43ED
S11313D01A700123237070BD05020020040200204E
S11313E000040040584400413C4400415944004139
S11313F0000C004006400000D51D00009C060020A3
S113140000E100E00078002810D00121084B1B689F
S11314101A898A431A810822198B0A431A830422DF
S1131420198B0A431A830022024B1A607047C04684
S11314309C0600209406002010B50F4A93699B0B6C
S11314409B03936113680222FF331A729879823ADC
S113145002439A711A7A9207FCD57F24074A2140E5
S1131460937A0800A3431900802301439172917A6F
S11314705B420B43937210BD9C0600200050004158
S113148010B50B790C00002B0CD10800FFF7AEFC53
S1131490002801D0012010BD094A93699B0B9B03CE
S11314A09361F7E704F032F9210004F01EF90028F3
S11314B0F0D1034A93699B0B9B039361EBE7C0460E
S11314C09C060020F7B50D00832A19D1CBB2324C0B
S11314D05A01A21891693148AD010840C02189051B
S11314E0014391612E4920684D19702108335561DB
S11314F05B011A5C8A43110040220A431A54F7BD67
S1131500022A44D18B000193264B8A00D658002E20
S1131510F5D1382003F05FFC234B1F4F0360802379
S11315205B00C360431D0662856006614661C66157
S113153004004760DE77C662066380202F331E7086
S113154040005E7004F098FA0600A061802040001C
S113155004F092FAEDB26B01A062FB189A680F498D
S113156007201140C02292050A439A603A68083560
S11315706D01A95C8143080003210143A9542000A3
S11315805E60FFF781FD074B019AD450B7E7110065
S11315902800FFF791FCB2E79C060020FFFFFF8FB5
S11315A010020020E8010020FC5E000070B5050078
S11315B00124064BA200D258002A05D0210028009D
S11315C0FFF780FF0134F4E770BDC04670000020CF
S11315D0084B8A00D05810B5002803D003689B68D4
S11315E0984710BDC9B2044B490159188868800452
S11315F0800CF6E7E80100209C06002010B50C00E2
S1131600FFF7E6FF00280CD0064BE4B21B68083451
S113161064011C19802362795B42134363710223C2
S1131620E37110BD9C06002070B5134BCCB2134A75
S1131630600189015918131859609968104D0834CC
S11316400D40802189022943402599609968890BBE
S11316508903996011686301CB181E7935431D71A4
S11316609D796D06FCD564010919CB79DB07FCD59E
S113167012189068C0B270BDD00300209C060020F0
S1131680FF3F00F070B5140040220B4B0D001B68A7
S1131690FF3359790A435A710021FFF7C5FFA0426D
S11316A000D9200000230549A34203D05A5CEA5420
S11316B00133F9E770BDC0469C060020D00300202A
S11316C010B5C9B20B484901421893689B049B0C9E
S11316D03F2B0BDD9468403B9B04A40B9B0CA403A1
S11316E02343936041188868C0B210BD93689B0B74
S11316F09B03F6E79C060020F0B51C00304B85B038
S11317001B6806000D000192002B55D02D4F39782F
S1131710C9B2002902D11E2000F062FC64233B7090
S1131720294BAA00D058002808D0036822005B681F
S1131730019998470400200005B0F0BD290030004D
S1131740FFF746FF844204D929003000FFF740FF29
S1131750040029003000FFF7B3FF0121EBB21B4F57
S113176003935B010293029A3B6801989B18FF3331
S11317705A7A0A4316495A72AB01C918220004F076
S11317809EF9002CD7D029003000FFF721FF002854
S1131790D1D14021039B3A6808335B01D3181879EF
S11317A0014319710121D9710121029BD318FF331F
S11317B09A7A0A439A72BEE701246442BBE7C046A0
S11317C09406002004020020E80100209C0600206A
S11317D0D003002013B56B46DC1D22000123FFF764
S11317E08BFF012801D1207816BD01204042FBE780
S11317F0F0B51E003A4B85B01B680F000192002B18
S11318003FD08023DB019E423BD8364C2178C9B2BD
S1131810002902D11F2000F0E3FB64230025324A93
S11318202370BB01D3180293002E2CD02F4B1B68BE
S11318300393FF233B401C0000930834039B640183
S11318401C19A379DB0921D0294B2A49186803F014
S113185079FF294B1721584303F074FF274BE27992
S1131860920713D4DA5D002A01D10138F7D201229C
S1131870DA55009B5A011D4B9B189A69920B9203EF
S11318809A6101256D42280005B0F0BD00221B4B72
S11318903400DA553F2E00D93F24220001990298E2
S11318A004F00DF9009BA1045A01104B890C9B18FC
S11318B0029A2D195A619A69361B920B92030A43B4
S11318C09A61009B039A08335B01D3180222DA71F0
S11318D05979823A0A435A71019B1B190193A3E770
S11318E09406002005020020100200209C0600201F
S11318F09800002040420F007011010007020020F0
S113190070B50D001C000D4EAB01F618110030002F
S1131910220004F0D4F8EDB209496D014D196E614D
S1131920AB69084A20001340AB61AB69A2049B0B6E
S1131930920C9B031343AB6170BDC04610020020A0
S11319409C060020FF3F00F0F7B5104B01901B7878
S11319500F001500002B0CD10D4B16001C78002C29
S113196009D00C4E0C4834880019641904F0A7F807
S113197034802800FEBD002EFBD03A19330000212C
S11319800198FFF7BDFF2418361AF4E790050020EC
S1131990910600209206002091050020F8B5002051
S11319A000AF0E001500012A26DDD31D6A46DB08B0
S11319B0DB00D31A9D46080004F06CF96C4603233F
S11319C0002101304000207063705A1ED2B295424B
S11319D00BDD3078002808D00136A0549D4203D096
S11319E0E1540233DBB2F0E72A0021000348FFF799
S11319F0ABFF431E9841C0B2BD46F8BDE4010020D0
S1131A00F0B50027012687B01E4B009102A91E7075
S1131A1005000297FFF746FC03AC01900922390048
S1131A20200004F055F809232370022363709E33C9
S1131A30E3715A332372029B6671093363806B46E8
S1131A401B7923710F4B1F70009B092B07D11A00C0
S1131A5021002800FFF778FF012007B0F0BD0A4BF2
S1131A6009221E70094E2100280002973780FFF7D3
S1131A706BFF02A92800FFF715FC034B32881F7087
S1131A800349E6E790050020910600209206002015
S1131A909105002070B5CE7892B005000C00022E9E
S1131AA008D1C9882B48FFF7ABFF431E9841C0B249
S1131AB012B070BD03F02AFE210003F0F7FD0028E8
S1131AC003D0C317181AC00FF2E7012E0BD1E28816
S1131AD02149112A10DCD2B2002A0DD02800FFF7C8
S1131AE033FF0120E4E7032EE2D1A378002B05D1D4
S1131AF0E2881A49032AEEDD0A78EFE7022B05D1C2
S1131B00A27917492800FFF749FFD1E7012B02D139
S1131B10A2791449F6E7032BCAD1134B01A918681B
S1131B20FFF7B8F9114B03A91868FFF7B3F9104B85
S1131B3005A91868FFF7AEF90E4B07A91868FFF757
S1131B40A9F903F0E3FD09A903F0C0FDA27901A9F5
S1131B50D8E7C046E4010020285F0000185F0000B9
S1131B60085F00001C5F00000CA0800040A0800003
S1131B7044A0800048A0800073B5060048780D009A
S1131B800B2811D803F0D4FD061D102E1043487005
S1131B904C4F696C097801AA002907D102231170FE
S1131BA051703000FFF7ACFE012076BD00231370A6
S1131BB053702E4B1B78012B00D11370022300218C
S1131BC0EFE78A780023012A04D101AA1370537025
S1131BD0274BEFE7254A1370264A93699B0B9B0317
S1131BE09361E1E78C78012C06D10021204B01AAF6
S1131BF01C7011702300D4E7002C08D101201B4B6A
S1131C001C4A187093699B0B9B039361CDE7A978D9
S1131C103000FFF711FCC7E73000FFF73BFFC4E7D4
S1131C200123154ACBE70B780020DB06BDD1300039
S1131C30FFF7BCFC2A200221AA780F4BFF301A6060
S1131C400C4A13681C5C21434A241954FF34195D5F
S1131C502938FF3801431955D4E70123074AAEE771
S1131C608A78064B1A60B7E700209EE70602002038
S1131C700E0200209C0600209406002098060020F6
S1131C804C4BF7B51C780700002C00D07DE04A4E81
S1131C9033689B8B1B070ED521002000FFF70CF93E
S1131CA0326810231100FF31887A03438B72434B4F
S1131CB01C600823938333689A8B52071FD5042230
S1131CC09A833F4A1378002B0AD01378013BDBB286
S1131CD013701378002B03D101211F2000F080F929
S1131CE0384A1378002B0AD01378013BDBB2137007
S1131CF01378002B03D101211E2000F071F9336801
S1131D00FF331A7AD20620D510221A72597930324A
S1131D100A435A7160232C4938000A781A4235D193
S1131D20FFF72AFF002834D0802233685242FF3361
S1131D3099790A439A713368FF331A7A520604D5A3
S1131D4040221A72597A0A435A72336800251C8C4D
S1131D5001239C43E4B20193E9B2002C15D0230083
S1131D602B41019A13420DD02B00326808335B01DA
S1131D70D318DA79D20713D4DB799B0710D4019BEB
S1131D80AB409C430135092DE6D1F7BDFFF778FB45
S1131D90C8E720220D4BCDE703681B689847EEE7A0
S1131DA00B4BAA00D0580028F6D13800FFF790FA60
S1131DB0E5E7C046910600209C060020940600201A
S1131DC00502002004020020D0030020FF5000413F
S1131DD0E801002010B50248FFF752FF10BDC046CD
S1131DE0E4010020014A024B1A6070470050004190
S1131DF09C060020FA21314B10B51868890003F0C5
S1131E00A1FC2F4B0138984256D82E492E4A4860DF
S1131E10C020136A00061B021B0A0343136200243A
S1131E2007238C600B608021136A09061B021B0ABE
S1131E300B431362FC22254B196A0A431A62FC22E3
S1131E40196A92010A431A62A022196AD2020A4349
S1131E501A6220000021013400F076F8132CF8D126
S1131E601B4B1C005A7852B2002AFBDB194A5A80D9
S1131E70194B1A00597EC9090129FBD0E421C90074
S1131E8099803F21D970537EDB09012BFBD0C023FD
S1131E9000205B011361907000F024F863785BB25A
S1131EA0002BFBDB0D4B0E4A6380D379DB09012B3E
S1131EB0FBD04123537010BDFEE7C04698000020BC
S1131EC0FFFFFF0010E000E000ED00E00004004030
S1131ED0000C00401E400000004000422140000071
S1131EE000480042164A00B51300517EC909012971
S1131EF0FBD00138042816D81969124A0A400F2168
S1131F001A615A788A4303F013FC0308060B030092
S1131F10110001220A435A7000BD11000322F9E79F
S1131F2011000222F6E7F02311691B050B430F2170
S1131F30136153788B43190002230B435370EBE76F
S1131F4000400042FFFFFFF0182330B51D000400DD
S1131F5045430820204A55192856013014D0032936
S1131F6012D808006343D156D31803F0E1FB0228CA
S1131F700E1B5868CB010221184A9B181A184032CC
S1131F801170012282405A6030BD5868CB0106218D
S1131F90124A9B181A1840321170012282405A606A
S1131FA09A61F1E75868CB0106210C4A9B181A186C
S1131FB040321170012282405A605A61E4E7586845
S1131FC0CB010221054A9B181A18403211700122D4
S1131FD082409A60D8E7C04608600000004400418F
S1131FE01823F0B508245843114A13181C57013418
S1131FF01BD0012635005F688356BD400D4ADB01C6
S11320009A18906828420BD10C00601E8441D219A2
S11320104032107834400336A400B043204310709B
S1132020044A9B18002901D15D61F0BD9D61FCE764
S11320300860000000440041F8B50300182058432C
S11320402A4A1018007A40B20400013013D0481C08
S113205000240C280FD803F06BFB451C1C1C1C1C13
S11320601C1C1C0707070700092906D100211800BA
S1132070FFF76AFF00242000F8BD0A2901D10839BE
S1132080F5E700240B29F6D10A391800FFF75CFFA5
S1132090F1E718204343D018466801253400D2568E
S11320A01348D20112187308D31830332C4018780F
S11320B0002C0BD00F24090120400143C9B292190E
S11320C01970403213781D431570D3E70F27B843B6
S11320D001439219C9B21970130040331A78154399
S11320E01D70C8E701246442C5E7C04608600000CB
S11320F00044004110B51C00431A0298511A001BF9
S1132100584303F0A9FB001910BD10B50400006882
S113211003F0BCFC200010BD10B5040000680028CA
S113212001D003F0B3FC00232360A360636010BDFF
S113213070B504000D000068013103F079FD031E41
S113214001D0012028C470BD036810B50400002B21
S113215004D043688B4201D3012010BD2000FFF757
S1132160E7FF0028F9D0A368002BF5D1226813708B
S1132170F2E770B50E00110004001500FFF7E4FF4C
S1132180002804D12000FFF7C7FF200070BDA56020
S11321903100206803F076FDF7E770B505000068AC
S11321A00C00002804D0096800290BD103F06EFC50
S11321B023682B6063686B60A368AB6000232360B3
S11321C0636008E06B68A2689342EFD303F05AFDA2
S11321D0A368AB600023A36070BD10B504008842FF
S11321E001D0FFF7DAFF200010BD70B504000D1E0A
S11321F009D0080003F04EFD290002002000FFF77B
S1132200B8FF200070BDFFF787FFFAE710B5002381
S113221004008AB023606360A360080001A902F08F
S1132220D6FD01A92000FFF7E0FF20000AB010BD91
S1132230826800238A4203D902689A4200D0535C20
S11322401800704710B5FFF7F3FF10BD00230370AB
S113225070470023438003807047000070B50E0070
S11322601500084C3821200002F048F83100200005
S113227002F092F82900200002F08EF8200002F00B
S1132280E8F870BD380A00207FB5244D38210400D9
S1132290280002F033F80021280002F07DF828001D
S11322A002F0D7F810223821280002F070F8002636
S11322B0280002F0D3F86B46F0540136102EF7D103
S11322C09B785A1E012A27D823706B466946DA7810
S11322D00F2309791A4012020A4362806A4652792E
S11322E069461000897918401211628100026A4619
S11322F00143E1806946527A897A1A4012020A43FC
S1132300A2806A466946D27A097B13401B020B43BA
S113231012112381A2817FBD0023D5E7380A002052
S113232070B50D00040008001600FFF7ADFF2B7810
S1132330002B01D0012E05DD0023238063802000C3
S1132340A38070BD7600AD190223EA5E06216B5EA0
S1132350228063800123F2E770B50D000A4C382116
S1132360200001F0CBFF2900200002F015F8200026
S113237002F06FF801223821200002F008F8200052
S113238002F06CF8C0B270BD380A002070B50400C9
S11323900D000E4801F092FF802120002A00FFF773
S11323A05DFFA8212000FFF7D7FF112802D00023EA
S11323B0180070BDA3212000FFF7CEFF01230628DB
S11323C0F6D03628F4D06428F1D1F1E7380A002099
S11323D010B50221FFF7C0FF022800DD002010BD68
S11323E037B506AC2588046801950093E469012398
S11323F0A04737BD37B506AC25880468019501258B
S11324000095E469A04737BDF7B5040016001F0026
S1132410036801915B699847236832009D690199BB
S11324203B002000A84723682000DB6A9847F7BDDB
S1132430F0B5040016001F0085B00AAB1D880368C0
S113244003915B699847236800951D6A32003B003D
S113245003992000A84723682000DB6A984705B049
S1132460F0BDF0B5040016001F0085B00AAB1D884E
S1132470036803915B699847236800955D6A32009D
S11324803B0003992000A84723682000DB6A984793
S113249005B0F0BDF0B504001D0085B00AAB002600
S11324A09E5F0BAB1F880368029103925B69984798
S11324B0236801970096DE69039A2B000299200095
S11324C0B04723682000DB6A984705B0F0BD0000E0
S11324D0036B13B50400002B0DDA016A094B994212
S11324E000D919006A46002353711371019A0648F2
S11324F0009101F037FEE26CE16D13688B431360C9
S113250013BDC046001BB700200A0020C26CC16D79
S1132510136810B50B431360036B002B02DA0248F7
S113252001F03CFE10BDC046200A0020FC20D20071
S1132530C0000240C908D8081043C90208437047C4
S1132540F8B51600A0220D005200F02104001F006F
S113255002F00CFA182165624D43154B154A0833F5
S1132560A85623600123E762134FC001C019E06439
S113257001205B4223636363A36300230700A66215
S1132580236255196D684E43AF40B156E765921901
S11325905268094D9040C90149192066A164200080
S11325A06364A365E363236523646365F8BDC04680
S11325B03C5F00000860000010440041F8B5036B64
S11325C0002B03DA0E4801F0FDFDF8BD0824802538
S11325D0436CC26B076D16680D420ED03E43166005
S11325E01A68866D013CB2431A601A68866D6D08DC
S11325F032431A60002CECD1E7E7BE43EFE7C04654
S1132600200A002010B50400826C006E1368834316
S113261013602000FFF7D2FFA26C216E13680B43F6
S1132620136010BD70B50400002900D1E84921628F
S1132630A06A0121FFF788FC0021A06AFFF7D0FC03
S11326400121606AFFF780FC0121606AFFF7C8FC82
S1132650236B002B18DB0121606BFFF775FC002155
S1132660606BFFF7BDFC0121206BFFF76DFC206B55
S11326700121FFF7B5FCA06B002802DB0021FFF766
S113268063FC236B002B02DAD24801F043FDE06ABD
S1132690002817DB0121FFF757FC0121E06AFFF74F
S11326A09FFC6420FEF750F90021E06AFFF798FCD4
S11326B06420FEF749F9E06A0121FFF791FCC82084
S11326C0FEF742F9236820005B699847EF21200058
S11326D0FFF798FF03212000FFF770FF80212000FF
S11326E0FFF76CFF02212000FFF768FFCF212000D5
S11326F0FFF788FF00212000FFF760FFC1212000C1
S1132700FFF75CFF30212000FFF758FFED21200088
S1132710FFF778FF64212000FFF750FF032120001A
S1132720FFF74CFF12212000FFF748FF8121200012
S1132730FFF744FFE8212000FFF764FF8521200014
S1132740FFF73CFF00212000FFF738FF782120002D
S1132750FFF734FFCB212000FFF754FF392120007D
S1132760FFF72CFF2C212000FFF728FF0021200079
S1132770FFF724FF34212000FFF720FF022120006F
S1132780FFF71CFFF7212000FFF73CFF202120006A
S1132790FFF714FFEA212000FFF734FF0021200097
S11327A0FFF70CFF00212000FFF708FFC0212000E5
S11327B0FFF728FF23212000FFF700FFC12120009D
S11327C0FFF720FF10212000FFF7F8FEC5212000AD
S11327D0FFF718FF3E212000FFF7F0FE282120001C
S11327E0FFF7ECFEC7212000FFF70CFF8621200035
S11327F0FFF7E4FE36212000FFF704FF4821200004
S1132800FFF7DCFE37212000FFF7FCFE236B002BD3
S113281000DBD3E06F4D0021280001F0D3FC002140
S1132820280001F0CFFC3A212000FFF7EBFE5521F0
S11328302000FFF7C3FEB1212000FFF7E3FE0021D3
S11328402000FFF7BBFE18212000FFF7B7FEB621DA
S11328502000FFF7D7FE08212000FFF7AFFE8221FA
S11328602000FFF7ABFE27212000FFF7A7FEF2218F
S11328702000FFF7C7FE00212000FFF79FFE26215E
S11328802000FFF7BFFE01212000FFF797FEE021A3
S11328902000FFF7B7FE0F212000FFF78FFE312144
S11328A02000FFF78BFE2B212000FFF787FE0C2171
S11328B02000FFF783FE0E212000FFF77FFE082192
S11328C02000FFF77BFE4E212000FFF777FEF12169
S11328D02000FFF773FE37212000FFF76FFE07216A
S11328E02000FFF76BFE10212000FFF767FE032195
S11328F02000FFF763FE0E212000FFF75FFE092191
S11329002000FFF75BFE00212000FFF757FEE121C6
S11329102000FFF777FE00212000FFF74FFE0E2175
S11329202000FFF74BFE14212000FFF747FE032190
S11329302000FFF743FE11212000FFF73FFE07218F
S11329402000FFF73BFE31212000FFF737FEC121B5
S11329502000FFF733FE48212000FFF72FFE082157
S11329602000FFF72BFE0F212000FFF727FE0C218C
S11329702000FFF723FE31212000FFF71FFE362140
S11329802000FFF71BFE0F212000FFF717FE112187
S11329902000FFF737FE7820FDF7D6FF292120001D
S11329A0FFF730FE7820FDF7CFFF23682000DB6AB5
S11329B09847F023A3815033E38170BD20000021A8
S11329C0FFF7FCFD00212000FFF7F8FD2BE7C046D0
S11329D000366E01200A00200323A022194070B59E
S11329E0ED3304004176520002291BD003291DD087
S11329F0012913D048258381C281236820005B69A3
S1132A00984720003621FFF7FDFD29002000FFF73D
S1132A10D5FD23682000DB6A984770BD8281C3819D
S1132A202825EAE78381C2818825E6E78281C3817C
S1132A30E825E2E770B50D00691E8D4103680400C6
S1132A405B699847290020002031FFF7DBFD2368EC
S1132A502000DB6A984770BDF7B51E00040008AB80
S1132A601D888E1955190904013E0E4312042A21AA
S1132A70013D1543FFF7C6FD330C0093330A019360
S1132A80236B310EC9B2F6B2002B34DA2B4F380067
S1132A9001F098FB6B463800197801F093FB6B4604
S1132AA03800197901F08EFB3100380001F08AFBFF
S1132AB02B212000FFF7A6FD2B0A0093236B290E80
S1132AC02E0CC9B2EDB2002B27DA1C4F380001F0EE
S1132AD079FBF1B2380001F075FB6B4638001978C8
S1132AE001F070FB2900380001F06CFB2C21200060
S1132AF0FFF788FDF7BD2000FFF760FD6B4620005F
S1132B001978FFF75BFD6B4620001979FFF756FD36
S1132B1031002000FFF752FDCAE72000FFF74EFD09
S1132B20F1B22000FFF74AFD6B4620001978FFF749
S1132B3045FD29002000FFF741FDD7E7200A0020CA
S1132B40026B0B1270B5CCB20500D9B2002A08DAB8
S1132B50074D280001F036FB2100280001F032FB6C
S1132B6070BDFFF72BFD21002800FFF727FDF7E7D5
S1132B70200A002037B504001D00002914DB0C20B6
S1132B80235E8B4210DD002A0EDB0E20235E93426F
S1132B900ADD012389B2200092B20093FFF75CFFA3
S1132BA029002000FFF7CCFF37BD0000F8B5036B08
S1132BB0060014000F0ACDB2002B0CDA002C16D03C
S1132BC00B4E3900300001F0FDFA2900300001F00D
S1132BD0F9FA013CF2E7002C09D039003000FFF784
S1132BE0EDFC29003000FFF7E9FC013CF3E7F8BDF8
S1132BF0200A0020F0B5040087B00CA80025405F2F
S1132C000DAD2D8805950C26A55F8D4239DD0E2767
S1132C10E65FB446964234DDCE18B6B20296171873
S1132C20013E36B2BFB203967E1E36B20496039EB0
S1132C30002E26DB049E002E23DB002903DA6B46DC
S1132C4008215B5E0021002A01DA002238B2039ECB
S1132C50B54201DC6B1A1BB2049DAC4502DC604634
S1132C60801A00B205005D4380B292B289B200902E
S1132C709BB22000FFF7F0FE2A0005992000FFF721
S1132C8095FF07B0F0BD13B56B460268D9710733E1
S1132C90546819000122A04716BD10B50400006A4B
S1132CA0002803D101230020636010BD002392B2E9
S1132CB0436000F013FF236A5B68002BF2D1F4E752
S1132CC0006A10B5002801D000F092FD10BD13B5C4
S1132CD06B46DC1D0122210000F0B6FC012801D165
S1132CE0207816BD01204042FBE7006A10B5002899
S1132CF002D0FFF7ECFF10BD01204042FBE770B5A6
S1132D000500006A041E09D0FFF7E1FF0400431C1C
S1132D1004D0286A0369591E00F03AFD200070BDF2
S1132D20F8B5FA2300259B0083600D4B040008339B
S1132D304560036028200F00160002F09DFE20620B
S1132D40A8420AD02822390002F0B9FE20000C2241
S1132D503100103002F0A5FF25772000F8BDC046F1
S1132D60945F0000FA22002392008260034A4360C9
S1132D7008320260036203747047C046945F000027
S1132D80036A10B5181E01D000F05EFC10BD036A82
S1132D9010B5181E04D000F0FBFC431E9841C0B2CD
S1132DA010BD036A002B01D018697047012040420E
S1132DB0FBE7036A181E00D0D869704770B5050098
S1132DC0006A00280BD02800FFF7F3FF0400280056
S1132DD0FFF7E7FF024B201A984200D9180070BD94
S1132DE0FF7F000010B50400006A002806D000F040
S1132DF03BFD206A02F04AFE0023236210BD036AF1
S1132E00181E03D0587A431E9841C0B2704770B55B
S1132E10012204000D0001F0CDF802000120002A77
S1132E2003D12900200001F0C5F870BD030070B57E
S1132E3041331B7804000D00002B02D0383000F021
S1132E4013FD2A000121200000F0B6F9002801D169
S1132E50002070BD2500103521002800FFF7D7FFA2
S1132E600028F5D020002900383000F0C3FB431EB1
S1132E709841C0B2EDE700004B6843600A4B036021
S1132E800B7A03724B7A4372CB68C3600B6903619C
S1132E904B6943610B7E0376CB69C3610B6A0362A2
S1132EA04B6A43627047C046D45F0000F0B59DB0E2
S1132EB00393002308AC029212AE284A0700636011
S1132EC0736010312000089263721292737200F0E2
S1132ED091FB029D2F21280002F0C6FE002834D069
S1132EE02B782F2B07D1330026001C00013523003B
S1132EF034001E00EEE7FF23401B03400C2B00DDD3
S1132F000C20FF2303401A00290004A8019302F0B7
S1132F10C8FE0023019904AA3000535400F0A4FC15
S1132F20012304AA2100300000F03CFD002806D152
S1132F300A4B78603B60787238001DB0F0BD019B8D
S1132F402000ED1800F090FCD1E7029B2100ED1A5F
S1132F50039B38001D60FFF78FFFEDE7D45F00008F
S1132F60F0B51400A3B004AE0193070003AB300026
S1132F70FFF79CFF039BE4182378002B09D1310051
S1132F8018A8FFF779FF174A18A93800FFF7C8FEF9
S1132F900BE000230EAD6B60134A6B72737A0E92D2
S1132FA0002B05D13800FFF7DDFE380023B0F0BD5B
S1132FB0019B22003100280000F0F4FC0028F1D02D
S1132FC0300000F051FC0623019A1A40062A03D16E
S1132FD01599280000F0DCFB290018A8FFF74CFF26
S1132FE02200D1E7B85F0000D45F00000221084B43
S1132FF000221961190030310A7006495A719A7118
S11330009A721A73DA63996341331A707047C0462F
S1133010A0070020D45F000010B50100014801F0B2
S1133020D1F810BD200A002010B5FF21014801F09D
S1133030C9F810BD200A002010B501210079FEF75F
S1133040CFFF054B1A78002A04D0002203481A70D7
S113305001F0A4F810BDC04604080020200A002096
S113306010B5084B04001A78002A06D101321A70F0
S1133070054B064806CB01F075F820790021FEF7D0
S1133080AFFF10BD0408002008080020200A00201B
S113309010B583790400002B0DD023895A1C22819A
S11330A0054A934202DCFFF7BFFFF6E72000FFF773
S11330B0C3FF0023A37110BD0102000000B506295F
S11330C004DD162300214371080000BD104B0529BF
S11330D019D80800002202F02BFB03090E10121469
S11330E00C4919601A715A710121EDE70A481A71E5
S11330F018605A71E8E70949F3E70949F1E7094912
S1133100EFE70949EDE7094A1A600022EAE7C046F9
S113311008080020001BB70000093D0080841E0041
S113312040420F0020A1070090D0030048E80100AE
S113313070B50C00FDF702FC0500FFF775FFFF28D2
S113314006D0FDF7FBFB401BA042F6D3002070BD68
S11331500120FCE7F8B505000E001700FFF798FF03
S11331602800FFF77DFF962128004900FFF7E0FFC4
S113317040203043FFF750FF18243800E040083C5B
S1133180C0B2FFF749FF23000833F6D19520002E83
S113319003D06A30082E00D17838FFF73DFF0024B1
S11331A0FFF742FF43B2E872002B04DAFF2C02D08F
S11331B00134E4B2F4E7F8BDF7B5002502710573F4
S11331C085728571457104000191FDF7B7FB0121FA
S11331D007002079FEF7B8FE01212079FEF700FFF1
S11331E0424E300000F096FF414B42491D715D7123
S11331F019605A68300000F0B5FF0B35013D002D11
S113320003D0FF20FFF708FFF8E7300000F0C6FF07
S1133210FA262000FFF724FFF60000222000110008
S1133220FFF798FF0500E07201280BD0FDF786FB3D
S1133230C01BB042F1D9012320006371FFF7FCFEEB
S11332400020FEBDD522082152002000FFF782FF96
S1133250430707D40525013D002D1FD0FFF7E4FEE9
S1133260E072F8E72573257BFA26023D6B425D4147
S1133270F600AD07002237212000FFF76BFF2A007C
S113328029212000FFF766FF021EE0720CD0FDF733
S113329055FBC01BB042EDD90823CDE7E27A0223E7
S11332A0AA2AC9D12373DEE7237B022B15D13A2145
S11332B02000FFF74FFF002801D00623BCE7FFF7EB
S11332C0B3FEC0231840984201D1BD3B2373FFF7DE
S11332D0ABFEFFF7A9FEFFF7A7FE2000FFF7ACFE49
S11332E001992000FFF7EAFEABE7C046200A002060
S11332F00808002090D0030070B50400FDF71EFB01
S1133300962506006D00FFF78FFE0300E072FF288C
S11333100BD1FDF713FB801BA842F4D90F23200027
S11333206371FFF789FE002070BD0120FE2BFBD0E6
S11333300D23F4E7F8B516001D009A188023040045
S11333409B009A4216DC8379002B05D003688B42DC
S113335002D103899E421ADA237B2160032B00D019
S113336049020A0020001121FFF7F4FE071E06D0CF
S1133370032363712000FFF75FFE00202AE0200092
S1133380FFF7BAFF0028F5D001232781A371238911
S11333909E420ADC0026B5420DDD069B9F19FFF70D
S11333A043FE01363870B6B2F5E7FFF73DFE2389D8
S11333B001332381EBE72389ED18A37AADB225818C
S11333C0002B03D0044B01209D4203D92000FFF7BA
S11333D05FFE0120F8BDC046FF01000013B50400E4
S11333E00120002B04D0049800902000FFF7A2FFD6
S11333F016BD802307B59B0000920022FFF79AFFB9
S11334000EBD70B5050008001400FFF705FE80230B
S11334109B00E618B44204D02078FFF7FDFD013488
S1133420F8E7FF20FFF7F8FDFF20FFF7F5FDFFF7B2
S1133430FBFD1F23E87203400120052B05D0112357
S113344028006B71FFF7F8FD002070BD70B51223E2
S11334500400160000292BD0037B032B00D0490263
S11334600A0020001821FFF775FE0423051E1FD152
S11334703200FE212000FFF7C4FF002819D0962156
S113348020008900FFF754FE1523002810D02A00DD
S11334900D212000FFF75EFE002808D1FFF7C4FDD0
S11334A0002804D12000FFF7C7FD012005E0142304
S11334B063712000FFF7C0FD002070BD034B044A78
S11334C01A6000225A711A717047C0460808002019
S11334D000093D00020010B50C3204000121406ACD
S11334E000F0E0FC00280AD0236A0120002B06D15A
S11334F0E368227A236280235B421343237210BD64
S113350070B50600FFF7E6FF002801D1002070BD6A
S1133510736AF2681C79951E1A7C95405A69AD1835
S11335206419A54206D0013C200000F001FC0028EB
S1133530F7D1EBE7736A01201A7C80239B00934048
S1133540F269D318F361E2E710B50400406900F0B2
S1133550CBFB002803D0207E014B4001C01810BDD6
S113356018080020F0B5202207000E000B0087B0D9
S11335700B318B420FD10723002501933C78002C9B
S11335802ED02E2C0AD1019B0A2B14D00A230825F5
S113359001930137F2E71A700133EAE71022144964
S11335A002A802F08CFA002302AAD25C002A04D0FA
S11335B001339442F8D1002017E0019B9D42FADCCC
S11335C02300213B5D2BF6D822006B1C613ADBB251
S11335D07519192A01D8203CE4B22C701D00D8E7D3
S11335E030782038431E9841C0B207B0F0BDC046C1
S11335F0BA5F000070B5427A04000D00002A01D0C1
S1133600002070BD4B1CDB7F102B0ED10E3B437290
S11336104B8C02625B01C36100230120656220724E
S1133620E360236163612376EBE7202BE8D102009A
S11336301D3B4372496A1C320162280000F0CAFB38
S11336400028E9D1DCE70000F0B5437A85B0040036
S11336500392002B03D10120404205B0F0BD037A50
S1133660DB07F8D50269C3699B1A039A9A4201D908
S11336709BB203930E00039B0293029B002B4CD03E
S11336802369627ADF05FF0D606A5D0A022A25D18B
S1133690406A80234019029D9B00DB1B9D4200DD94
S11336A09DB24022237A134203D180239B009D4282
S11336B003D1264B1B68984233D1002100F014FB40
S11336C00028C8D0224B3100FF183A007B199342DE
S11336D020D01078013208700131F8E70279013AFC
S11336E01540EDB2002F05D1002D03D1002B09D1D7
S11336F0236AE360636AE268901E1A7C5B69904007
S1133700C018C6E72200E1680C3200F033FB002841
S1133710F0D1A0E7DF1BF6190FE06B460C20185E12
S11337209BE701000B4800962B003A000068FFF766
S113373055FE002800D18EE7761923695B192361B1
S1133740029B5D1BABB2029397E7C0469C0000202E
S1133750180800201C0A002037B5437A0500002011
S1133760012B0BDD2B690122DC056B462800D91DDA
S1133770240FFFF769FF012801D000203EBD2B690B
S113378060011F332B61014BC018F7E718080020B4
S113379070B5437A04000E00002B01D1002070BDE7
S11337A0C2698A42FAD3022B02D0002E03D1E6600A
S11337B026610120F3E7636A21691A7C751E0932C8
S11337C04B1ED340D540AB4201D800290DD1236A0A
S11337D0E360002DECD02200E1680C32606A00F056
S11337E0C9FA013D0028F4D1D8E7ED1AF1E7000049
S11337F070B5437A0500002B01D1002070BD037A17
S11338007F2B2CD90121FFF79FFE041EF5D06B7A84
S1133810012B07DC2B7F03776B7F4377AB7F8377A9
S1133820EB7FC3772B6A9AB21B0C23751B0A637553
S11338300C4BA2761B68120AE276002B0BD02100F7
S11338402000163118309847637E227E1B021343F2
S1133850A3741B0AE3747F222B7A13402B7200F0AB
S113386017FACBE71008002010B50400FFF7C0FFDB
S1133870002802D000230120637210BD73B5040038
S1133880407A0D00012801D0002076BD237A9B07E1
S1133890FAD5E3698B42F7D3002BF6D02900200038
S11338A02669FFF775FF0028EED0002D19D1216A93
S11338B0606A00F059FB0028E6D025628023227A52
S11338C05B421343E56123722000FFF791FF002858
S11338D0DAD02900B54200D931002000FFF758FFA3
S11338E0D3E701AAE168606A00F044FA0028CBD06B
S11338F0606A0199431CDB7F102B0ED0084B994260
S1133900DCD200F031FB0028BED0064AE168606AD0
S113391000F084FA0028D1D1B6E7034BEFE7C046A4
S1133920F8FFFF0FFFFFFF0FF8FF00001B4B70B500
S113393015004A01D31811220400D87A104204D089
S11339403132154201D0002070BD1820144A21766E
S113395012686261998A5A8B090411432162DA7AE6
S1133960024010D1DB69E361012363720F2300215C
S11339702B402372E160216101206B06E4D5200015
S1133980FFF77CFFE0E7102ADDD12200606A1C32D9
S113399000F020FA0028D6D00423E6E71808002017
S11339A09C000020F0B50500447A002087B00E008A
S11339B01F00844206D103A91000FFF7D3FD00289D
S11339C002D1002007B0F0BD736A6B62F460346109
S11339D03369F26993421CD20F225B091A4030000A
S11339E00192FFF7B9FE011EEBD00378002B05D03E
S11339F0E52B46D1002C03D00124E9E7002C08D1A3
S1133A006A4612792A76324A12686A61002BF3D127
S1133A10012412233B40122BD3D1002C42D001218C
S1133A202800FFF791FD041ECBD0202200212000A6
S1133A3002F04EF80B2203A9200002F040F8254BB7
S1133A401B68002B3BD0210020000E31103098471A
S1133A50637C227C1B021343FF221A401B0AE3747B
S1133A606376E37BA2742276A27B1B021343A375C5
S1133A701B0AE37500F00CF90028A2D0297E3A0055
S1133A800CE00B2203A802F00BF80028A0D130238D
S1133A903B40302B00D194E73A0001992800FFF70E
S1133AA045FF8FE7737A022B00D18AE73000FFF7D6
S1133AB027FD002800D184E72C76074CB5E72122A6
S1133AC0A3730823227407326274E373C0E7C04609
S1133AD09C0000201008002018080020F0B5437A4C
S1133AE087B004000E000392012B2DD1037A9A07AC
S1133AF02AD55B0703D5E16923698B421FD1039B58
S1133B000193019A2369002A00D18BE0606A5D0A5F
S1133B100279DB05013A1540DB0DEDB20293002D6D
S1133B2017D1002B15D1E168002941D1236A002B5C
S1133B300ED12000FFF7CEFC00280AD104E02000BB
S1133B40FFF726FE0028DAD10123002063607EE01F
S1133B50E3608023029A9B009F1A019BBFB2BB4281
S1133B6000DA1F00626AE368117C023B8B405269F1
S1133B709B185D1980239B009F422BD1384B1A68F8
S1133B80954202D1012252421A60364B320029007A
S1133B901868FFF75BFC0028D6D080239B00F6183A
S1133BA0019BDB1B9BB201932369DF192761A8E703
S1133BB005AA00F0DFF8002849D0636A059A0133AA
S1133BC0DB7F102B04D0284B9A42B2D2E260C0E7CC
S1133BD0264BF9E7029B002B1BD12369E269934230
S1133BE017D300F055F80028AED01D4B204A1D60B5
S1133BF0012311780B431370029A1E4B3000D31823
S1133C001900DA198A420BD0057801300D700131A0
S1133C10F8E70121280000F067F80028ECD193E7C9
S1133C20D31ABCE7E169227A8B4205D9E361802388
S1133C305B421343237206E00F4B1B68002B02D038
S1133C40039B002BF3D1237A1B0702D4039807B0FC
S1133C50F0BD2000FFF7CCFD002800D174E7F5E7A4
S1133C609C0000201C0A0020F8FFFF0FF8FF000052
S1133C7014080020180800201008002007B56B461F
S1133C80D971073301221900FFF728FF0EBD000088
S1133C90F8B5104C01202378002B0AD00E4F0F4E9C
S1133CA00F4B3A0019683068FFF7D0FB002801D1A8
S1133CB00020F8BD0B4D2968002907D03A00306870
S1133CC0FFF7C4FB0028F3D000232B60002301205E
S1133CD02370EEE714080020180800201C0A0020B6
S1133CE09C000020180A002070B50D4E05003368B2
S1133CF00C0083420ED0FFF7CBFF002801D1002037
S1133D0070BD084B084A29001868FFF772FB0028A9
S1133D10F5D03560054B01201A7814431C70EFE789
S1133D209C0000201C0A0020180800201408002011
S1133D3070B50400FFF7ACFF002811D00023190070
S1133D40084D09485A1CAA4203D0C318197013001D
S1133D50F8E70120054B064A1C60137803431370EF
S1133D6070BDC04601020000180800209C0000201D
S1133D7014080020C36870B501330C0015008B4291
S1133D8001D2002070BD461CF27FC369C809102A05
S1133D9000D1080AC0180D4B1B68984209D1F27F64
S1133DA00B4B102A0BD1E4B264001B5B2B60012087
S1133DB0E8E70021FFF798FF0028F0D1E1E77F2230
S1133DC01440A4001B591B011B09EFE79C000020B1
S1133DD018080020F7B5802705001600002401917B
S1133DE0BF0001AA01992800FFF7C4FF00280DD0E5
S1133DF03A002B7C9A406B1CDB7FA418019A102B91
S1133E0005D0044B9A42ECD301203460FEBD024B32
S1133E10F8E7C046F8FFFF0FF8FF0000F7B506000B
S1133E200C000192012901D80020FEBDC3680133B2
S1133E309942F9D8471CFA7FC569CB09102A00D1E9
S1133E400B0AED18134B1B689D4216D1FA7F124BD7
S1133E50102A19D16A46E4B2928864001A530123E5
S1133E600E4918000A781A430A70327E9A42DCDD41
S1133E70B26855190A4A1560D7E700212800FFF7F0
S1133E8033FF0028E2D1CFE77F221440019AA40037
S1133E901A51E4E79C0000201808002014080020B0
S1133EA0180A0020F0B5146887B006000291019248
S1133EB0002C21D000270134F3682500013303933B
S1133EC000230093009BF268934227D2039B9D42F8
S1133ED001D902252C0005AA29003000FFF74AFF6A
S1133EE000281BD0059A6B1C002A0CD01C00009AD9
S1133EF01D0001320092E5E7029B0468013B594230
S1133F005941CFB2D8E702991A1B9142EFD1154A11
S1133F1029003000FFF782FF002803D10027380072
S1133F2007B0F0BDAC4208D26B1E2A001900300065
S1133F300093FFF773FF009DEEE7019B19680029CA
S1133F4005D1019B1C60002F08D10137E7E722004F
S1133F503000FFF763FF0028F3D1DFE7013434605A
S1133F60DDE7C046FFFFFF0F022337B505000C0055
S1133F70036001AA21002800FFF7FCFE002812D0EC
S1133F80002221002800FFF749FF00280BD06B1CFA
S1133F90DB7F019C102B04D0044B9C42E9D301200D
S1133FA03EBD034BF9E70020FAE7C046F8FFFF0FD8
S1133FB0F8FF0000F8B5404B0500141E196020D02E
S1133FC0042A01DD0020F8BD00210800FFF78CFE63
S1133FD00028F7D0631E394A1B01D318BF33FF33BF
S1133FE01B785B06EED11B3424011419A389628962
S1133FF01B041343632BE5D9E388248924041C435D
S1134000E0D000212000FFF76FFE0028DAD08021E5
S11340102A4B89001A7BD87A120202438A42D1D1F0
S11340201A7C9446002ACDD0D8890028CAD05E7B59
S1134030002EC7D02A76002201272E712A743A0056
S1134040297C8A40964204D04A1C2A740729F6DD4A
S1134050B8E7DA8A002A00D15A6A0019AA60E8612E
S11340601E6937023F0CBEB26F8467467A4310184C
S11340707201134E68629219521212186A61187D05
S1134080DE7C0002304300D1186AA41A2418CC4004
S11340900C4AEC606B1C944203D80C22DA770120A2
S11340A091E7094A944201D81022F7E7034AD26AF9
S11340B06A622022F2E7C0461C0A00201808002089
S11340C0FF010000F40F0000F4FF0000437A002B0E
S11340D004D18372C372C36001334372704730B535
S11340E0040085B002AD00680291039200F01BFF4A
S11340F06B79227AE17900932068002301F078F843
S11341002979029A206800F0E3FE206800F002FF9B
S113411005B030BD70B518260400FFF7D7FF330093
S1134120082120790D4D4343EB185956FDF784FFC0
S113413033000821A0794343EB185956FDF77CFF5F
S1134140082160794643AD196956FDF775FF044BA4
S1134150200006CBFFF7C3FF70BDC0460860000017
S1134160300A002007B5837A00910192002B07D012
S11341709A070AD5EFF3108253425341C37272B6C1
S11341800099019AFFF7ABFF07BDDB07F8D58389D8
S1134190014A9360F4E7C04600180040837A002B7C
S11341A005D09A0704D5C37A002B00D062B67047B5
S11341B0DB07FCD5C368024A9BB2D360F7E7C0466D
S11341C00018004010B5006800F0B6FE10BD0000F5
S11341D0094B0A4A0A491A6000225A711A71094B9A
S11341E0196012211971023199710131597114390F
S11341F05A72D9711A727047300A002000093D00C2
S1134200F40D0020200A0020F8B505000E00170068
S11342100024BC4208D02B68315D1B6828009847F5
S1134220002801D00134F4E72000F8BD70470300F2
S1134230FC33196ADA69914203D01B6AC018007E04
S1134240704701204042FBE70300FC33D8691B6A36
S1134250C01A01D50130FF3070470000F7B5019353
S1134260FA238026002504009B008360124B76000D
S113427008330F00456029000092036032001830B3
S113428001F026FC23002000FC332130DD613200E4
S11342901D622900FF3001F01BFC87239B00E318FB
S11342A05D609D606B461B78276123756B461B79A7
S11342B0A57520006375FEBDE45F000070B50600BF
S11342C018250C49006900F0B7FF306900F04CFE76
S11342D02B000821307D084C4343E3185956FDF761
S11342E0ABFE0821707D454364196156FDF7A4FEB9
S11342F070BDC046A0860100086000008A23002229
S11343009B00C1540C3BC3185A609A600123837507
S113431070470200FC32536810B501339468DBB275
S11343209C4202D054680155536010BDF7B5002576
S11343300400170001932800AA4227D02300FC336D
S1134340DD6101221D62206900F050FEA8421CD0EC
S113435026001836206900F0B7FE01350100300050
S1134360FFF7D7FF2069AF4206D000F019FE022103
S1134370206900F01FFEEDE700F009FE019B002B11
S113438003D00321206900F015FEE8B2FEBD10B58C
S11343900123FFF7CBFF10BD002210B5837D9342AC
S11343A00DD087239B00C4186368A4680133DBB273
S11343B0A34204D02130FF30FFF7ABFF01221000ED
S11343C010BD0300FC3399685A68914206D09A687C
S11343D0805C9A680132D2B29A60704701204042F0
S11343E0FBE700228A2370B59B00827505000E004E
S11343F0C15C006900F0FAFD002806D10321286998
S113440000F0D8FD0224200070BD872328009B0003
S1134410EA18536894682130FF301C1B01D501341D
S1134420FF34002C0ED02C69FFF7CBFFC1B2200063
S113443000F008FE0028E8D10321286900F0BAFD45
S11344400324E0E7002EDED00321286900F0B2FD4A
S1134450D9E710B50121FFF7C4FF10BD10B518301E
S1134460FFF7AFFF10BD70B50400006900F00AFE4D
S1134470002828D0206900F013FE00280ED12069FE
S113448000F018FE002855D0206900F00EFE002828
S113449050D0206900F013FE00284BD1206900F0B1
S11344A07FFD0321206900F085FD8C239B00E558E6
S11344B0002D04D0236820001B699847A8470023D7
S11344C0FC34E361236270BD206900F069FD20695A
S11344D0032100F06FFD206900F0F1FD0028F2D007
S11344E0872300229B00E3185A609A600123A37576
S11344F08B239B00E3589342E5D09847E3E72200DF
S1134500FC32D369126A0133DBB22069934206D1CB
S113451000F03DFD0321206900F04CFDD3E700F0DD
S1134520D3FD010020001830FFF7F3FE206900F0EE
S113453037FDEFE7206900F0BDFD0028C4D12069F4
S113454000F0A9FD0028BED0206900F0B8FD0028C5
S1134550D5D087239B00E218536892689B1A01D533
S11345600133FF33FF21002B05D020002130FF3021
S1134570FFF727FFC1B2206900F076FDA075A2E71E
S113458010B50248FFF76FFF10BDC046380A00207F
S113459010B51123102202490248FFF75FFE10BD37
S11345A0F00D0020380A002010B5024800F092FFF8
S11345B010BDC046280D002010B5024800F08AFF47
S11345C010BDC0466C0C0020F7B501240326154F1E
S11345D01549380000F003FC1449154800F0FFFBAE
S11345E01449154800F0FBFB1449154800F0F7FB8B
S11345F01449154800F0F3FB144D1549280000F048
S1134600EEFB39000096230001940022114800F0CB
S113461009FF009629000194232324220E4800F068
S113462001FFF7BDE40D002000080042000C004229
S1134630E80D002000100042EC0D002000140042A0
S1134640F00D002000180042F40D0020F80D0020A9
S1134650001C0042280D00206C0C0020F0B5150051
S11346600C001E0089B00EAB00229B5E0FAA1288BC
S1134670019005925A1BD11752184A400292321BDC
S1134680D11752184A4003920399029A8A4205DDCF
S113469032001E00130022002C001500B44205DD78
S11346A02A001D001300220034001600321B92B2AF
S11346B004925A1BD11752184A4007926A46102195
S11346C0515ECA0F52185210D90F0092EA179D4238
S11346D04A410123524213430693B44221DC019B15
S11346E0029A1B6803999B691F00059B8A4215DD8A
S11346F0220029000198B847009A079BD31A9BB25D
S11347001AB20092002A06DA069AAD18049A2DB25B
S1134710D3181BB20093013424B2DEE72A0021002F
S1134720E8E709B0F0BD10B504682469A04710BDDE
S113473037B506AC258804680095A46BA04737BD3F
S113474037B506AC258804680095E46BA04737BDEF
S113475073B506AC0025655F07AC2688046801962E
S11347600095246CA04773BD7047F0B51600040093
S11347700D0085B003930AAB1F8803685B699847F3
S1134780039B2268013B9B191BB200930197976A14
S11347902B00320029002000B84723682000DB6A80
S11347A0984705B0F0BDF0B505001C000E001700D9
S11347B085B00AAB1B88013C03930368A4195B69A9
S11347C0984703992A680191009723B23100946AAB
S11347D028003A00A0472B682800DB6A984705B0F8
S11347E0F0BDF0B50E0087B003930CAB029200222B
S11347F09B5E050004930DAB1B883400059303688E
S11348005B699847039B2A68F3189C420ADA059B64
S113481021000093176A049B029A28000134B847C8
S113482024B2EFE7D36A2800984707B0F0BD13B568
S113483001910E24015F0C22835E02680091146CC6
S113484000221100A04713BDF0B585B002930AAB56
S113485000241C5F0BAB1B8817000393029B05000D
S11348600E000268994210D1A74202DD3B002700E6
S11348701C00039901340091E31B946B1BB23A00B2
S113488031002800A04705B0F0BDA7420CD1029B1F
S1134890994201DD029E0291029B039901339B1B05
S11348A000911BB2D46BEAE753699847039A2B68CB
S11348B0019200949C6A2800029B3A003100A047B0
S11348C02B682800DB6A9847DDE7F0B50400150083
S11348D00E0087B004930CAB00229B5E05930DABD6
S11348E01B88039303685B699847039A23680092C3
S11348F05F6A2A00049B31002000B847059B039996
S11349005A1E2368009152195F6A3100049B2000EB
S113491012B2B847039A236800921F6A2A00059BC3
S113492031002000B8470499039A236801390092A2
S1134930891909B21F6A2A00059B2000B847236819
S11349402000DB6A984707B0F0BD70470323194085
S1134950417603894289012904D0032902D0838145
S1134960C28170478281C381FBE70000018181819C
S1134970012100234281C281012210B5074C494222
S11349800834436004604376038243820276C18222
S113499081828276C376C36110BDC04688690000F7
S11349A0F0B595B01D001AAB1B88040004931BAB33
S11349B01B88089105931CAB1F78C3690392002BD5
S11349C000D0BDE00C22835E8B4200DC82E00E222C
S11349D0835E039A934200DC7CE006237B435B18EE
S11349E0002B77DD039AFB009B18002B72DDC37E3E
S11349F0002B03D1AF2D01DD0135EDB2236820007A
S1134A005B69984705235D430E9300230A938E4BFD
S1134A105B1911930A9A119B9B5CBAB20C936B4677
S1134A201B8D0B93BBB209936B461B8C06930B9B9C
S1134A305343069AD3181BB20F936B469D892B00E0
S1134A4008339BB2109307950D9501220C9B1342DA
S1134A504DD0206897423FD16B469B8B06991AB282
S1134A600B9B5918836909B21E00049B2000B047B0
S1134A70099A0C9B94465B080C93099B079E5D194D
S1134A800D9B013663449BB20D93B3B20793079A0F
S1134A90109BADB29342D8D10A9B01335BB20A9307
S1134AA00E9B013BDBB20E93002BB3D1049B059A02
S1134AB093420BD02068012F31D106990092053121
S1134AC0056A09B20823039A2000A8472368200036
S1134AD0DB6A984715B0F0BD04993BB22AB2019144
S1134AE00093C16920000E000F99B047C0E7049BF2
S1134AF0059A9342BCD02068012F0AD16B469B8B48
S1134B0006991AB20B9B5918836909B21E00059BBA
S1134B10ACE76A463BB23421525E0599DFE70521D2
S1134B20099A3BB25143069A5118059A09B2019267
S1134B30099AD2000092C569039A2000A847C5E7E4
S1134B401A7AAD1AEDB25A68ED001B68AD180E93CF
S1134B502B880793AB780F93EB7810930523EB56D0
S1134B600B930623EB560C93012F51DD6B462C223D
S1134B709B5E09936B4630229B5E0A930026236852
S1134B8020005B69984706960596109B059A9A4201
S1134B909CDABBB212936B469B890D930A9B9B18BC
S1134BA0BAB253430D9AD3181BB213933300991B13
S1134BB00F9AC9B2914241DA5A1CD2B21192072219
S1134BC0134207D1079B07980E9A0133125C9BB2DC
S1134BD0069207936B461B7E5BB2002B12DA012F01
S1134BE01AD10D9B0C9A08989A18059BD2180B9B06
S1134BF012B21B185918236809B29B6920001D00C2
S1134C00049BA847069B5B00DBB20693119BCEE78F
S1134C1000230A930993B1E7099A04985118129A48
S1134C203BB25143089A0190891822680093D269D3
S1134C3009B215002000139AA847E3E7059D1E005A
S1134C400135EAB20592A0E788640000F0B5C269B4
S1134C5085B004000B00002A31D10A2908D1037E53
S1134C600282DB00628A9B186382012005B0F0BDDA
S1134C700D29FAD0817E007E00290DD01025615FB8
S1134C800625454349190C26A55FA94204DD228265
S1134C90628AC100521862820290E08A1221625E26
S1134CA00190A08A1025615F00902000FFF778FE34
S1134CB00622237E5343228A9B182382D5E70A299E
S1134CC005D100230382927A037E5343CAE70D2958
S1134CD0CBD0157AA942C8DB517A8B42C5DC5D1B67
S1134CE05168ED006D18AE78002E24D0E9780029C3
S1134CF021D0817E007E002911D0052169568919B1
S1134D0041431027E65F89190C27E65FB14206DDAF
S1134D1000212182927A618A42435218628202906F
S1134D20E08A1221625E0190A08A1026A15F0090A1
S1134D302000FFF735FE2B79227EBBE70C23C05EF3
S1134D4070470E23C05E7047FEE7F0B58DB00E1EAF
S1134D5000922DD01300023B222B33D80A2A33D1E0
S1134D60002831DA01234442019303AF0EE020000E
S1134D70009900F06DFD20000D00009900F0E2FCA8
S1134D800400092D17D830353D7001373A00002C46
S1134D90EDD103ABBB42EAD001993300002902D024
S1134DA02D21731C317003A98A4206D800221A707F
S1134DB030000DB0F0BD5735E6E7013A11781970AF
S1134DC00133F0E70026F3E704000023CCE710B535
S1134DD0FFF7BBFF10BD10B500F04EFE10BD016023
S1134DE07047F0B505AC25780468981E471EB84195
S1134DF026689207000632430243072022600140DE
S1134E00AD01626829430020022B00D058031143EE
S1134E1001436160F0BD10B5C0240368A4031868A1
S1134E20120522400243C0200904800201401143BC
S1134E3019605A681043586010BD0122036819684C
S1134E400A431A601A68D207FCD4DA69D207F9D483
S1134E5070470222036819680A431A60DA699207E4
S1134E60FCD4704703681A7ED20702D41A7E9207D4
S1134E70FCD57047002203685A8370470368187E84
S1134E804007C00F70470368187EC009704780232D
S1134E9002685B42117E0B43137670470368187EE9
S1134EA0C007C00F70470368188DC0B2704703680D
S1134EB01A7ED207FCD589B20120198570470122D8
S1134EC003689A757047012203681A7570470000D9
S1134ED070B5012504684B082B4029402068090758
S1134EE05B070B43034323605100034800F02AFC93
S1134EF00138C0B2207370BD006CDC02012203686B
S1134F0019680A431A601A68D207FCD4DA69D2070E
S1134F10F9D470470222036819680A431A60DA69EF
S1134F209207FCD470470368DA699207FCD4022123
S1134F301A688A431A6070470268936A5B0A5B02C4
S1134F4019439162137E5B07FCD5906AC0B2704727
S1134F500122036819680A431A601A68D207FCD44C
S1134F60DA69D207F9D470470222036819680A4340
S1134F701A60DA699207FCD430215A8B8A431100F3
S1134F8010220A435A83DA695207FCD470478023FB
S1134F900268DB02116851680B43536070470000DC
S1134FA0036803491A685A680A405A607047C04641
S1134FB0FFFFFBFF036810B518680322C006400F0B
S1134FC0094C052809D158681140090420400143BF
S1134FD05960DA695207FCD410BD586811400904BD
S1134FE0204001435960F7E7FFFFFCFF49001143EC
S1134FF0036810B5CCB2598B8906890F012904D0F6
S1135000598B8906890F0229F5D1596AC90AC9023F
S113501021435962002A0CD0187E8007C00F0BD19F
S11350201A7ED207F8D5C022596892020A435A6000
S113503010BD1A7ED207FCD5588B4007C30F012040
S11350405840F5E703681A0028321170187EC0072B
S1135050C00F03D15A8BD207F8D57047588B40073D
S1135060C30F01205840F8E7036800201A002832D3
S113507011701A7E520704D5588B01234007C00FC4
S11350805840704703681868C006400F043843420C
S11350905841C0B270470368187E4007C00F70477C
S11350A00368187EC007C00F70470368588BC0069A
S11350B0C00F70470368187E8007C00F70470368ED
S11350C0588B0007C00F704703681A68D206520F46
S11350D0052A02D11A7E9207FCD528331878C0B26B
S11350E0704700000368214A30B5934211D0204A2A
S11350F093422FD01F4A93422FD01F4A93422FD05E
S11351001E4A93422FD01E4A934222D10E231922C3
S113511001E0092314220121032599401948C024E0
S1135120016099082B40AB40FC359D40890009186B
S1135130A4000859A843C0259D402B0003430B51EC
S11351408023DB011A43104B5A805A7852B2002A4A
S1135150FBDB30BD0A231522DDE70B231622DAE739
S11351600C231722D7E70D231822D4E700080042A6
S1135170000C0042001000420014004200180042DB
S1135180001C004200E100E0000C0040F8B50400FF
S113519016000F001D00FFF7A5FF2000FFF74DFECE
S11351A01C22BB00134072072468120C13432360B3
S11351B08423A375012F18D11021012E00D00839A2
S11351C00A4B69431868C00000F0BCFA0722A3899F
S11351D00240DB045203DB0C1343A3810304A089C4
S11351E0DB0C400B40031843A081F8BD980000205D
S11351F0F7B50700019308AB1E780D001400FFF704
S11352007DFE3800FFF76EFFC02224059203144090
S1135210B2070C2607211643019A34430A40C026DC
S113522011008022B6022D043B68354092022543CA
S11352300A431D605A60F7BD70B505000C00FFF706
S113524051FF2800FFF784FE14232D6861002B60B2
S11352500C4B1E68300000F075FA0B490400300056
S113526000F070FA7D23FA215843C90000F06AFA6D
S1135270FF23241AE868053C1C4098430443EC606F
S113528070BDC0469800002040420F0001207047C6
S113529010B50368014A1B6A984710BD1304000047
S11352A0826D436D9A4203D0836DC018007D7047B0
S11352B001204042FBE710B504000069FFF7BDFD83
S11352C00023220063659C32A365A034136023602D
S11352D010BDF02001403039484248417047F02366
S11352E01B011940802306209B0099420AD00133F8
S11352F0FF330130994205D0802302385B00994284
S113530000D0002070470F2001400020012903D065
S11353100239481E8141481C704700000300F0B563
S1135320182685B00391A4330400187833000821AB
S11353304343334D1700EB185956FCF77DFE230009
S1135340A5331878330008214343EB185956FCF76A
S113535073FE2300A7331B78022B0AD12300B83332
S11353601878FF2805D008214643AE197156FCF77A
S113537063FE2600A8363078FF2819D00121FCF7F7
S1135380E3FD1822210033781E485A43AB56AC3152
S1135390DB01181808601C49AD185B1821000122B4
S11353A0B0310B6069688A402100B4310A601A6028
S11353B00122039B11002069FFF7E8FE3900200059
S11353C0FFF78DFF390005002000FFF79CFF39002F
S11353D006002000FFF77DFF3300009029002069BC
S11353E00122FFF7FEFC2300A6331A7859782069BE
S11353F0FFF711FD2069FFF72CFD05B0F0BDC04695
S113540008600000184400411444004110B54022D3
S11354100021040000F05CFB00232000236463648B
S113542010BD0000F7B51D0008AB1B780400009305
S113543009AB1B781600019300234360FA239B00F9
S113544083600E4B0F00083303601430FFF7DEFF58
S113545020005C30FFF7DAFF6A4623001278A43399
S113546027619A706A4612791E70DA7022005D70A4
S1135470FF23A832200013701374FEBDE0690000FE
S1135480036C406C181A00D54030704710B5040006
S113549020005C30FFF7F4FF0028F9D12069FFF702
S11354A0E1FC10BD10B51430FFF7EAFF10BD026C2B
S11354B0436C9A4204DB036C406CC01A3F30704763
S11354C0436C006C181A0138F9E710B55C30FFF72B
S11354D0EEFF10BD70B504000069FFF7CFFC002893
S11354E01FD02069FFF7DFFC3F22636D01331340B7
S11354F0A26D934203D0626DA218107563652300F8
S1135500A8331B78FF2B0CD020001430FFF7CFFFFB
S1135510092806DC23002200AC33B4321B6812686D
S11355201A602069FFF7BAFC002819D025005C3501
S11355302800FFF7A5FF002821D022002300A03275
S11355409C3311681B68994216D03F201368E95CAC
S11355501368013303401360C9B22069FFF7A7FC45
S11355602069FFF790FC002805D02069FFF78FFC25
S11355702069FFF77FFC70BD01214942ECE72069F7
S1135580FFF7A1FCECE70000F8B5040000690D008A
S1135590FFF784FC002826D13F26012722002100A2
S11355A09C321368A03108680133334083422ED102
S11355B0EFF310833B420DD11D4B5B68DB05DB0D24
S11355C0ECD0103B5BB2002B18DB9B08C033194AAC
S11355D09B009B582069FFF761FC0028DED0200067
S11355E0FFF778FFDAE720005C30FFF749FF002877
S11355F0D2D129002069FFF75AFC16E00F2213408C
S1135600083B9B080C4A9B009B181B68E2E7136845
S113561001331E400B689E4204D0210013685C31A4
S1135620CD5416602069FFF74AFC0120F8BDC0463E
S113563000ED00E000E100E01CED00E0826D436D50
S113564070B504009A421AD03F22836DC3181D7DA1
S1135650836D0133134083652300A8331B78FF2B2C
S11356600BD020001430FFF722FF0A2805DD2300A9
S1135670B434B0331B6822681A60280070BD012559
S11356806D42E9E770B50E0000254468002C0BD08C
S1135690236831005B6820009847002802DB2D183E
S11356A0E468F3E701256D42280070BD70B50D0074
S11356B04468002C08D0236829009B682000984780
S11356C0002802D1E468F4E7200070BD70B50D0035
S11356D04468002C07D0236829002000DB68984721
S11356E0E4682D18F5E72C7070BD70B50D004468A2
S11356F0002C08D0236829001B6820009847002844
S113570002D1E468F4E7200070BD00000121064ADC
S113571010B5136805480B4005D102240470241900
S113572044704360116010BDFC0D0020000E002089
S113573002B4714649084900095C49008E4402BC20
S11357407047C046002243088B4274D303098B423E
S11357505FD3030A8B4244D3030B8B4228D3030C3D
S11357608B420DD3FF22090212BA030C8B4202D3DF
S11357701212090265D0030B8B4219D300E0090A07
S1135780C30B8B4201D3CB03C01A5241830B8B4210
S113579001D38B03C01A5241430B8B4201D34B03F9
S11357A0C01A5241030B8B4201D30B03C01A52415E
S11357B0C30A8B4201D3CB02C01A5241830A8B42E3
S11357C001D38B02C01A5241430A8B4201D34B02CC
S11357D0C01A5241030A8B4201D30B02C01A524130
S11357E0CDD2C3098B4201D3CB01C01A52418309E4
S11357F08B4201D38B01C01A524143098B4201D31E
S11358004B01C01A524103098B4201D30B01C01A48
S11358105241C3088B4201D3CB00C01A52418308C2
S11358208B4201D38B00C01A524143088B4201D3EF
S11358304B00C01A5241411A00D20146524110464F
S11358407047FFE701B5002000F0F0F802BDC04644
S11358500029F7D076E7704703460B437FD4002234
S113586043088B4274D303098B425FD3030A8B42F0
S113587044D3030B8B4228D3030C8B420DD3FF225A
S1135880090212BA030C8B4202D31212090265D028
S1135890030B8B4219D300E0090AC30B8B4201D3DB
S11358A0CB03C01A5241830B8B4201D38B03C01A22
S11358B05241430B8B4201D34B03C01A5241030B99
S11358C08B4201D30B03C01A5241C30A8B4201D34A
S11358D0CB02C01A5241830A8B4201D38B02C01AF5
S11358E05241430A8B4201D34B02C01A5241030A6C
S11358F08B4201D30B02C01A5241CDD2C3098B4251
S113590001D3CB01C01A524183098B4201D38B01CD
S1135910C01A524143098B4201D34B01C01A524170
S113592003098B4201D30B01C01A5241C3088B42B5
S113593001D3CB00C01A524183088B4201D38B00A0
S1135940C01A524143088B4201D34B00C01A524142
S1135950411A00D201465241104670475DE0CA0F19
S113596000D04942031000D34042534000229C46D9
S113597003098B422DD3030A8B4212D3FC228901E3
S113598012BA030A8B420CD3890192118B4208D3B9
S1135990890192118B4204D389013AD0921100E01B
S11359A08909C3098B4201D3CB01C01A524183092F
S11359B08B4201D38B01C01A524143098B4201D35C
S11359C04B01C01A524103098B4201D30B01C01A87
S11359D05241C3088B4201D3CB00C01A5241830801
S11359E08B4201D38B00C01A5241D9D243088B4257
S11359F001D34B00C01A5241411A00D201466346FA
S1135A0052415B10104601D34042002B00D549425D
S1135A10704763465B1000D3404201B5002000F09C
S1135A2005F802BD0029F8D016E770477047C04654
S1135A3070B500260C4D0D4C641BA410A64209D170
S1135A40002600F081F90A4D0A4C641BA410A642FA
S1135A5005D170BDB300EB5898470136EEE7B300AB
S1135A60EB5898470136F2E70401002004010020B6
S1135A70040100202801002010B5034B0100186820
S1135A8000F078F810BDC046A000002010B5034B0C
S1135A900100186800F024F810BDC046A0000020E2
S1135AA030B50024A24201D1002005E0035D651C4D
S1135AB00C5DA34201D0181B30BD2C00F2E700237B
S1135AC010B59A4200D110BDCC5CC4540133F8E740
S1135AD003008218934200D1704719700133F9E72B
S1135AE070B50500002910D00C1F2368002B00DAC4
S1135AF0E418280000F0EAF81D4A1368002B05D1C9
S1135B0063601460280000F0E2F870BDA34209D974
S1135B10216860188342F3D118685B6841182160DA
S1135B20EEE713005A68002A01D0A242F9D9196895
S1135B305818A0420BD120680918581819608242DD
S1135B40E0D110685268411819605A60DAE7A0423F
S1135B5002D90C232B60D5E721686018824203D157
S1135B60106852684118216062605C60CAE7C046F0
S1135B70080E0020032370B5CD1C9D430835060094
S1135B800C2D1ED20C25A9421DD8300000F09EF821
S1135B90254A14682100002919D1244C2368002BBC
S1135BA003D1300000F04EF820602900300000F0EE
S1135BB049F8431C2CD10C233000336000F087F8E3
S1135BC003E0002DDFDA0C233360002070BD0B6886
S1135BD05B1B1AD40B2B03D90B60CC18256003E094
S1135BE08C420ED163681360300000F070F820001E
S1135BF007220B30231D9043C31AE7D05A42E250C8
S1135C00E4E74B6863600C00EEE70C004968C2E708
S1135C100323C41C9C43A042E0D0211A300000F0AE
S1135C2011F8431CDAD1C6E7080E00200C0E002040
S1135C3010B5034B0A000100186800F049F810BDC4
S1135C40A0000020002370B5064C05000800236066
S1135C5000F06CF8431C03D12368002B00D02B60A8
S1135C6070BDC046140E0020C9B20378002B04D0C6
S1135C70994200D170470130F7E74B4259414942FC
S1135C800840F7E7031C0A7801311A700133002A2F
S1135C90F9D170470023C25C0133002AFBD1581E9E
S1135CA0704770B50400002A00D170BD0D78561EEF
S1135CB0631C25700131002D05D1A4189C42F4D039
S1135CC01D700133FAE71C003200ECE7704770479F
S1135CD0F8B507000D001600002905D11100FFF7E3
