S023000061726475696E6F2D6E6F75676874732D616E642D63726F737365732E737265634B
S21400000000800020ED2B0000D52B0000D52B000033
S21400001000000000000000000000000000000000DB
S214000020000000000000000000000000D52B0000CB
S2140000300000000000000000D52B00004D2C000042
S214000040D52B0000D52B0000D52B0000D52B0000AB
S214000050D52B0000D52B0000D52B0000D92B000097
S214000060D52B000019F00000D52B0000D52B000082
S214000070A5EE0000D52B000029F00000D52B0000CF
S214000080D52B0000D52B0000D52B0000D52B00006B
S21400009000000000D52B0000D52B0000D52B00005B
S2140000A0D52B0000D52B0000D52B0000D52B00004B
S2140000B00000000010B5064C2378002B07D1054B36
S2140000C0002B02D0044800E000BF0123237010BDBF
S2140000D03401002000000000F8190100084B10B59C
S2140000E0002B03D00749084800E000BF0748036814
S2140000F0002B00D110BD064B002BFBD09847F9E72C
S2140001000000000038010020F8190100300100202E
S2140001100000000090B585B000AF78600E23FC1894
S2140001207B681B6814331B687A68100098470300C6
S214000130DBB223700E23FC1801347B681B68143373
S2140001401B687A68100098470300DBB223700E2302
S214000150FB181B881800BD4605B090BD90B585B04D
S21400016000AF78600C23FC187B681B6814331B6890
S2140001707A68100098470300DBB223700C23FC1843
S21400018001347B681B6814331B687A681000984734
S2140001900300DBB223700C23FC1802347B681B6858
S2140001A014331B687A68100098470300DBB223708C
S2140001B00C23FC1803347B681B6814331B687A68AE
S2140001C0100098470300DBB22370FB681800BD469A
S2140001D005B090BD80B582B000AF786039603B68EE
S2140001E05A687B685A607B681800BD4602B080BDBE
S2140001F080B582B000AF786039607B683A681100DD
S2140002001800FFF7E7FF3B689A687B689A603B68D0
S214000210DA687B68DA607B681800BD4602B080BD8D
S21400022080B582B000AF786039607B683A681100AC
S2140002301800FFF7DDFF7B68103319000C223B68BF
S2140002401033002A05DB1878087001310133013AB3
S214000250F7E73B681A6A7B681A627B681800BD4637
S21400026002B080BD90B5EBB002AF040008001100EC
S214000270884BD02252009446BC446344221C1A7019
S214000280854BD02252009446BC446344021C1A801C
S214000290824BD02252009446BC4463440A1C1A8007
S2140002A08A235B00FB1818000CF036FB9C23FF33F8
S2140002B0FB18FF221A707C23FF33FB1800221A70EB
S2140002C0CD235B00FB1801221A700023BE225200C9
S2140002D0BA181360724BD02252009446BC44634452
S2140002E0180006231A00002110F016FC6C4BD022D2
S2140002F052009446BC4463442E225A70684BD02267
S21400030052009446BC44634462229A70644BD022E6
S21400031052009446BC4463446D22DA70604BD0228F
S21400032052009446BC44634470221A715C4BD0223F
S21400033052009446BC446344564AD02149008C4639
S214000340BC44624412781A70564B18000FF072FDC7
S21400035003001A00504BD02149008C46BC4463442D
S21400036000215B5E93420FDA4E4B18000FF066FDDD
S21400037003001A00494BD02149008C46BC44634414
S21400038000215B5E934201DB012300E00023002B8B
S21400039000D0F1E29C235B00F8180C23FA184249BF
S2140003A001230CF0A1FB9C235B00FA188A235B0058
S2140003B0FB1811001800FFF733FF8A235B00FB18B9
S2140003C01800FFF7A7FE0300384A944663445A42D3
S2140003D05341DBB2002B00D1C7E28A235B00FB1837
S2140003E01800FFF7BBFE8A235B00FB181800FFF718
S2140003F0B5FE8A235B00FB181800FFF7AFFE03006C
S214000400BA225200BA1813608A235B00FB18180041
S214000410FFF7A4FE8A235B00FB181800FFF79EFE7A
S2140004200300B8225200BA1813608A235B00FB1838
S2140004301800FFF793FE0300CE225200BA1813608E
S2140004408A235B00FB181800FFF764FE0300013BDD
S2140004505A425341DBB2002B00D186E28A235B006E
S214000460FB181800FFF756FE03001A007023FF3330
S214000470FB181A707023FF33FB181B78182B17D144
S2140004808A235B00FB181800FFF768FE031E0FD1D7
S21400049001230EE067FEFFFF64FEFFFF62FEFFFF24
S2140004A06CFEFFFF500100208C070020BEB2FFFF4D
S2140004B00023002B00D158E27C23FF33FB180122D7
S2140004C01A70B8235B00FB181B685A1C13005B00ED
S2140004D09B181A0003239A431300B4225200BA183A
S2140004E01360CE235B00FB181B68002B0DDACE23AF
S2140004F05B00FB181B685B42CE225200BA181360E2
S214000500CD235B00FB1800221A709F4BD0225200AE
S2140005109446BC44634400229A5EB8235B00FB18F2
S2140005201B68D318013BB2225200BA181360974BCF
S214000530D02252009446BC44634400229A5ECE23E6
S2140005405B00FB181B68D318013BB0225200BA1898
S2140005501360B2235B00FB181B68002B00DA04E272
S214000560B0235B00FB181B68002B00DAFDE1B82304
S2140005705B00FB181B68CA225200BA181360CE2311
S2140005805B00FB181B68C8225200BA1813600023D1
S214000590C0225200BA181360C0235B00FB181B6809
S2140005A0C2225200BA181360774BD02252009446EB
S2140005B0BC44634400229B5E002B1DDA724BD022A3
S2140005C052009446BC44634400229B5E5B42C222B7
S2140005D05200BA1813606C4BD02252009446BC44AA
S2140005E0634400221A80B2235B00FB181B680133A9
S2140005F0CA225200BA181360644BD02252009446A6
S214000600BC44634400229B5E002B1DDA5F4BD02265
S21400061052009446BC44634400229B5E5B42C02268
S2140006205200BA181360594BD02252009446BC446C
S214000630634400221A80B0235B00FB181B6801335A
S214000640C8225200BA181360514B18000FF0F2FB84
S21400065003001A00B2235B00FB181B68D00FD917E3
S214000660934248410300DBB2002B12D0484B1800DF
S2140006700FF0E0FB03001A00434BD02149008C46E4
S214000680BC44634400215B5ED31ACA225200BA18E7
S21400069013603F4B18000FF0D1FB03001A00B02385
S2140006A05B00FB181B68D00FD91793424841030024
S2140006B0DBB2002B12D0364B18000FF0BFFB030046
S2140006C01A00324BD02149008C46BC4463440021BA
S2140006D05B5ED31AC8225200BA1813602C4B18005F
S2140006E004F066FD284BD02252009446BC44634476
S2140006F01988264BD02252009446BC4463441A887C
S214000700CA235B00FB181B689CB2C8235B00FB185F
S2140007101B689BB21E480093230009F057FE002377
S214000720C6225200BA181360C6235B00FB181A686C
S214000730C8235B00FB181B689A4200DB11E1CD233F
S2140007405B00FB181B78002B24D0CE235B00FB1825
S2140007501B685A1EC6235B00FB181968C0235B0083
S214000760FB181B68CB18D31A1A00B4235B00FB18BF
S2140007701B685A43BA235B00FB181B68D318BE22BB
S2140007805200BA1813601DE064FEFFFF62FEFFFF12
S21400079050010020C6235B00FB181A68C0235B00CC
S2140007A0FB181B68D3181A00B4235B00FB181B68E1
S2140007B05A43BA235B00FB181B68D318BE225200AC
S2140007C0BA181360C2235B00FB181A6813005B009C
S2140007D09B181A00BE235B00FB181B689B18BE22E2
S2140007E05200BA1813608A235B00FB1818000CF03E
S2140007F0B7F80200BE235B00FB181B68D31A5A1E0C
S2140008009341DBB2002B17D05D4B180004F0A0FC20
S214000810BE235B00FB181A688A235B00FB181100D6
S21400082018000CF091F89C23FF33FB18FF221A7077
S214000830534B180004F0BCFC0023C4225200BA1824
S2140008401360C4235B00FB181A68CA235B00FB18FE
S2140008501B689A427BDA9C23FF33FB181B78FF2B1E
S21400086015D1474B180004F073FC1423F9188A239B
S2140008705B00FB18FF2218000CF05CF89C23FF338B
S214000880FB1800221A703E4B180004F091FC9C23C3
S214000890FF33FB181B789C22FF32BA18591C1170C4
S2140008A019006023FF33FB18364AD02040008446E8
S2140008B0BC446244525C1A709C23FF33FB181B78BE
S2140008C09C22FF32BA18591C11701900AF235B0026
S2140008D0FB182C4AD02040008446BC446244525C3C
S2140008E01A709C23FF33FB181B789C22FF32BA1821
S2140008F0591C117019005E23FF33FB18214AD020C3
S21400090040008446BC446244525C1A706023FF3345
S214000910FB181C78AF235B00FB181A785E23FF33A6
S214000920FB1819781648230004F0A6FF03001A00E7
S214000930134B110018000BF0F1FDC4235B00FB18ED
S2140009401B680133C4225200BA18136079E7C62325
S2140009505B00FB181B680133C6225200BA181360EE
S214000960E2E6074B180004F0F3FB8A235B00FB1853
S21400097018000BF0FDFF00E0C046BD4669B090BD14
S2140009805001002074FEFFFF90B5E9B002AF78601A
S21400099008001100674BCC2252009446BC446344C6
S2140009A0021C1A80644BCC2252009446BC4463441A
S2140009B00A1C1A8086235B00FB1818000BF0ACFF9D
S2140009C09423FF33FB18FF221A707423FF33FB189F
S2140009D000221A70C9235B00FB1801221A7000233C
S2140009E0BA225200BA181360544B18000FF022FABD
S2140009F003001A004F4BCC2149008C46BC4463448C
S214000A0000215B5E93420FDA4C4B18000FF016FA8B
S214000A1003001A00484BCC2149008C46BC44634472
S214000A2000215B5E934201DB012300E00023002BE4
S214000A3000D0EDE298235B00F8187A68404901235D
S214000A400CF052F898235B00FA1886235B00FB181C
S214000A5011001800FFF7E4FB86235B00FB18180064
S214000A60FFF758FB0300374A944663445A42534103
S214000A70DBB2002B00D1C4E286235B00FB18180013
S214000A80FFF76CFB86235B00FB181800FFF766FB7E
S214000A9086235B00FB181800FFF760FB0300B622F6
S214000AA05200BA18136086235B00FB181800FFF785
S214000AB055FB86235B00FB181800FFF74FFB03006F
S214000AC0B4225200BA18136086235B00FB18180085
S214000AD0FFF744FB0300CA225200BA1813608623AD
S214000AE05B00FB181800FFF715FB0300013B5A429A
S214000AF05341DBB2002B00D183E286235B00FB1858
S214000B001800FFF707FB03001A006823FF33FB18E3
S214000B101A706823FF33FB181B78182B14D1862312
S214000B205B00FB181800FFF719FB031E0CD101230E
S214000B300BE0C0466AFEFFFF68FEFFFF5001002084
S214000B408C070020BEB2FFFF0023002B00D158E226
S214000B507423FF33FB1801221A70B4235B00FB18C2
S214000B601B685A1C13005B009B181A0003239A4349
S214000B701300B0225200BA181360CA235B00FB1899
S214000B801B68002B0DDACA235B00FB181B685B4250
S214000B90CA225200BA181360C9235B00FB18002251
S214000BA01A709F4BCC2252009446BC4463440022E9
S214000BB09A5EB4235B00FB181B68D318013BAE2279
S214000BC05200BA181360974BCC2252009446BC448D
S214000BD0634400229A5ECA235B00FB181B68D31886
S214000BE0013BAC225200BA181360AE235B00FB1820
S214000BF01B68002B00DA04E2AC235B00FB181B68C2
S214000C00002B00DAFDE1B4235B00FB181B68C6224C
S214000C105200BA181360CA235B00FB181B68C42274
S214000C205200BA1813600023BC225200BA18136090
S214000C30BC235B00FB181B68BE225200BA18136068
S214000C40774BCC2252009446BC44634400229B5E01
S214000C50002B1DDA724BCC2252009446BC446344EF
S214000C6000229B5E5B42BE225200BA1813606C4B99
S214000C70CC2252009446BC44634400221A80AE2321
S214000C805B00FB181B680133C6225200BA181360BB
S214000C90644BCC2252009446BC44634400229B5EC4
S214000CA0002B1DDA5F4BCC2252009446BC446344B2
S214000CB000229B5E5B42BC225200BA181360594B5E
S214000CC0CC2252009446BC44634400221A80AC23D3
S214000CD05B00FB181B680133C4225200BA1813606D
S214000CE0514B18000FF0A6F803001A00AE235B0065
S214000CF0FB181B68D00FD917934248410300DBB29C
S214000D00002B12D0484B18000FF094F803001A007E
S214000D10434BCC2149008C46BC44634400215B5EB7
S214000D20D31AC6225200BA1813603F4B18000FF0B1
S214000D3085F803001A00AC235B00FB181B68D00F75
S214000D40D917934248410300DBB2002B12D0364B32
S214000D5018000FF073F803001A00324BCC2149003C
S214000D608C46BC44634400215B5ED31AC422520006
S214000D70BA1813602C4B180004F01AFA284BCC2231
S214000D8052009446BC4463441988264BCC22520039
S214000D909446BC4463441A88C6235B00FB181B6851
S214000DA09CB2C4235B00FB181B689BB21E480093D2
S214000DB0230009F00BFB0023C2225200BA1813606E
S214000DC0C2235B00FB181A68C4235B00FB181B6871
S214000DD09A4200DB11E1C9235B00FB181B78002B4D
S214000DE024D0CA235B00FB181B685A1EC2235B0074
S214000DF0FB181968BC235B00FB181B68CB18D31ABA
S214000E001A00B0235B00FB181B685A43B6235B002E
S214000E10FB181B68D318BA225200BA1813601DE0DC
S214000E206AFEFFFF68FEFFFF50010020C2235B0042
S214000E30FB181A68BC235B00FB181B68D3181A0043
S214000E40B0235B00FB181B685A43B6235B00FB18F5
S214000E501B68D318BA225200BA181360BE235B0070
S214000E60FB181A6813005B009B181A00BA235B0075
S214000E70FB181B689B18BA225200BA181360862308
S214000E805B00FB1818000BF06BFD0200BA235B003A
S214000E90FB181B68D31A5A1E9341DBB2002B17D0DF
S214000EA05D4B180004F054F9BA235B00FB181A686F
S214000EB086235B00FB18110018000BF045FD9423F9
S214000EC0FF33FB18FF221A70534B180004F070F91A
S214000ED00023C0225200BA181360C0235B00FB1820
S214000EE01A68C6235B00FB181B689A427BDA9423B9
S214000EF0FF33FB181B78FF2B15D1474B180004F067
S214000F0027F90C23F91886235B00FB18FF2218002C
S214000F100BF010FD9423FF33FB1800221A703E4B93
S214000F20180004F045F99423FF33FB181B7894222D
S214000F30FF32BA18591C117019005823FF33FB18DA
S214000F40364ACC2040008446BC446244525C1A7048
S214000F509423FF33FB181B789422FF32BA18591CCF
S214000F6011701900AB235B00FB182C4ACC20400004
S214000F708446BC446244525C1A709423FF33FB18C8
S214000F801B789422FF32BA18591C11701900562388
S214000F90FF33FB18214ACC2040008446BC44624400
S214000FA0525C1A705823FF33FB181C78AB235B0087
S214000FB0FB181A785623FF33FB18197816482300B7
S214000FC004F05AFC03001A00134B110018000BF033
S214000FD0A5FAC0235B00FB181B680133C022520031
S214000FE0BA18136079E7C2235B00FB181B6801334D
S214000FF0C2225200BA181360E2E6074B180004F04B
S214001000A7F886235B00FB1818000BF0B1FC00E085
S214001010C046BD4667B090BD5001002074FEFFFF7D
S21400102080B584B002AF78607B681549002218004E
S21400103004F002F87B6800229B5E180000230093F1
S214001040F023F022002103F01FFF03001AB27B6892
S2140010501A807B6802229B5E1800A0235900A023FA
S2140010605A00002300930B00002103F00DFF03003D
S2140010701AB27B685A80C0467868BD4602B080BD0A
S214001080B401002090B587B000AF0400381D0160A1
S214001090426019000F23FB18221C1A700E23FB183F
S2140010A00A1C1A700E23FB181B78022B1BD10F2369
S2140010B0FB181B780122134004D01723FB186A2262
S2140010C01A7003E01723FB186B221A703B1D0021D1
S2140010D0595E3B1D02229A5E1723FB181B781800E8
S2140010E0FFF7C0F81AE00F23FB181B780122134005
S2140010F004D01723FB1868221A7003E01723FB1886
S21400110069221A703B1D0021595E3B1D02229A5E21
S2140011101723FB181B781800FFF7A4F8C046BD4637
S21400112007B090BD80B588B000AF0200FB1D1A70F6
S214001130BB1D0A1C1A70FB1D19780823FB180A220F
S214001140180003F0ADFE0823FB180021180003F07A
S21400115013FF0300162250211800FFF783F8082318
S214001160FB18180003F000FFBB1D19781423FB18AA
S2140011700A22180003F094FE1423FB18002118001E
S21400118003F0FAFE0300162286211800FFF76AF81D
S2140011901423FB18180003F0E7FEC046BD4608B04F
S2140011A080BD000080B584B002AF0200FB1D1A703F
S2140011B0BB1D0A1C1A70002200216120FFF752F89E
S2140011C0052200216220FFF74DF81E2274216320BD
S2140011D0FFF748F8BB1D1A78FB1D1B781100180096
S2140011E0FFF7A0FF0D480E4B0093F0234D22002181
S2140011F004F0B8F809480A4B0093F0234E22002169
S21400120004F0B0F80548064B0093F0234F22002167
S21400121004F0A8F8C046BD4602B080BD50010020CC
S214001220FFFF000080B584B000AF3B001860596037
S2140012300F23FB18FF221A703B0002229B5E4F2BE7
S21400124022DD3B0002229B5EA02B1DDC3B00002221
S2140012509B5E502B04DC0F23FB1800221A705EE006
S2140012603B0000229B5EA02B04DC0F23FB18012210
S2140012701A7054E03B0000229B5EEF2B4FDC0F23DE
S214001280FB1802221A704AE03B0002229B5EA02B4B
S21400129022DD3B0002229B5EF02B1DDC3B00002281
S2140012A09B5E502B04DC0F23FB1803221A7038E0D9
S2140012B03B0000229B5EA02B04DC0F23FB180422BD
S2140012C01A702EE03B0000229B5EEF2B29DC0F23DA
S2140012D0FB1805221A7024E03B0002229B5EF02BCE
S2140012E020DD3B0000229B5E502B04DC0F23FB1806
S2140012F006221A7016E03B0000229B5EA02B04DC40
S2140013000F23FB1807221A700CE03B0000229B5E9E
S214001310EF2B07DC0F23FB1808221A7002E0C046EA
S21400132000E0C0460F23FB181B781800BD4604B02B
S21400133080BD80B582B000AF78600A00FB1C1A70D2
S2140013407B68180003F026FEFB1C1B78002B07D0DA
S214001350FB1C1B78032B03D0FB1C1B78062B03D12E
S2140013607B6800221A8012E0FB1C1B78012B07D03A
S214001370FB1C1B78042B03D0FB1C1B78072B03D10C
S2140013807B6850221A8002E07B68A0221A80FB1C31
S2140013901B78002B07D0FB1C1B78012B03D0FB1CF3
S2140013A01B78022B03D17B6850225A8012E0FB1C6C
S2140013B01B78032B07D0FB1C1B78042B03D0FB1CCD
S2140013C01B78052B03D17B68A0225A8002E07B683D
S2140013D0F0225A80C0467868BD4602B080BD80B50F
S2140013E082B000AF786008001100FB1C021C1A7067
S2140013F0BB1C0A1C1A707A68FB1C1B7819001000AC
S214001400FFF797FFBB1C1B78012B07D0BB1C1B7874
S214001410042B03D0BB1C1B78072B09D17B6800224A
S2140014209B5E9BB201339BB21AB27B681A801EE0A9
S214001430BB1C1B78022B07D0BB1C1B78052B03D0CC
S214001440BB1C1B78082B09D17B6800229B5E9BB2D5
S2140014501B339BB21AB27B681A8008E07B680022B6
S2140014609B5E9BB235339BB21AB27B681A80BB1C5C
S2140014701B78012B07D0BB1C1B78022B03D0BB1C90
S2140014801B78032B09D17B6802229B5E9BB201333B
S2140014909BB21AB27B685A801EE0BB1C1B78042BDA
S2140014A007D0BB1C1B78052B03D0BB1C1B78062B58
S2140014B009D17B6802229B5E9BB21B339BB21AB299
S2140014C07B685A8008E07B6802229B5E9BB23533BD
S2140014D09BB21AB27B685A80C0467868BD4602B096
S2140014E080BD80B58AB000AF0200FB1D1A70BB1D20
S2140014F00A1C1A701023F818BB1D1A78FB1D1B78DF
S2140015001900FFF76CFFFB1D1B780122134004D067
S2140015102723FB1862221A7003E02723FB18772282
S2140015201A700823FB18180008231A0000210FF071
S214001530F3FA0823FB1863225A700823FB182E229E
S214001540DA700823FB1862221A710823FB186D2232
S2140015505A710823FB1870229A710823FB18272259
S214001560BA1812781A70BB1D19781823FB180A22AD
S214001570180003F095FC1823FB180021180003F050
S214001580FBFC03001A000823FB189A701823FB18AC
S214001590180003F0E9FC1023FB180021595E102305
S2140015A0FB1802229A5E0823FB181800FFF7ECF9D6
S2140015B0C046BD460AB080BD90B587B002AF786021
S2140015C00C0010001900FB1C221C1A70BB1C021C0D
S2140015D01A707B1C0A1C1A700F23FB1800221A7044
S2140015E00F23FB181B78082B00DD90E0FB1C1A78F5
S2140015F013009B009B185B009B187A68D2180F2379
S214001600FB181B780233D35C002B00D177E00F2346
S214001610FB181B789A1CBB1C1B789A4200D16EE004
S2140016200E23FB1800221A700E23FB181B78082BBB
S21400163065DC0E23FB181A7813009B009B185B00D2
S2140016409B187A68D2180F23FB181B780233D35CDA
S214001650002B4CD00E23FA18FB1C12781B789A42EB
S21400166045D00E23FA187B1C12781B789A4206D1B6
S214001670BB1C1B78013BDAB23B6A1A7047E00F23AB
S214001680FB181B780233DAB27B1C1C780E23FB187F
S214001690197878683B6A00932300FFF78DFF3B6A52
S2140016A01B78FF2B23D00D23FB1800221A700D2366
S2140016B0FB181B78082B1ADC0D23FB181B783A6ADC
S2140016C0D3181B78FF2B0AD10D23FB181B783A6A18
S2140016D0D318BA1C1278013AD2B21A7017E00D234A
S2140016E0FB181A780D23FB1801321A70DFE70E2359
S2140016F0FB181A780E23FB1801321A7094E70F2392
S214001700FB181A780F23FB1801321A7068E7BD46DB
S21400171005B090BD80B584B000AF78600F23FB188D
S21400172000221A700E23FB1800221A700E23FB18D4
S2140017301B78082B1BDC0E23FB181A7813009B0063
S2140017409B185B009B187A68D3181B78002B06D072
S2140017500F23FB181A780F23FB1801321A700E237A
S214001760FB181A780E23FB1801321A70DEE70F23D7
S214001770FB181B781800BD4604B080BD90B58DB030
S21400178002AF78600C0010001900FB1C221C1A70B7
S214001790BB1C021C1A707B1C0A1C1A70FB1C1B78D4
S2140017A00122134004D02723FB1862221A7003E09C
S2140017B02723FB1877221A70BB1C1B7801221340C4
S2140017C004D02623FB1802221A7003E02623FB18F7
S2140017D001221A701023FB18180007231A00002194
S2140017E00FF09AF91023FB1862225A701023FB1888
S2140017F02E22DA701023FB1862221A711023FB18AF
S2140018006D225A711023FB1870229A711023FB1850
S2140018102722BA1812781A70BB1C1B78591E182378
S214001820FB180A22180003F06DFB1823FB18002192
S214001830180003F0A1FB03001A001023FB189A708F
S2140018401823FB18180003F08FFB0823FA18FB1C5C
S2140018501B7819001000FFF76CFD0823FB18002109
S214001860595E0823FB1802229A5E1023FB18180004
S214001870FFF78AF8FB1C1A7813009B009B185B0086
S2140018809B187A68D3182622BA1812781A70FB1C8E
S2140018901A7813009B009B185B009B187A68D31875
S2140018A0BA1C12785A702523FB1800221A702523BA
S2140018B0FB181B78082B6ADCFB1C1A7813009B00AD
S2140018C09B185B009B187A68D2182523FB181B7898
S2140018D00233D35C002B52D02523FB181B789A1CAE
S2140018E0BB1C1B789A424AD02423FB1800221A708D
S2140018F02423FB181B78082B41DC2423FB181A78BA
S21400190013009B009B185B009B187A68D21825234F
S214001910FB181B780233D35C002B28D02423FA183C
S214001920FB1C12781B789A4221D02423FA187B1CC1
S21400193012781B789A421AD02523FB181B789A1C1B
S2140019403823FB181B789A4211D02523FB181B78E6
S2140019500233DAB27B1C1C782423FB1819787868CB
S2140019603823FB181B7800932300FFF707FF242378
S214001970FB181A782423FB1801321A70B8E72523BF
S214001980FB181A782523FB1801321A708FE7C04619
S214001990BD460BB090BD000090B587B000AF786034
S2140019A00823FB18180006231A0000210FF0B4F8CD
S2140019B01723FB1800221A701623FB1800221A7031
S2140019C01523FB1800221A701523FB181B78072B0B
S2140019D000DDDBE01523FB181A78924913005B0044
S2140019E09B185B5C1A0013009B009B185B009B18FF
S2140019F07A68D31819781523FB181A7889481300C3
S214001A005B009B18C31801331B781A0013009B0059
S214001A109B185B009B187A68D3181B78994200D0F5
S214001A20ACE01523FB181A787E4913005B009B1860
S214001A305B5C1A0013009B009B185B009B187A687F
S214001A40D31819781523FB181A78764813005B000C
S214001A509B18C31802331B781A0013009B009B18B0
S214001A605B009B187A68D3181B78994200D085E0F3
S214001A701523FB181A786B4913005B009B185B5CF8
S214001A801A0013009B009B185B009B187A68D318FB
S214001A901B78002B72D01723FB1819781523FB1818
S214001AA01A78604813005B009B181B5C1A00130032
S214001AB09B009B185B009B187A68D318187808233D
S214001AC0FB184A00011CD1541423FB1800221A707C
S214001AD01323FB1800221A701323FB181B78022B03
S214001AE039DC1423FB1819781523FB181A781323EE
S214001AF0FB1818784B4C13005B009B18E3181B5C14
S214001B001A0013009B009B185B009B187A68D3187A
S214001B105B78994217DA1523FB181A781323FB18FB
S214001B201978404813005B009B18C3185B5C1A00CA
S214001B3013009B009B185B009B187A68D21814232E
S214001B40FB1852781A701323FB181A781323FB1805
S214001B5001321A70C0E71723FB181B780822BA1840
S214001B605B00D31801331422BA1812781A701723A0
S214001B70FB181A781723FB1801321A701523FB1866
S214001B801A781523FB1801321A701DE71223FB186A
S214001B90FF221A701123FB1800221A701123FB185B
S214001BA01B78022B37DC1123FB181B780822BA1887
S214001BB05B00D31801331B781A001223FB181B781E
S214001BC09A4220DA1123FB181B780822BA185B0009
S214001BD0D31801331B78002B15D01123FB18197866
S214001BE01623FB180822BA1849008A5C1A701123BB
S214001BF0FB181A781223FB180821791852008A1845
S214001C00013212781A701123FB181A781123FB1868
S214001C1001321A70C2E71623FB181B781800BD465F
S214001C2007B090BD0400002090B58DB000AF040052
S214001C30080011000F23FB18221C1A700E23FB1835
S214001C40021C1A700D23FB180A1C1A702023FB189E
S214001C50180009231A0000210EF05EFF2F23FB1840
S214001C6000221A702E23FB1800221A702C23FB1851
S214001C70FF221A701823FB18180003F08BF9502265
S214001C8000216420FEF7EEFA2E23FB181B78082BA3
S214001C9000DDD4E06D4B180003F0ECF903005A4267
S214001CA05341DBB2002B2ED11023FB181800FFF790
S214001CB0B7F92C23FC181023FB1818685968FFF78F
S214001CC0B1FA030023701823FC183A002C23FB18E3
S214001CD01B7819001000FFF72CFB3B0020001900B2
S214001CE006231A000EF00FFF2C23FB181B78FF2B81
S214001CF0D0D02C23FB181B782022BA18D35C002BDC
S214001D0000D099E001E0C046C4E72C23FB181B78FE
S214001D102022BA180D2179180978D1540D23FB1802
S214001D2019781823FA182C23FB1818780B0011685A
S214001D305268FFF7A7F92E23FB181A782E23FB18F4
S214001D4001321A700D23FB181B78022B04D10D23C9
S214001D50FB1801221A7003E00D23FB1802221A70EA
S214001D602D23FB1800221A702D23FB181B78072B37
S214001D705CDC2D23FB181A78354913005B009B1892
S214001D805B5C1A002023FB18995C2D23FB181A783D
S214001D902F4813005B009B18C31801331B781A00EA
S214001DA02023FB189B5C994238D12D23FB181A7808
S214001DB0274913005B009B185B5C1A002023FB1866
S214001DC0995C2D23FB181A78214813005B009B189A
S214001DD0C31802331B781A002023FB189B5C994219
S214001DE01CD12D23FB181A78194913005B009B1889
S214001DF05B5C1A002023FB189B5C002B0ED02D2367
S214001E00FB181A78124913005B009B185B5C1900DC
S214001E102F23FB182022BA18525C1A702D23FB18A9
S214001E201A782D23FB1801321A709DE72F23FB1812
S214001E301B78002B02D127E7C04625E7C0462F2394
S214001E40FB181B781800BD460DB090BDB4010020ED
S214001E5004000020B0B5B2B002AF0200FB1D1A703D
S214001E60BB1D0A1C1A70BF23FB1801221A70BE2362
S214001E70FB1801221A70B923FB1800221A7054238B
S214001E80FB18180063231A0000210EF045FE4C23B1
S214001E90FB18180003F07EF8502200216420FEF79D
S214001EA0E1F9BD23FB1800221A70BC23FB18FF22A1
S214001EB01A704823FB18D04A12881A80BE23FB18D3
S214001EC01B78092B00D075E05423FB181800FFF789
S214001ED021FC0300083B5A425341DBB2002B69D079
S214001EE0C64B180003F0C6F803005A425341DBB253
S214001EF0002B5BD13423FB181800FFF791F8BC23A6
S214001F00FC183423FB1818685968FFF78BF9030090
S214001F102370BC23FB181B78FF2B49D0BC23FB186F
S214001F201A785423F91813009B009B185B009B1823
S214001F305B5C002BD4D1BC23FB181A78BE23FB189D
S214001F401B78591C5423F81813009B009B185B0041
S214001F509B18C318BF22BA1812785A54BE23FB180F
S214001F601A78BC23FB181B7811001800FFF7B9FA83
S214001F70BE23FB181B780133DCB2BE23FB181B788C
S214001F800133DBB2BC22BA181578BC22BA18117815
S214001F905422B81800932B002200FFF7EFFB5423BF
S214001FA0FB181800FFF7F8FC03000FE2C04697E79F
S214001FB0C04695E7BD23FB181B78012B00DD7AE0B1
S214001FC08E4B180003F056F803005A425341DBB21A
S214001FD0002B21D12C23FB181800FFF721F8BC2377
S214001FE0FC182C23FB1818685968FFF71BF9030028
S214001FF02370BC23FB181B78FF2BE1D0BC23FB18F7
S2140020001A785423F91813009B009B185B009B1842
S2140020105B5C002B4BD101E0C046D1E7BC23FB182C
S2140020201A78BE23FB181B78591C5423F818130083
S2140020309B009B185B009B18C3185B5C002B38D179
S214002040BC23FB181A78BE23FB181B78591C542394
S214002050F81813009B009B185B009B18C318BF2240
S214002060BA1812785A544823FB181B78FF2B06D14F
S2140020704823FB18BC22BA1812781A7005E04823C9
S214002080FB18BC22BA1812785A70BE23FB181A78AE
S214002090BC23FB181B7811001800FFF722FABD239B
S2140020A0FB181A78BD23FB1801321A7082E7C04667
S2140020B080E7C0467EE73C23FB18514A03CA03C3A9
S2140020C012781A70BE23FB181B780133DAB2BC23D1
S2140020D0FB181C78BC23FB1819785423F8183C23EB
S2140020E0FB1800932300FFF767FA3C23FB181B78C6
S2140020F0FF2B00D131E1BB23FB1800221A70BB2353
S214002100FB181B78082B00DD7EE0BB23FB181A7833
S214002110BE23FB181B78591C5423F81813009B0089
S2140021209B185B009B18C3185B5C002B5CD01423C9
S214002130F818BE23FB181A78BB23FB181B78190067
S214002140FFF74DF91423FB1800229B5E9BB2023367
S2140021509BB219B21423FB1802229B5E9BB21A3361
S2140021609BB21CB21423FB1800229B5E9BB2183352
S2140021709BB21DB21423FB1802229B5E9BB21A333D
S2140021809BB21BB21F48F8221202019200932B004A
S21400219022000DF0D5F91423FB1800229B5E9BB29B
S2140021A002339BB219B21423FB1802229B5E9BB229
S2140021B019339BB21CB21423FB1800229B5E9BB201
S2140021C018339BB21DB21423FB1802229B5E9BB2EF
S2140021D019339BB21BB20B48F822120201920093ED
S2140021E02B0022000DF0ACF9BB23FB181A78BB239A
S2140021F0FB1801321A7082E7A80D0100B401002016
S214002200AC0D0100500100204823FB181A78242347
S214002210FB1811001800FFF78CF84823FB185A78B3
S2140022201C23FB1811001800FFF783F8C82000F0E5
S21400223021FDBA23FB18FF221A70664B180002F025
S21400224019FF03005A425341DBB2002B00D082E054
S2140022500C23FB181800FEF7E3FE0C23FB180022E5
S2140022609A5E2423FB1800215B5E9A4228DD0C232D
S214002270FB1800229B5E1A002423FB1800215B5EDD
S21400228050339A421CDA0C23FB1802229A5E24234F
S214002290FB1802215B5E9A4212DD0C23FB18022219
S2140022A09B5E1A002423FB1802215B5E50339A4281
S2140022B006DABA23FB184822BA1812781A7032E0E7
S2140022C00C23FB1800229A5E1C23FB1800215B5E81
S2140022D09A42B2DD0C23FB1800229B5E1A001C23D8
S2140022E0FB1800215B5E50339A42A6DA0C23FB18DB
S2140022F002229A5E1C23FB1802215B5E9A429CDD3A
S2140023000C23FB1802229B5E1A001C23FB180221DA
S2140023105B5E50339A4290DABA23FB184822BA180A
S21400232052781A70C046BE23FB181B780133DCB205
S214002330BE23FB181B780133DBB2BA22BA18157815
S214002340BA22BA1811785422B81800932B0022002B
S214002350FFF714FA01E0C0466FE7B923FC185423D0
S214002360FB181800FFF718FB03002370B923FB18AF
S2140023701B78002B24D15423FB181800FFF7CAF94A
S2140023800300093B5A425341DBB2002B1AD1BE234D
S214002390FB181A78BE23FB1801321A70BF23FB18ED
S2140023A01B78012B04D1BF23FB1802221A7003E00E
S2140023B0BF23FB1801221A70C82000F05BFC70E5F2
S2140023C0C04600E0C046B923FB181B781800BD467F
S2140023D030B0B0BDB401002090B589B000AF7860D1
S2140023E01F23FB1802221A701E23FB1800221A70E5
S2140023F01D23FB1800221A701C23FB1800221A70DB
S2140024001D23FB181A781E23FB181B7811001800D2
S214002410FEF7C8FE1C23FB181A787B689A4200DB7E
S214002420F4E01A23FC181F23FB181A781D23FB1848
S21400243019781E23FB181B781800FFF7F5FB03001E
S21400244023701F23FB181B78022B04D11F23FB18B5
S21400245001221A7003E01F23FB1802221A701A23A7
S214002460FB181B78012B17D0022B02D0002B26D08E
S2140024702AE01B23FB1865221A701D23FB181A7806
S2140024801D23FB1801321A701C23FB181A781C2314
S214002490FB1801321A7017E01B23FB1867221A700C
S2140024A01E23FB181A781E23FB1801321A701C23F1
S2140024B0FB181A781C23FB1801321A7004E01B2341
S2140024C0FB1866221A70C0461D23FB181A781E23B6
S2140024D0FB181B7811001800FEF724FE7B68002B03
S2140024E000DA01335B10DAB21923FB1801321A70D6
S2140024F01E23FB181A781923FB181B789A421CDA3D
S2140025001D23FB181A781923FB181B789A4214DA35
S2140025101B23FB181B786E2200211800FDF7A2FE75
S2140025203C4B180002F0A6FD03005A1E9341DBB296
S214002530002B00D1F4E7C04667E01D23FB181A788D
S2140025401E23FB181B789A422FDD002200216D20E7
S214002550FDF788FE2F4B180002F08CFD03005A1E74
S2140025609341DBB2002BF5D01023FB181800FEF7C2
S21400257057FD1023FB1800229B5E162BEADD102366
S214002580FB1800229B5ED72BE4DC1023FB180222EC
S2140025909B5EB92BDEDD1023FB1802229A5E842395
S2140025A05B009A42D6DCC04630E0002200216E2056
S2140025B0FDF758FE174B180002F05CFD03005A1E8C
S2140025C09341DBB2002BF5D00823FB181800FEF76A
S2140025D027FD0823FB1800229B5E162B13DD08231D
S2140025E0FB1800229B5ED72B0DDC0823FB1802226B
S2140025F09B5EB92B07DD0823FB1802229A5E842314
S2140026005B009A4202DDC046D4E703E7C046BD46FB
S21400261009B090BDB401002090B589B000AF7860D5
S2140026201F23FB1800221A701E23FB1800221A70A4
S2140026301D23FB1800221A701E23FB181A781F236E
S214002640FB181B7811001800FEF7ACFD1D23FB18C5
S2140026501A787B689A4200DBE4E01B23FC181E23F2
S214002660FB181A781F23FB181B7811001800FFF7B9
S214002670F1FB030023701B23FB181B78012B04D0EF
S214002680022B15D0002B26D02AE01C23FB1865222F
S2140026901A701E23FB181A781E23FB1801321A70B4
S2140026A01D23FB181A781D23FB1801321A7017E039
S2140026B01C23FB1867221A701F23FB181A781F2387
S2140026C0FB1801321A701D23FB181A781D23FB18FD
S2140026D001321A7004E01C23FB1866221A70C046EA
S2140026E01E23FB181A781F23FB181B7811001800EE
S2140026F0FEF718FD7B68002B00DA01335B10DAB2B8
S2140027001A23FB1801321A701F23FB181A781A2393
S214002710FB181B789A421CDA1E23FB181A781A2319
S214002720FB181B789A4214DA1C23FB181B786E22BF
S21400273000211800FDF796FD3C4B180002F09AFCAD
S21400274003005A1E9341DBB2002B00D1F4E7C046CB
S21400275067E01E23FB181A781F23FB181B789A4283
S2140027602FDD002200216D20FDF77CFD2F4B180089
S21400277002F080FC03005A1E9341DBB2002BF5D01A
S2140027801423FB181800FEF74BFC1423FB1800223A
S2140027909B5E162BEADD1423FB1800229B5ED72BCC
S2140027A0E4DC1423FB1802229B5EB92BDEDD142327
S2140027B0FB1802229A5E84235B009A42D6DCC0464F
S2140027C030E0002200216E20FDF74CFD174B18006C
S2140027D002F050FC03005A1E9341DBB2002BF5D0EA
S2140027E00C23FB181800FEF71BFC0C23FB1800221A
S2140027F09B5E162BEADD0C23FB1800229B5ED72B74
S214002800E4DC0C23FB1802229B5EB92BDEDD0C23D6
S214002810FB1802229A5E84235B009A42D6DCC046EE
S21400282000E013E7C046BD4609B090BDB4010020E5
S21400283080B500AF96239A01134B1100180000F0E4
S2140028406DFC124B0021180003F016F9104B802186
S214002850180002F02DFC03001A0001235340DBB2DF
S214002860002B00D0FEE70B4B042118000AF08EF870
S21400287003001A0001235340DBB2002B00D0FEE712
S214002880C046BD4680BDC046580C00205001002002
S214002890B40100208C07002080B592B000AF47231B
S2140028A0FB1801221A70002200216C20FDF7DAFCCA
S2140028B01823FB18180007231A0000210EF02CF925
S2140028C01823FB1873221A701823FB182E229A70EE
S2140028D01823FB186222DA701823FB186D221A716F
S2140028E01823FB1870225A714723FB1819782023E7
S2140028F0FB180A22180002F0D3FA2023FB18002146
S214002900180002F039FB03001A001823FB185A704F
S2140029102023FB18180002F027FB1823FB1873224D
S214002920AD211800FEF730F8924B180002F0A2FB1B
S21400293003005A1E9341DBB2002BF5D01023FB1880
S2140029401800FEF76DFB1023FB1800229B5E142B6D
S21400295018DD1023FB1800229B5EDB2B12DC1023F5
S214002960FB1802229B5EF02B0CDD1023FB180222C4
S2140029709A5E9D235B009A4204DC4623FB180122E4
S2140029801A70DBE01023FB1800229B5E142B16DD6A
S2140029901023FB1800229B5EDB2B10DC1023FB1899
S2140029A002229B5EAA2B0ADD1023FB1802229B5EE6
S2140029B0F02B04DC4623FB1800221A70BEE010231E
S2140029C0FB1800229B5E692B5BDD1023FB180022A0
S2140029D09B5EB42B55DC1023FB1802229B5E5A2B01
S2140029E04FDD1023FB1802229B5EAA2B49DC4723EF
S2140029F0FB181B78012B00D1A6E04723FB184722C3
S214002A00BA181278023A1A700823FB18180007231F
S214002A101A0000210EF080F80823FB1873221A70A3
S214002A200823FB182E229A700823FB186222DA70FD
S214002A300823FB186D221A710823FB1870225A719E
S214002A404723FB1819782C23FB180A22180002F0DB
S214002A5027FA2C23FB180021180002F08DFA030039
S214002A601A000823FB185A702C23FB18180002F0D3
S214002A707BFA0823FB187322AD211800FDF784FFAC
S214002A8062E01023FB1800229B5EB42B52DD10235D
S214002A90FB1800229B5EF02B4CDC1023FB18022256
S214002AA09B5E5A2B46DD1023FB1802229B5EAA2B48
S214002AB040DC4723FB181B78092B47D04723FB181D
S214002AC04722BA18127802321A703B001800072301
S214002AD01A0000210EF020F83B0073221A703B000B
S214002AE02E229A703B006222DA703B006D221A7129
S214002AF03B0070225A714723FB1819783823FB18BD
S214002B000A22180002F0CCF93823FB18002118001E
S214002B1002F032FA03001A003B005A703823FB1802
S214002B20180002F021FA3B007322AD211800FDF7D1
S214002B302BFF0BE0C82000F09DF8F5E64623FB18B7
S214002B401B78002B04D10AE0C046EDE6C046EBE653
S214002B504723FB181B781800FFF75EFD05E04723A8
S214002B60FB181B781800FFF737FCC046BD4612B0AE
S214002B7080BDC046B401002080B582B000AF78604A
S214002B8039607B68012B0ED13B68094A93420AD113
S214002B9001235B42074809220A2102F077FE064B12
S214002BA0180002F0F3F9C046BD4602B080BDC0462C
S214002BB0FFFF000050010020B401002080B500AFE8
S214002BC0034B19000120FFF7D7FFBD4680BDC04666
S214002BD0FFFF000003BEFEE7034B10B51B68002B8B
S214002BE000D0984710BDC046C401002070B5124BF7
S214002BF0124C9C421BD0124DA54218D09C420AD2C1
S214002C00E243D218920801329200290020000DF00B
S214002C107AFFA5420BD00B480B4B984207D2C24313
S214002C20D21892080132920000210DF075FF00F0D4
S214002C30A9F800F03DF8FEE734010020000000206F
S214002C40FC19010034010020200E002010B500F011
S214002C502BF8002801D100F01BF810BD014B1860BE
S214002C607047C046C4010020014B18687047C04634
S214002C70C801002070B5041E07D0044D2E6800F071
S214002C8011F82B689B1B9C42F9D870BDC801002028
S214002C9010B5034A13680133136000F039F810BD0D
S214002CA0C80100207047C046002070477047C046E5
S214002CB010B501F04BFF0DF0DFFEFFF7F7FF012028
S214002CC0FFF7D8FF094C200001F008F8200001F0BB
S214002CD0B9F8FFF7ADFD064C002C02D1FFF7DCFD7E
S214002CE0FCE7FFF7D9FD00E000BFF5E7CC010020C8
S214002CF000000000014B18607047C0461C00002012
S214002D000122024B52421A607047C0461C00002047
S214002D10154A1368591C03D0013B1360002B00D0E2
S214002D20704772B6114B124A0433934213D90121ED
S214002D30104A107D0142FCD02021108BFF319B08E9
S214002D405B0001431183D3610B4B13800123094AB7
S214002D50117D0B42FCD0BFF34F8F084A084BDA6058
S214002D60BFF34F8FC046FDE71C00002000000000A8
S214002D70030200000040004102A5FFFF0400FA0520
S214002D8000ED00E01E214F4A53688B431C390B436D
S214002D9053604D4A063193690B43022193614B4AB7
S214002DA04B4B9382938A0B4302219382D36819423A
S214002DB0FCD00123474A0121137003E053785BB22D
S214002DC0002B02DA13781942F8D10123414A9360A6
S214002DD053785BB2002BFBDB3F4B53603D4A537886
S214002DE05BB2002BFBDB8223DB015380394A53782E
S214002DF05BB2002BFBDB02231021344A9384D3689A
S214002E001942FCD01021354BD362304AD3681942A0
S214002E10FCD0918C324B0B43102193842B4AD36801
S214002E201942FCD002214020938C0B439384274AFE
S214002E307E31D3681942FCD0D3681842F9D01022EC
S214002E402249CB681A42FCD00023224A936053786A
S214002E505BB2002BFBDB234B53601E4A53785BB2FE
S214002E60002BFBDB194B2048196A014080201962B1
S214002E70196A81431962032393601C4B5360154AF9
S214002E8053785BB2002BFBDB00220F4B1A725A7290
S214002E909A72DA72164B174A1A60FF22164B196896
S214002EA0164B18688B0649010A408021C00E5B0F3E
S214002EB002431B021343124A1385024A53680B430C
S214002EC05360704700400041000400400008004086
S214002ED00C060000000C004001050100B905FF7D4E
S214002EE0040A000000070300FFFCFFFF03060100C2
S214002EF048000020006CDC02246080002060800017
S214002F000040004201207047436D806D181A00D5BE
S214002F1040307047826D436D9A4203D0836DC0186F
S214002F20007D704701204042FBE7C046816D426D40
S214002F300300914220D0826D996D8218107D3F2249
S214002F4001310A409A65A8229A5CFF2A0ED0596D74
S214002F509A6D91420BDA9A6D596D521A013A0A2A05
S214002F6004DDB022B4219A585B5813607047596D3F
S214002F709A6D521A3F32F2E701204042E3E7C0461C
S214002F807047C046F0B5C646A4230F00082100B51A
S214002F900400C05C424E43001B18DB00F318595671
S214002FA082B0150001F010FFA5230821E05C430065
S214002FB01B18DB00F318595601F006FFA723E35C45
S214002FC0022B5BD0A823E05C9846FF2819D001218D
S214002FD001F07CFE4346E35C32495A00D218D20028
S214002FE0B356B618DB015818AC2160502E490122A2
S214002FF08C46B0216344635071688A40B4216250A5
S2140030001A603B000122206901210DF0D1F9F0235E
S21400301080221B0120692B40920093423DD0013252
S214003020FF32934237D080220021520093421ED0B6
S2140030300F232B40012B1FD0023B5A1E9341013316
S214003040F0221540303D6E426E41012200960CF093
S214003050B9FFA623E25C0133E15C20690CF0CEFFE9
S21400306020690CF0E9FF02B004BC9046F0BD0F23C7
S21400307005212B40012BDFD10023E1E7B633E05CCE
S214003080FF289FD0082143001B18DB00F318595671
S21400309001F09AFE96E70721CAE70621C8E7C04670
S2140030A09C0F0100184400411444004110B5040070
S2140030B000690CF0B5FF00239C226365A365A3504E
S2140030C00432A35010BDC04610B5A0219C2401E0D8
S2140030D0002B06D0035942589B1AF9D54033002BD3
S2140030E0F8D100690CF0B2FF10BDC04610B5040060
S2140030F00CF04EFF200010BD9C22A02310B5845873
S214003100C1588C4204DAC3588058181A013810BDCA
S2140031108258C058801A3F30F9E7C046F0B50368B9
S214003120334A9B6A83B004000E0093425CD1A4230A
S2140031300821C05C2F4D43001B18DB00EB185956C6
S21400314001F042FEA5230821E05C43001B18DB00CB
S214003150EB18595601F038FEA723E35C022B36D055
S214003160A827E05DFF2818D0012101F0AFFDE35D40
S21400317021495A00D218D200AB56AD18DB015818B8
S214003180AC2160501D4901228C46B0216344635037
S21400319069688A40B42162501A6033000122012116
S2140031A020690DF005F90023012200930021023367
S2140031B020690CF007FFA623E25C01332069E15C7E
S2140031C00CF01CFF20690CF037FF03B0F0BDB633DF
S2140031D0E05CFF28C4D0082143001B18DB00EB1876
S2140031E0595601F0F1FDBBE7054A9847EDE7C046A2
S2140031F0852F00009C0F0100184400411444004134
S21400320013040000F0B5D6464F464646C0B598466D
S21400321008AB1F7809AB1E78FA23002504009B0034
S2140032208360174B8A460833914645600360402208
S214003230002114300DF070FC200065654022A56565
S21400324000215C300DF068FC9C23E5500433E5500B
S21400325053464A462361A423E25442460133E254CD
S214003260A8220133E7540133E6545833A3541032EE
S2140032702000A3541CBC90469946A246F0BDC0460A
S214003280B80D010010B5040000690CF0EBFE002834
S21400329029D120690CF0F8FE002818D09C23A02223
S2140032A0E358A2589B1A44D43FD0A0239C22E1584E
S2140032B0A258914246D05C21E258E058A218515CD0
S2140032C03F2201300240E25020690CF0E7FE206900
S2140032D00CF0CEFE002805D020690CF0CDFE20694B
S2140032E00CF0BCFE10BD20690CF0D4FE3F23626DCE
S2140032F001321340A26D934203D0626DA21810757E
S2140033006365A823E35CFF2BC3D0626DA36D9A426E
S21400331013DB626DA36D9B1A3F33092BB9DCAC231C
S214003320B422E358A2581A60B3E720690CF0C2FE34
S214003330CDE74033002BB8D1F7E7A36D626D9B1A3B
S214003340013BEAE7FF21BFE7F0B5C646040000B53B
S214003350006988460CF098FE002806D09C23A02220
S214003360E358A2589B1A4BD445D09C26A0273F254D
S214003370A359E25901332B4093421FD1EFF3108338
S214003380DB070DD4204B5B68DB05DB0DF0D0103B74
S2140033905BB2002B25DB9B08C0331C4A9B009B5866
S2140033A020690CF071FE0028E2D02000FFF76AFFCB
S2140033B0A359E25901332B409342DFD0A35901337E
S2140033C01D40E3599D4205D05C224146A359E318AF
S2140033D09954A55120690CF069FE012004BC904662
S2140033E0F0BD0F2213400A4A083B94469B089B00F8
S2140033F063441B68D4E7206941460CF04FFEECE7B7
S2140034004033002BF7D0B0E700ED00E000E100E02D
S2140034101CED00E0F0B5D6464F4646460300006970
S214003420C0B5002837D1EFF3108072B624241C5D97
S214003430002C00D195E0002802D162B6BFF36F8F52
S214003440DC69002A49D0186A844246D20020651CEE
S214003450DD619D69AC46644424780C540130DC6917
S21400346082423BD01D6AAC42F1D31A6AA24238D1DE
S21400347000220121DA611961EFF3108572B623315B
S2140034805A5411315C5C002C40D1002D29D162B613
S214003490BFF36F8F25E0EFF3108072B634241C5D07
S2140034A0002C5AD0002802D162B6BFF36F8FDC6AB8
S2140034B0002A1BD0186BA04218D90020651CDD62BC
S2140034C09D6AAC46644424780C540130DC6A82421F
S2140034D00DD01D6BAC42F1D309E000201A6AA2425F
S2140034E0C6D01CBC90469946A246F0BD00201A6B7A
S2140034F0A242F6D10022DA621A61EFF3108572B6A4
S21400350034215A5401315C5C002CBED00126B046F2
S2140035105A545A684646116894461A7A9246570193
S214003520CC190934FF346278324362705246DE6842
S2140035303B00083252018A18402163449C680C4FB5
S214003540B60436093C4034439C609C68A40BA40334
S2140035509C6013790B43137197E7002897D00020DF
S214003560BFE70028FBD162B6BFF36F8F0020B8E735
S214003570FF3F00F00369002B10D1EFF3108272B604
S2140035802433C35CDBB2002A02D162B6BFF36F8F6E
S214003590002B14D0036AC069181A0FE0EFF31082EC
S2140035A072B63423C35CDBB2002A02D162B6BFF324
S2140035B06F8F002B03D0036BC06A181A7047002069
S2140035C0FCE7C046017AF0B50E0044680836256868
S2140035D07201AA18D379FF27DB0745D50123D371DB
S2140035E09C46436949016218002B3ED193689B04B0
S2140035F09B0C0362036A002B1CD063464361836AFC
S2140036005360EFF3108272B624236146C154103320
S214003610C35CDBB2002B3ED135214354002A02D1D5
S21400362062B6BFF36F8F8168446839400E00256824
S2140036300836490101276B180933FF335A78641896
S2140036403A435A70C068A2688104174809090240C4
S2140036500A434021A260A2687301920B9203A26003
S214003660EB181A790A431A71F0BD93689B049B0CF9
S2140036700363036B002BDDD0002343618369536033
S214003680EFF3108272B634236146C154103BC35C1C
S214003690DBB2002BC0D035236146C154002AE3D1EB
S2140036A062B6BFF36F8FDFE7FF3F00F0F8B547461F
S2140036B0CE4680B50C0000AF1500012A47DDD31DAD
S2140036C06A46DB08DB00D31A9D4608000DF006FBB1
S2140036D06E4603230130400030707370022D3ED0DA
S2140036E02378002B3BD0611CB370032D50D00323EE
S2140036F0002008E00A78002A0AD00233DBB2013143
S21400370032559D4225D05C1CE4B2F054A542F1DC53
S21400371025006B1E9D412200EDB21F4B1B78002B2F
S2140037200FD11E4B1B78002B1DD01D4B1D489946F4
S2140037301B883100984640440DF0E5F94B4644445A
S2140037401C80BD4628000CBC90469946F8BD002556
S214003750F7E72A006B1E9D411400EDB2DDE7012558
S21400376002220224D9E7002AEBD00F4B31009846FC
S21400377018000DF0C8F943460C4A0D495361936989
S2140037800B40936193699B0B9B031C439461D8E7A2
S214003790032401250322C0E7780500207C060020CC
S2140037A07E0600207C050020F80100208806002008
S2140037B0FF3F00F0F0B5DE4657464E46454601232D
S2140037C0E0B5002687B003AC444F200098468A46F2
S2140037D03B7026700CF0F0FE05000CF0AFFF2100E9
S2140037E00CF050FF09222378834600212000019325
S2140037F091460DF091F9022363709E33E3715A33BC
S21400380023726B464A461B79227023714246534602
S2140038105D440935627165803E70092B3CD0424696
S2140038202F4B304D1A709A462B0006CC06C32278D2
S2140038301A704A462C4B1A80984602ABDC1C2000B5
S214003840DE700CF0B9FE0CF079FF21000CF01AFFC8
S21400385053461E703B78002B16D143461C88002C1E
S21400386012D0224E2200290030000DF04CF9204ADA
S214003870204956619369A4040B4093619369A40C94
S2140038809B0B9B031C439461012007B03CBC9046F5
S2140038909946A246AB46F0BD114B1B78002B0AD0CA
S2140038A0114E1048358809224019210009350DF0BF
S2140038B02AF93580E8E70D4B1A0003CC03C22178BD
S2140038C011700B4A0B49536193690B405146936143
S2140038D093699B0B9B030B439361D5E77805002008
S2140038E07C0600207C0500207E060020F8010020D3
S2140038F088060020FF3F00F0F0B5CE7893B00700B2
S2140039000D00022E12D00CF019FF29000CF0D0FE8C
S214003910002807D1012E11D00024032E3ED020000F
S21400392013B0F0BDC417241AE40FF8E7C988D048CE
S214003930FFF740FF441EA041C4B2F0E7EB88112B0E
S21400394000DD89E112221225CA49DBB2002B01D024
S2140039501A001D00C84B1C78002CE0D1C74B1C7801
S214003960002C08D0C64FC7483E88801975190DF040
S214003970CAF83D80D3E7C44CAD0420000DF0C3F870
S214003980C24AC34954619369AD0C0B409361936975
S21400399001249B0B9B032B439361C0E7AB78002B62
S2140039A000D15DE1022B00D183E1012B00D187E13C
S2140039B00400032BB3D10F22B64B01AC1B681A4090
S2140039C0D0B201003031092A01DD373001001A0675
S2140039D0120FD0B2E17101003031092A01DD373013
S2140039E001001A05120FD0B2A17101003031092A68
S2140039F001DD373001001A04120FD0B261710100E8
S214003A003031092A01DD373001001A03120FD0B217
S214003A10217101003031092A01DD373001001A0218
S214003A20120FD0B2E17001003031092A01DD3730C3
S214003A3001001A01120FD0B2A17001001B0F303125
S214003A40092A01DD373001006170D9B20A00303230
S214003A50092B01DD37310A0022700F228E4B1B68BE
S214003A601A40D0B201003031092A01DD373001009A
S214003A701A06120FD0B2E17301003031092A01DDB7
S214003A80373001001A05120FD0B2A1730100303191
S214003A90092A01DD373001001A04120FD0B2617313
S214003AA001003031092A01DD373001001A03120FF8
S214003AB0D0B2217301003031092A01DD3730010010
S214003AC01A02120FD0B2E17201003031092A01DD6C
S214003AD0373001001A01120FD0B2A17201001B0F7D
S214003AE03031092A01DD373001006172D9B20A008F
S214003AF03032092B01DD37310A0022720F22674B64
S214003B001B681A40D0B201003031092A01DD373077
S214003B1001001A06120FD0B2E17501003031092AF1
S214003B2001DD373001001A05120FD0B2A175010071
S214003B303031092A01DD373001001A04120FD0B2E5
S214003B40617501003031092A01DD373001001A03A2
S214003B50120FD0B2217501003031092A01DD37304D
S214003B6001001A02120FD0B2E17401003031092AA6
S214003B7001DD373001001A01120FD0B2A174010026
S214003B801B0F3031092A01DD373001006174D9B2CC
S214003B900A003032092B01DD37310A0022740F2269
S214003BA03F4B1B681A40D0B201003731092A01DCAE
S214003BB0303001001A06120FD0B2E177010037311B
S214003BC0092A01DC303001001A05120FD0B2A177A5
S214003BD001003031092A01DD373001001A04120FC6
S214003BE0D0B2617701003031092A01DD373001009B
S214003BF01A03120FD0B2217701003031092A01DDF5
S214003C00373001001A02120FD0B2E17601003031CF
S214003C10092A01DD373001001A01120FD0B2A17651
S214003C2001001B0F3031092A01DD373001006176B3
S214003C30D9B20A003032092B01DD37310A0022766C
S214003C400CF07CFD09A90CF047FD2100AA7938008C
S214003C50FFF72CFD040062E612221225054979E6DC
S214003C60EB88032B20DD042204250E4972E6C046AD
S214003C70CC010020580E0100780500207C060020AC
S214003C807E0600207C050020F80100208806002023
S214003C90FF3F00F00CA0800040A0800044A0800001
S214003CA048A08000480E0100DBB204220425084923
S214003CB04CE6AA7907493800FFF7F8FC04002EE620
S214003CC0AA7905493800FFF7F1FC040027E6C0464C
S214003CD0480E0100380E01004C0E0100F8B5002415
S214003CE04C4B012105001F201C7000F0EFFF012146
S214003CF01F2001F03BF8484B01211E201C7000F0ED
S214003D00E5FF01211E2001F031F820210126434A5B
S214003D100620D3690B43D361414B38315A5C32439A
S214003D205A543C229C5C49398C439C549C5C04430A
S214003D309C545924185D30431855985C0140602007
S214003D409954995C01439954364A374B53805378BB
S214003D50DB09FCD13548FEF781FF354E01223000E5
S214003D6010C80021237813438022237052000CF0E1
S214003D70D3FEA378DB07FCD4043666621F26300029
S214003D8007272C4B1B689A0C590B1040DB0D8446FA
S214003D901F400E401F2E3AD01F20084061461F29A4
S214003DA033D01F261640072F00D10323218D224A29
S214003DB080011140014321851F21228D8A43324311
S214003DC022851839228D19401C4B090313400B43DA
S214003DD023857F232278C121134004222370237871
S214003DE0890013430C22237023899343144A2381AA
S214003DF053581B021B0A5350802313600222237859
S214003E001343237001232B70F8BD1D22C9E705213B
S214003E10C2E7C046ED010020EC010020000400408F
S214003E2000440041000C004006400000214B00000A
S214003E3088060020246080003FF8FFFFFF8FFFFF0A
S214003E4000E100E00078002810D00121084B1B6834
S214003E501A898A4308211A811A8B0A4304211A8375
S214003E601A8B0A431A830022024B1A607047C04618
S214003E708806002080060020F0B55746DE464E46EF
S214003E804546E0B56A4F83B07B68002B00D18CE0D6
S214003E90684D694A4035694E0124914609E0822BF7
S214003EA000D1A4E00134A300FB5840350436002BB3
S214003EB07BD0832B00D17FE0022BF0D1736898462D
S214003EC0002BEFD138200CF05FF880235B009B4678
S214003ED05B4A41460260584A242342605A46C26002
S214003EE042468460026202614261C261C154424637
S214003EF034238246C2620263C1540133C154584619
S214003F000CF0DEFD53468046986158460CF0D8FD0E
S214003F1053469862484B62019A1893684948403560
S214003F201840C0239B0503439360434B0436186830
S214003F300300200008304101C85C01938446072036
S214003F40834660465B46984303239B465B4618437E
S214003F50031C01988B460B5443468446536063010A
S214003F60634419000931FF314B7801349C46012324
S214003F709846604643461843334B4870180091688D
S214003F8008408021C903014391609168890B890329
S214003F9091604021019B5B441A790A431A7153468B
S214003FA03360A300FB58002B83D103B03CBC904683
S214003FB09946A246AB46F0BD102294461E486301C1
S214003FC0C3189C4462461F4992681140C02292055D
S214003FD00A4361468A6022000168702008325D61EB
S214003FE05201535C83434020034353545AE7630112
S214003FF04B449A6913491140C02292050A439A61BC
S2140040005D614B461968230008335B01C8180279C6
S214004010019194468022614652420A430271702002
S21400402001995A5C8243302002435A543AE7C0460C
S21400403020000020F801002088060020D001002083
S2140040402C0E0100FFFFFF8FFF3F00F0264B8A007B
S214004050D05810B50C0000282AD00368234A9B6865
S21400406093423ED10369002B11D1EFF3108272B652
S2140040702433C35CDBB2002A02D162B6BFF36F8F73
S214004080002B03D0036AC069181A1BD110BDEFF3CA
S214004090108272B63423C35CDBB2002A02D162B649
S2140040A0BFF36F8F002BF1D0036BC06A181A07E0BE
S2140040B0FF230F4A0B405B01D31898688004800CDE
S2140040C00028E3D0FF210A4B21401B680831490134
S2140040D0591880234A795B4213434B710223CB71F4
S2140040E0D4E79847ECE7C046D001002075350000BD
S2140040F088060020F0B54025AC46822465462E4E44
S21400410064003368185D28432C4D18557560B768F1
S2140041102B4838408027BF020743B7606746B06821
S214004120800B8003B060185D384318550234185D64
S2140041304006FCD50824FF34185DC007FCD5B068DF
S214004140C0B2904200D91000002A2DD000231E00D5
S2140041500C1DA5425E4134002E1DB1425B41234337
S21400416003240C402600744274411C421DD0082AC9
S2140041701BD900260027141FA408631C9C469B001E
S214004180AC5901378C510436BC45F9D89A420BD04D
S214004190EC5CCC545C1CA24206D92E5D02330E5554
S2140041A09A4201D9EA5CCA54F0BD0023EC5CCC54B8
S2140041B001339A42FAD1F7E788060020B8030020B8
S2140041C0FF3F00F01E4B8A00D05810B5002816D0CE
S2140041D003681C4A9B6893422BD10369002B17D1B6
S2140041E0EFF3108272B62433C35CDBB2002A02D12E
S2140041F062B6BFF36F8F002B1DD1002010BDFF23CA
S2140042001940114B4901591888688004800CF5E75D
S214004210EFF3108272B63423C35CDBB2002A02D1FD
S21400422062B6BFF36F8F002BE7D0036BC06A181A15
S214004230E4E79847E2E7036AC069181ADEE7C04673
S214004240D00100207535000088060020F0B5DE4657
S21400425057464E464546E0B58D4B83B01B680C006E
S214004260002B08D10120404203B03CBC9046994642
S214004270A246AB46F0BD874D2B78002B00D1B8E0A8
S21400428064232B70844BA200D358002B62D01A688C
S2140042905468824A944200D0EBE01A69002A00D0A3
S2140042A0ACE0EFF3108272B62421595C002900D1ED
S2140042B0E7E0002A02D162B6BFF36F8FDA69196AA7
S2140042C08A4200D3CFE09869511C84466846D9617B
S2140042D062441278073002701A6A0125914200D0B3
S2140042E085E000220121DA611961EFF3108472B6CD
S2140042F023315A541131585C002825D00126B04687
S2140043005A545A684646116894461A7A9246570195
S214004310C8190930FF304278324342705246DE6890
S2140043203B00083252018A184021634498685C4F6B
S214004330B60436093840304398609868800B80038E
S214004340986013790B431371002C4BD162B6BFF300
S2140043506F8F47E0FF2701202740524A7E019119C0
S2140043608B6880469B0403D18B689B049B0C984605
S21400437091198B6845469B049B0C3F2B69DD88682A
S214004380403B9B04800B9B0C800303438B6093197C
S2140043909B469B68136801229246994652464E44B5
S2140043A00936FF3633784049134333706B46A40111
S2140043B0D81D091942460CF0A6FB4346002B00D137
S2140043C050E75B469B689B040CD1402208377F0170
S2140043D04F443B7913433B7101235246FB7173787C
S2140043E013437370012D00D03CE76B46D81D007850
S2140043F03AE700211E2000F0B9FC41E7EFF31082F7
S21400440072B63421595C00293BD0002A02D162B62C
S214004410BFF36F8FDA6A196B8A421FD2986A511CF3
S21400442084466846D96262441278073002701A6B76
S21400443001258A42DBD10022DA621A61EFF310848A
S21400444072B634215A540131585C002800D17BE7FB
S21400445054E78B689B0B9B038B6098E7196B0025D2
S2140044609142E8D0FEE6196A00258A4200D138E774
S214004470F8E66A46D01D010001221800A047050094
S214004480B0E7002A00D0EDE662B6BFF36F8FE9E62C
S21400449080060020EC010020D0010020153400002A
S2140044A0FF3F00F088060020B8030020F0B5DE4687
S2140044B04E4645465746E0B59946414B85B01B6883
S2140044C00D009346002B09D101267642300005B038
S2140044D03CBC90469946A246AB46F0BD8023DB0125
S2140044E09945F1D8374C2378002B62D0642323708B
S2140044F04B46002B62D0FF233349AA012B408A1873
S214004500324C02921A005B019A46236800269846AF
S21400451008325201904443460196464607332C4FD4
S2140045200393B379DB0919D02A4B2B4918680CF092
S2140045301FF92A4B172158430CF01AF9F3799B07F9
S2140045400CD47B5D002B01D10138F7D201235444F3
S2140045507B55A3699B0B9B03A361B5E700237B55A3
S2140045604B46C8463F2B01D93F23984659464246FC
S21400457002980CF0C8FA53464146E218029B89049A
S21400458053619369890C9B0B9B030B439361022336
S214004590039AC34413707279823B13437371019B71
S2140045A04246434401934B469B1A9946B9D1019E15
S2140045B08CE700211F2000F0D9FB97E7002685E74F
S2140045C080060020ED010020F8010020880600206B
S2140045D0F00100204800002040420F00701101004A
S2140045E0134B70B51B781400002B0BD1114B1B78A6
S2140045F0002B09D0104E1148358840192D190CF0A3
S21400460082FA3580200070BD002AFBD00C4D2800B1
S2140046100CF079FA0B4A0C49556193690B4093618B
S2140046209369A1049B0B890C9B030B439361E9E7F9
S214004630780500207C0600207E0600207C050020F1
S214004640F801002088060020FF3F00F070B54B7888
S2140046500C000B2B00D98CE0524A9B00D3589F4687
S2140046608A78514B1A60514A93699B0B9B0393615E
S2140046700123180070BD0B784D49002B7BD04D4BA5
S2140046801B78013B5A4253410B700023474A4B703C
S2140046905161936948490B400221936193699B0BD2
S2140046A09B030B4393610123E3E78B78012B64D0D4
S2140046B00022404B1A70D6E78878012860D0002880
S2140046C004D101223B4B1A70CDE78878374B06247D
S2140046D09A691968920B92039A6108220223FF32A4
S2140046E08B54FF340D5D823B2B430B558B5C9B0735
S2140046F0FCD57F21314A0840937A8B43034393725B
S2140047008023917A5B420B4393720123B1E7FFF754
S214004710F3F80300ADE70023ABE7294B1A78244BE8
S21400472025491A70214A536193690B400121936110
S21400473093699B0B9B030B439361012399E70A78CC
S2140047400023D20695D1FFF797FB2A20A2780224F1
S2140047501B4BFF301A60154A1368195C2143195425
S2140047604A200124FF30195C214319547CE70E4B84
S214004770D4E701237DE70B7088E70D49114B7FE7EF
S2140047800022104B0C491870094B1A70074A5361E7
S21400479093690B40936193699B0B9B03184390614D
S2140047A0012366E7F40D0100840600208806002039
S2140047B0F8010020EE010020FF3F00F0005000410D
S2140047C080060020F7010020F0B55746DE464E462C
S2140047D04546E0B5C74F83B03B6804009A8B120786
S2140047E037D5C02080210726BA68C34D80052A40E9
S2140047F00243BA60C14A49007A605A5CB243012655
S21400480032435A54BA692A401043B8617020BC4AF1
S21400481040257A615A5C8243102002435A54BA6893
S214004820B8491140802252030A43BA60BA68920B14
S2140048309203BA600622FF32995C294399540A21F2
S214004840FF315A5C02435A540021AF4A11600822D5
S2140048509A839A8B52071AD504229A83AB4A137806
S214004860002B07D01378013BDBB213701378002BB4
S21400487000D122E1A64A1378002B07D01378013B1B
S214004880DBB213701378002B00D120E13B680822BE
S214004890FF32995CC90625D5102140209954F43181
S2140048A05A5C964D02435A5460222B781A4200D026
S2140048B0CFE029002000FFF7C9FE002800D0D4E092
S2140048C006232021934AFF33D1543B680822FF3247
S2140048D0995C490606D5402140209954C8315A5C57
S2140048E002435A541D8CFE231D4000D187E08A4B9C
S2140048F00024012698462B0023411E4200D185E065
S21400490023003A6808335B01D318D979C90702D463
S214004910DB799B076AD54146A3005858002800D18A
S214004920ACE003687D4A1B68934200D0B7E043685A
S214004930017A99461B689C46FF239A460B0008336B
S2140049405A0100936244D379DB074FD549018B4661
S214004950D6714369CB44002B5CD15B469A689204BF
S214004960920C0262026A002A1ED0826A46615A606F
S214004970EFF3108272B62423C6541033C35CDBB246
S214004980002B5ED135214354002A02D162B6BFF314
S2140049906F8F5146436899461B689C46836819404A
S2140049A00B0008330093490163465A180932FF3258
S2140049B0537801929A4601239B4653465A46134320
S2140049C0019A49445370C0688A684E4B80041A4066
S2140049D0000902438A608A68920B92038A6040212B
S2140049E0009B5B0163441A790A431A713300A340A3
S2140049F09D43082C03D00134002D00D07BE703B084
S214004A003CBC90469946A246AB46F0BD082CF6D074
S214004A10013470E75B469A689204920C0263026B5C
S214004A20002AC1D0002343615B4682695A60EFF3D7
S214004A30108272B63423C654103BC35CDBB2002B24
S214004A40A0D03523C654002AD0D162B6BFF36F8FEC
S214004A50CCE72B79002B24D128000BF0BBFD0028D7
S214004A6003D1BB699B0B9B03BB61062180223B687D
S214004A70FF31585C524202435A5427E7E3B2032CF4
S214004A802AD0012BB2D192214900505C813B0343CE
S214004A90535428232339FF39FF33D154A6E79847C8
S214004AA0A4E70BF04BFE29000BF034FE0028DCD107
S214004AB0BB699B0B9B03BB6102E701211F2000F033
S214004AC055F9134A1378002B00D0D7E6DEE601210D
S214004AD01E2000F04BF9D9E6B22180234900505C35
S214004AE05B420343535468236339FF39FF33D15481
S214004AF07CE7C04688060020FFFFFF8FB803002033
S214004B00F8010020FF3F00F080060020ED010020A5
S214004B10EC01002000500041D0010020C535000007
S214004B20044B10B51B78002B02D10348FFF74CFE50
S214004B3010BDC0467C060020CC010020014A024B76
S214004B401A6070470050004188060020FA21324B58
S214004B5010B5186889000BF00BFE304B01389842F0
S214004B6000D9FEE72E492F4A4860C020136A000687
S214004B701B021B0A0343136200238B6007330B6080
S214004B808021136A09061B021B0A0B43FC211362D1
S214004B90254B00241A6A0A431A62FC22196A9201FB
S214004BA00A431A62A022196AD2020A431A62200035
S214004BB00021013400F08AF8132CF8D11B4A5378F0
S214004BC05BB2002BFBDB1A4B53801A4B5A7ED20982
S214004BD0012AFBD0E422D2009A803F22DA70154BDD
S214004BE05A7ED209012AFBD0C02252011A61002245
S214004BF000209A7000F024F80C4A53785BB2002B21
S214004C00FBDB0D4B53800D4AD379DB09012BFBD020
S214004C104123537010BDC04648000020FFFFFF0030
S214004C2010E000E000ED00E000040040000C004052
S214004C301E400000004000422140000000480042A4
S214004C401F4A537EDB09012BFBD0052831D81D4BAC
S214004C5080001B589F461A4A1B4913690B400F21B8
S214004C60136153788B4302210B4353707047144BE8
S214004C7015491A690A400F211A615A788A435A70F0
S214004C80F4E70F4A104913690B400F21136153785C
S214004C908B4303210B435370E8E7094A0A4913691B
S214004CA00B400F21136153788B4301210B43537044
S214004CB0DCE7F023024A1B0511690B43CFE7C04629
S214004CC0004000426C0E0100FFFFFFF010B5082404
S214004CD043001818234AC00013181C57013415D077
S214004CE0012931D0002912D002291ED003290DD166
S214004CF082565968D3011C4A0620944663445A18C3
S214004D004032107001228A405A605A6110BD8256A5
S214004D105968D301144A0220944663445A18403214
S214004D20107001228A405A60F0E782565968D30113
S214004D300D4A0620944663445A18403210700122E9
S214004D408A405A609A61E1E782565868D301064A5B
S214004D5002249446814063441A18403214709960C5
S214004D60D4E7C0469C0F01000044004108224300DF
S214004D701818F0B5124DC0002B189A5601321CD0E8
S214004D80012426005F684357BE400E4ADB019A188E
S214004D90906830420BD10D00681E85412C400425DA
S214004DA0D21940321078A400A84304431470054A70
S214004DB094466344002901D09E61F0BD5E61FCE725
S214004DC09C0F01000044004170B5082442002B4DA2
S214004DD01318DB00EB181C57631C09D04B1CDBB206
S214004DE00C2B21D8264C9B00E3589F460124644296
S214004DF0200070BD1218D200AB185868C30720D424
S214004E00AB56204A0F259446DB01634444081C1920
S214004E10303422781B18AA431143C9B221700121ED
S214004E2040331A780A431A700024E1E709291AD099
S214004E300A291DD000240B29DAD10A39FFF746FFCC
S214004E40D6E7104BAA569C460F23D201624444086C
S214004E5014193034257809012B401943C9B21218A9
S214004E6021701300DBE70021FFF730FF0024BFE7C7
S214004E700839FFF72BFF0024BAE7C0469C0F010055
S214004E80840E01000044004110B51C00431A02982D
S214004E90511A001B58430BF0F5FC001910BDC04614
S214004EA030B50023040085B0080023606360A3606B
S214004EB001A90BF023F801A80BF010FF05002068ED
S214004EC0002802D063689D420BD9691C0BF0D4FE03
S214004ED000280DD0A36820606560002B01D1037008
S214004EE02068A56001A90BF0F1FE200005B030BDDA
S214004EF02068002801D00BF0EDFD00232360A3609E
S214004F006360F2E730B5002304008BB0080023602E
S214004F106360A36001A90AF097FF01A80BF0DEFE0C
S214004F2005002068002802D063689D420BD9691CE2
S214004F300BF0A2FE00280DD0A36820606560002B51
S214004F4001D103702068A56001A90BF0BFFE200008
S214004F500BB030BD2068002801D00BF0BBFD00234D
S214004F602360A3606360F2E710B5040000680BF0EE
S214004F70B1FD200010BDC04603009A680020914293
S214004F8003D21B68002B00D0585C704700230370C8
S214004F907047C0460023438003807047F0B5254D18
S214004FA085B038210700280009F020FF00212800DE
S214004FB009F0FEFD280009F027FF102238212800FE
S214004FC009F0BEFE6C4604AE280009F0C9FD20704C
S214004FD00134B442F8D16B469B785A1E012A00D998
S214004FE000233B706B466946DA780F2309791A402E
S214004FF012020A437A806A4618006946527989790D
S214005000104012117A8100026A460143F98069460F
S214005010527A897A1A4012020A43BA806A46694668
S214005020D27A097B13401B020B4312113B81BA81D3
S21400503005B0F0BD240A002070B50D00040008007D
S2140050401600FFF7ABFF2B78002B01D0012E05DDF5
S214005050002323806380A380200070BD7600AD19F6
S2140050600223EA5E06216B5E228063800123A38012
S214005070F2E7C04610B50D4C3821200009F0B6FE08
S2140050800221200009F094FD200009F0BDFE012257
S2140050903821200009F054FE200009F061FDC3B25B
S2140050A0022B00DD0020C0B210BDC046240A00203E
S2140050B070B50D00234C200009F020FE382120009A
S2140050C009F094FE8021200009F072FD29002000DE
S2140050D009F06EFD200009F097FE3821200009F047
S2140050E085FEA821200009F063FD200009F08CFE53
S2140050F001223821200009F023FE200009F030FDAF
S214005100C0B2112801D0002070BD3821200009F05F
S2140051106DFEA321200009F04BFD200009F074FE6F
S21400512001223821200009F00BFE200009F018FDAE
S214005130C0B2062803D0362801D06428E3D1012067
S214005140E2E7C046240A0020002070477047C046A9
S214005150C26CC16D136810B50B431360036B002B54
S21400516000DB10BD014809F0BBFCFAE70C0A002082
S21400517010B50E4CA14200D92100013A0160511E23
S2140051808A414271012B0ED0002B09D0022B04D08D
S214005190032B02D10223037101E00023037110BD2B
S2140051A001230371FBE703230371F8E7001BB70035
S2140051B010B5036B82B00400002B06DBE26CE16DD9
S2140051C013688B43136002B010BD016A02230122EC
S2140051D06846FFF7CDFF0099019A024809F050FC97
S2140051E0ECE7C0460C0A002070B503685A4A5B69B3
S2140051F082B004000D00934200D09AE0036B002BAF
S21400520000DA9CE0E26CE16D13688B431360691E64
S2140052108D412900A06C226E036820319343036001
S214005220236B002B18DA4D4809F06CFCA06C226E3C
S2140052300368134303602368494ADB6A934200D03D
S21400524074E0E26CE16D13680B431360236B002B74
S21400525000DA70E002B070BDE26B266D1568636C14
S214005260B54315601D68A66DB5431D601D68A66D27
S21400527035431D601568266DB54315601D68A66D1F
S214005280B5431D601D68A66D35431D601568266D07
S214005290354315601D68A66DB5431D601D68A66D77
S2140052A035431D60266D1568B54315601D68A66DEF
S2140052B0B5431D601D68A66D35431D601568266DD7
S2140052C0B54315601D68A66DB5431D601D68A66DC7
S2140052D035431D601568266DB54315601D68A66DBF
S2140052E0B5431D601D68A66D35431D601568266DA7
S2140052F0B54315601D68A66DB5431D601D68A66D97
S21400530035431D60C9070CD41168256DA94311608B
S2140053101A68A16D8A431A601A68A16D0A431A605A
S21400532085E71168256D29431160F1E7200098474D
S21400533090E798476BE7094809F0D2FB8AE7016ACD
S214005340022301226846FFF713FF0099019A0348DB
S21400535009F096FB56E7C046B15100000C0A002043
S21400536051510000F0B54746CE4680B585B01F00C7
S2140053700CAB1B880D009846036816002A495A692C
S21400538004008A4229D1026B002A40DBE16CE06D02
S2140053900A6882430A605A6A9146244A914523D194
S2140053A04246019201220092DB69320098462900AB
S2140053B03B002000C04723681D4ADB6A93421FD18A
S2140053C0E26CE16D13680B431360236B002B1ADB52
S2140053D005B00CBC90469946F0BD904723685A6AC3
S2140053E09146124A9145DBD043463200009329008D
S2140053F03B002000C84723680D4ADB6A9342DFD093
S21400540020009847E4E70B4809F06AFBE0E7022330
S214005410016A012202A8FFF7ABFE0299039A05482B
S21400542009F02EFB2368B1E7B151000001BD000072
S214005430515100000C0A0020F0B54746CE4680B514
S21400544085B01F000CAB1B880D009846036816003D
S21400545029495A6904008A4227D1026B002A3EDB9A
S214005460E16CE06D0A6882430A601A6A9146234A34
S214005470914521D1424600970192DF69320001230F
S21400548029002000B84723681D4ADB6A93421FD1D3
S214005490E26CE16D13680B431360236B002B1ADB81
S2140054A005B00CBC90469946F0BD904723681A6A32
S2140054B09146124A9145DDD04346320000932900BA
S2140054C03B002000C84723680D4ADB6A9342DFD0C2
S2140054D020009847E4E70B4809F002FBE0E70223C8
S2140054E0016A012202A8FFF743FE0299039A0548C3
S2140054F009F0C6FA2368B3E7B15100000DC10000F9
S214005500515100000C0A0020F0B54746CE4680B543
S21400551085B01F000CAB160000229B5E0D0098465F
S2140055200DAB1B8821499946036804005A698A42D4
S21400553024D1026B002A2BDBE16CE06D0A68824303
S2140055400A604A46019242460092DB69320098465B
S21400555029003B002000C0472368154ADB6A9342B7
S2140055600FD1E26CE16D13680B431360236B002BC5
S2140055700ADB05B00CBC90469946F0BD9047236800
S214005580DFE720009847F4E70A4809F0A9FAF0E7B1
S2140055900223016A012202A8FFF7EAFD0299039A94
S2140055A0044809F06DFA2368C6E7C046B15100000A
S2140055B0515100000C0A0020032370B5194082B038
S2140055C004004176022900D12DE1032900D126E10D
S2140055D0012900D100E14825A24BC3602368A24AF6
S2140055E05B69934200D000E1236B002B00DA1EE1DA
S2140055F0E26CE16D13688B431360A16C226E0B683E
S21400560093430B60236B002B00DA25E1E26B266DDB
S2140056101068636CB04310601868A66DB0431860DD
S2140056201868A66D304318601068266DB043106089
S2140056301868A66DB04318601868A66D30431860E9
S2140056401068266D304310601868A66DB043186069
S2140056501868A66D304318601068266D30431060D9
S2140056601868A66DB04318601868A66D30431860B9
S2140056701068266DB04310601868A66DB0431860B9
S2140056801868A66D304318601068266D30431060A9
S2140056901868A66DB04318601868A66D3043186089
S2140056A01068266D304310601868A66DB043186009
S2140056B0A66D1868304318601068266DB0431060F9
S2140056C01A68A06D82431A601A68A06D02431A60B9
S2140056D00B68226E13430B60236B002B00DAB6E0D8
S2140056E069B2636CE26B002900DA90E01168206D05
S2140056F0814311601968A06D814319601968A06D17
S21400570001431960690600D57CE01168206D81436D
S21400571011601968A06D814319601968A06D014376
S2140057201960A90669D41168206D81431160196853
S214005730A06D814319601968A06D01431960116856
S214005740206D814311601968A06D81431960196846
S214005750A06D0143196029074AD41168206D814362
S21400576011601968A06D814319601968A06D014326
S21400577019601168206D814311601968A06D81431E
S21400578019601968A06D014319601168206D814386
S21400579011601968A06D814319601968A06D0143F6
S2140057A019601168206D814311601A68A16D8A43E3
S2140057B01A601A68A16D0A431A6023682B4ADB6ACE
S2140057C0934229D1E26CE16D13680B431360236B9F
S2140057D0002B38DB02B070BD254B234AC36023681C
S2140057E028255B69934200D1FEE62000984704E72F
S2140057F01168206D01431160B3E71168206D014305
S214005800116094E71168206D0143116081E711680B
S214005810206D014311606DE720009847DAE7144BCE
S214005820E825C360DAE60F4B8825C360D6E6216A12
S214005830022301226846FFF79BFC0099019A0D4857
S21400584009F01EF9D4E60B4809F04AF9C2E7290028
S214005850084809F057F9B0E73621064809F052F92A
S214005860A16C35E7F0004001B15100005151000035
S2140058704001F0000C0A0020FC20D200C0000240CC
S214005880C908D8081043C90208437047F8B5150080
S214005890A02204000E005200F0211F0009F0A6FF0F
S2140058A0174B710008332360012366628919154E71
S2140058B05B4223636363A363B44600230126124856
