:1000000000800020492F0000412F0000412F0000F8
:1000100000000000000000000000000000000000E0
:10002000000000000000000000000000412F000060
:100030000000000000000000412F0000CD2F000054
:10004000412F0000412F0000412F0000412F0000F0
:10005000412F0000412F0000412F0000E52F00003C
:10006000412F000071C30000412F0000412F00000C
:1000700039C10000412F000089C30000412F00005A
:10008000412F0000412F0000412F0000412F0000B0
:1000900000000000412F0000412F0000412F000010
:1000A000412F0000412F0000412F0000412F000090
:1000B0000000000010B5064C2378002B07D1054B3B
:1000C000002B02D0044800E000BF0123237010BDC4
:1000D000A00200200000000044460100084B10B5BB
:1000E000002B03D00749084800E000BF0748036819
:1000F000002B00D110BD064B002BFBD09847F9E731
:1001000000000000A4020020444601009C020020E0
:100110000000000090B585B000AF78600E23FC1899
:100120007B681B6814331B687A68100098470300CB
:10013000DBB223700E23FC1801347B681B68143378
:100140001B687A68100098470300DBB223700E2307
:10015000FB181B881800BD4605B090BD90B585B052
:1001600000AF78600C23FC187B681B6814331B6895
:100170007A68100098470300DBB223700C23FC1848
:1001800001347B681B6814331B687A681000984739
:100190000300DBB223700C23FC1802347B681B685D
:1001A00014331B687A68100098470300DBB2237091
:1001B0000C23FC1803347B681B6814331B687A68B3
:1001C000100098470300DBB22370FB681800BD469F
:1001D00005B090BD80B582B000AF786039603B68F3
:1001E0005A687B685A607B681800BD4602B080BDC3
:1001F00080B582B000AF786039607B683A681100E2
:100200001800FFF7E7FF3B689A687B689A603B68D5
:10021000DA687B68DA607B681800BD4602B080BD92
:1002200080B582B000AF786039607B683A681100B1
:100230001800FFF7DDFF7B68103319000C223B68C4
:100240001033002A05DB1878087001310133013AB8
:10025000F7E73B681A6A7B681A627B681800BD463C
:1002600002B080BD90B5EBB002AF040008001100F1
:10027000BB4BD02252009446BC446344221C1A70EB
:10028000B84BD02252009446BC446344021C1A80EE
:10029000B54BD02252009446BC4463440A1C1A80D9
:1002A0008A235B00FB18180008F012FC9C23FF3324
:1002B000FB18FF221A70CD235B00FB1800221A7076
:1002C0009A23FF33FB1801221A700023BE2252002A
:1002D000BA18136002F0A2FE0300BC225200BA1842
:1002E0001360A24BD02252009446BC4463441800D1
:1002F00006231A00002110F0A7FB9C4BD0225200CD
:100300009446BC4463442E225A70984BD02252002B
:100310009446BC44634462229A70944BD0225200AB
:100320009446BC4463446D22DA70904BD022520054
:100330009446BC44634470221A718C4BD022520004
:100340009446BC446344864AD02149008C46BC4450
:10035000624412781A70864B18000DF0ABF9030056
:100360001A00804BD02149008C46BC4463440021D4
:100370005B5E93420FDA7E4B18000DF0A6F9030086
:100380001A00794BD02149008C46BC4463440021BB
:100390005B5E934201DB012300E00023002B00D0D1
:1003A000AEE3744B180002F0C9FF734A714B1100A1
:1003B000180002F0EEFE0C23FA186E4B1100180024
:1003C00002F0F7FE6B4B2721180002F0E3FF9C239D
:1003D0005B00F8180C23FA186849012308F0A0FE06
:1003E0009C235B00FA188A235B00FB18110018009D
:1003F000FFF716FF0300180008F0ADFC031E05D040
:100400005F4A5C4B1100180002F07EFF5D4A594BB9
:100410001100180002F078FF8A235B00FB18180017
:10042000FFF778FE0300584A944663445A4253410A
:10043000DBB2002B00D149E3544A4E4B11001800A7
:1004400002F0A7FE8A235B00FB181800FFF786FE68
:100450000100484B0A22180002F0F4FF8A235B00D7
:10046000FB181800FFF77AFE8A235B00FB181800C0
:10047000FFF774FE0300BA225200BA181360444A10
:100480003C4B1100180002F084FEBA235B00FB18FD
:100490001968384B0A22180002F0D4FF3D4A354B48
:1004A0001100180002F075FE8A235B00FB1818008B
:1004B000FFF754FE01002F4B0A22180002F0C2FF82
:1004C0008A235B00FB181800FFF748FE0300B822E0
:1004D0005200BA1813608A235B00FB181800FFF75C
:1004E0003DFE0300CE225200BA1813608A235B003F
:1004F000FB181800FFF70EFE0300013B5A42534160
:10050000DBB2002B00D1E1E28A235B00FB1818006C
:10051000FFF700FE03001A007023FF33FB181A7068
:100520001D4A144B1100180002F033FE7023FF33F4
:10053000FB1819780F4B0A22180002F048FF7023AD
:10054000FF33FB181B78182B28D18A235B00FB187C
:100550001800FFF703FE031E20D101231FE0C04651
:1005600067FEFFFF64FEFFFF62FEFFFF6CFEFFFF02
:10057000BC020020940E002008340100F408002082
:100580001834010030340100BEB2FFFF3C340100DA
:100590004834010058340100683401000023002B66
:1005A00000D193E2CD235B00FB1801221A70C04AF0
:1005B000C04B1100180002F0ECFDB8235B00FB18E3
:1005C0001968BC4B0A22180002F02DFEB94B7821A5
:1005D000180002F0FEFDCE235B00FB181968B54B36
:1005E0000A22180002F013FFB8235B00FB181B68F7
:1005F0005A1C13005B009B181A0003239A43130034
:10060000B4225200BA181360CE235B00FB181B689B
:10061000002B0DDACE235B00FB181B685B42CE2259
:100620005200BA1813609A23FF33FB1800221A7085
:10063000A14BD02252009446BC44634400229A5EEF
:10064000B8235B00FB181B68D318013BB222520091
:10065000BA181360994BD02252009446BC446344AC
:1006600000229A5ECE235B00FB181B68D318013B67
:10067000B0225200BA181360B2235B00FB181B684B
:10068000002B00DA09E2B0235B00FB181B68002B8B
:1006900000DA02E2B8235B00FB181B68CA22520092
:1006A000BA181360CE235B00FB181B68C8225200E7
:1006B000BA1813600023C0225200BA181360C02376
:1006C0005B00FB181B68C2225200BA1813607A4BF9
:1006D000D02252009446BC44634400229B5E002B0F
:1006E0001DDA754BD02252009446BC44634400226C
:1006F0009B5E5B42C2225200BA1813606E4BD0223E
:1007000052009446BC44634400221A80B2235B002A
:10071000FB181B680133CA225200BA181360674BDA
:10072000D02252009446BC44634400229B5E002BBE
:100730001DDA624BD02252009446BC44634400222E
:100740009B5E5B42C0225200BA1813605B4BD02202
:1007500052009446BC44634400221A80B0235B00DC
:10076000FB181B680133C8225200BA181360544B9F
:1007700018000CF09FFF03001A00B2235B00FB1867
:100780001B68D00FD917934248410300DBB2002BFE
:1007900012D04B4B18000CF08DFF03001A00464B93
:1007A000D02149008C46BC44634400215B5ED31ACF
:1007B000CA225200BA181360414B18000CF085FF92
:1007C00003001A00B0235B00FB181B68D00FD91779
:1007D000934248410300DBB2002B12D0384B180083
:1007E0000CF073FF03001A00344BD02149008C46F3
:1007F000BC44634400215B5ED31AC8225200BA187D
:1008000013602F4B180007F0A9FC2B4BD02252008D
:100810009446BC4463441988284BD0225200944625
:10082000BC4463441A88CA235B00FB181B689CB253
:10083000C8235B00FB181B689BB221480093230070
:1008400007F0F6FC0023C6225200BA181360C62334
:100850005B00FB181A68C8235B00FB181B689A42F0
:1008600000DB16E19A23FF33FB181B78002B29D0FD
:10087000CE235B00FB181B685A1EC6235B00FB18C7
:100880001968C0235B00FB181B68CB18D31A1A0029
:10089000B4235B00FB181B685A43BA235B00FB18A8
:1008A0001B68D318BE225200BA18136022E0C0465B
:1008B00074340100940E002064FEFFFF62FEFFFF0F
:1008C000BC020020C6235B00FB181A68C0235B0033
:1008D000FB181B68D3181A00B4235B00FB181B68B5
:1008E0005A43BA235B00FB181B68D318BE22520080
:1008F000BA181360C2235B00FB181A6813005B0070
:100900009B181A00BE235B00FB181B689B18BE22B5
:100910005200BA1813608A235B00FB18180008F015
:10092000D8F90200BE235B00FB181B68D31A5A1EBD
:100930009341DBB2002B17D0734B180007F036FC45
:10094000BE235B00FB181A688A235B00FB181100AA
:10095000180008F0A4F99C23FF33FB18FF221A703B
:10096000694B180007F0FAFB0023C4225200BA18A2
:100970001360C4235B00FB181A68CA235B00FB18D2
:100980001B689A427BDA9C23FF33FB181B78FF2BF2
:1009900015D15D4B180007F009FC1423F9188A23C0
:1009A0005B00FB18FF22180008F02BF99C23FF3393
:1009B000FB1800221A70544B180007F0CFFB9C2341
:1009C000FF33FB181B789C22FF32BA18591C117098
:1009D00019006023FF33FB184C4AD02040008446A6
:1009E000BC446244525C1A709C23FF33FB181B7892
:1009F0009C22FF32BA18591C11701900AF235B00FA
:100A0000FB18424AD02040008446BC446244525CF9
:100A10001A709C23FF33FB181B789C22FF32BA18F4
:100A2000591C117019005E23FF33FB18374AD02080
:100A300040008446BC446244525C1A706023FF3319
:100A4000FB181C78AF235B00FB181A785E23FF337A
:100A5000FB1819782C48230006F070FF03001A00D9
:100A6000294B1100180007F0ABFCC4235B00FB18F6
:100A70001B680133C4225200BA18136079E7C623F9
:100A80005B00FB181B680133C6225200BA181360C2
:100A9000DDE61D4B180007F089FB1D4A1D4B1100B8
:100AA000180002F076FB02F0B9FA0200BC235B00EA
:100AB000FB181B68D11A174B0A22180002F005FC1C
:100AC000154A144B1100180002F01EFC8A235B002B
:100AD000FB18180008F026F9CD235B00FB181B78E3
:100AE00001225340DBB2002B05D00C4A094B110008
:100AF000180002F009FC074B180002F01FFC00E090
:100B0000C046BD4669B090BDBC02002074FEFFFF28
:100B100084340100940E00209034010094340100CC
:100B200090B5E9B002AF786008001100994BCC2273
:100B300052009446BC446344021C1A80964BCC225B
:100B400052009446BC4463440A1C1A8086235B000E
:100B5000FB18180007F0BCFF9423FF33FB18FF229B
:100B60001A70C9235B00FB1800221A709223FF330E
:100B7000FB1801221A700023BA225200BA1813601F
:100B800002F04CFA0300B8225200BA181360834BEB
:100B900018000CF08FFD03001A007E4BCC21490099
:100BA0008C46BC44634400215B5E93420FDA7B4B6E
:100BB00018000CF08AFD03001A00774BCC21490085
:100BC0008C46BC44634400215B5E934201DB0123FD
:100BD00000E00023002B00D0A8E3714B180002F0C6
:100BE000ADFB704A6E4B1100180002F0D2FA7A6821
:100BF0006B4B1100180002F0DCFA694B272118003A
:100C000002F0C8FB98235B00F8187A686649012354
:100C100008F086FA98235B00FA1886235B00FB181D
:100C200011001800FFF7FCFA0300180008F093F811
:100C3000031E05D05D4A5A4B1100180002F064FBF8
:100C40005B4A574B1100180002F05EFB86235B00E5
:100C5000FB181800FFF75EFA0300564A94466344F7
:100C60005A425341DBB2002B00D145E3524A4C4B70
:100C70001100180002F08DFA86235B00FB181800A3
:100C8000FFF76CFA0100464B0A22180002F0DAFB6B
:100C900086235B00FB181800FFF760FA86235B00D1
:100CA000FB181800FFF75AFA0300B6225200BA18D0
:100CB0001360424A3A4B1100180002F06AFAB62358
:100CC0005B00FB181968364B0A22180002F0BAFBC9
:100CD0003B4A334B1100180002F05BFA86235B009D
:100CE000FB181800FFF73AFA01002D4B0A221800F2
:100CF00002F0A8FB86235B00FB181800FFF72EFA12
:100D00000300B4225200BA18136086235B00FB185C
:100D10001800FFF723FA0300CA225200BA18136022
:100D200086235B00FB181800FFF7F4F90300013B72
:100D30005A425341DBB2002B00D1DDE286235B0037
:100D4000FB181800FFF7E6F903001A006823FF33C9
:100D5000FB181A701B4A124B1100180002F019FA06
:100D60006823FF33FB1819780D4B0A22180002F094
:100D70002EFB6823FF33FB181B78182B24D1862306
:100D80005B00FB181800FFF7E9F9031E1CD10123D3
:100D90001BE0C0466AFEFFFF68FEFFFFBC020020AA
:100DA000940E002008340100F408002018340100DB
:100DB00030340100BEB2FFFF3C3401004834010072
:100DC00058340100683401000023002B00D193E265
:100DD000C9235B00FB1801221A70C04AC04B1100E6
:100DE000180002F0D6F9B4235B00FB181968BC4B5D
:100DF0000A22180002F017FAB94B7821180002F005
:100E0000E8F9CA235B00FB181968B54B0A221800E1
:100E100002F0FDFAB4235B00FB181B685A1C130098
:100E20005B009B181A0003239A431300B022520060
:100E3000BA181360CA235B00FB181B68002B0DDA7D
:100E4000CA235B00FB181B685B42CA225200BA1817
:100E500013609223FF33FB1800221A70A14BCC229F
:100E600052009446BC44634400229A5EB4235B0063
:100E7000FB181B68D318013BAE225200BA1813604E
:100E8000994BCC2252009446BC44634400229A5EA3
:100E9000CA235B00FB181B68D318013BAC2252002D
:100EA000BA181360AE235B00FB181B68002B00DA36
:100EB00009E2AC235B00FB181B68002B00DA02E29E
:100EC000B4235B00FB181B68C6225200BA181360DB
:100ED000CA235B00FB181B68C4225200BA181360B7
:100EE0000023BC225200BA181360BC235B00FB181D
:100EF0001B68BE225200BA1813607A4BCC225200F3
:100F00009446BC44634400229B5E002B1DDA754B63
:100F1000CC2252009446BC44634400229B5E5B4258
:100F2000BE225200BA1813606E4BCC225200944677
:100F3000BC44634400221A80AE235B00FB181B688C
:100F40000133C6225200BA181360674BCC225200FC
:100F50009446BC44634400229B5E002B1DDA624B26
:100F6000CC2252009446BC44634400229B5E5B4208
:100F7000BC225200BA1813605B4BCC22520094463C
:100F8000BC44634400221A80AC235B00FB181B683E
:100F90000133C4225200BA181360544B18000CF0ED
:100FA00089FB03001A00AE235B00FB181B68D00FFF
:100FB000D917934248410300DBB2002B12D04B4BB0
:100FC00018000CF077FB03001A00464BCC214900B7
:100FD0008C46BC44634400215B5ED31AC622520097
:100FE000BA181360414B18000CF06FFB03001A0095
:100FF000AC235B00FB181B68D00FD9179342484104
:101000000300DBB2002B12D0384B18000CF05DFB54
:1010100003001A00344BCC2149008C46BC44634485
:1010200000215B5ED31AC4225200BA1813602F4B02
:10103000180007F093F82B4BCC2252009446BC4486
:1010400063441988284BCC2252009446BC44634424
:101050001A88C6235B00FB181B689CB2C4235B0084
:10106000FB181B689BB221480093230007F0E0F8AF
:101070000023C2225200BA181360C2235B00FB187F
:101080001A68C4235B00FB181B689A4200DB16E158
:101090009223FF33FB181B78002B29D0CA235B0057
:1010A000FB181B685A1EC2235B00FB181968BC237F
:1010B0005B00FB181B68CB18D31A1A00B0235B0027
:1010C000FB181B685A43B6235B00FB181B68D31838
:1010D000BA225200BA18136022E0C04674340100EC
:1010E000940E00206AFEFFFF68FEFFFFBC02002096
:1010F000C2235B00FB181A68BC235B00FB181B684B
:10110000D3181A00B0235B00FB181B685A43B623A0
:101110005B00FB181B68D318BA225200BA18136080
:10112000BE235B00FB181A6813005B009B181A00B3
:10113000BA235B00FB181B689B18BA225200BA182E
:10114000136086235B00FB18180007F0C2FD020045
:10115000BA235B00FB181B68D31A5A1E9341DBB2FB
:10116000002B17D0734B180007F020F8BA235B0050
:10117000FB181A6886235B00FB181100180007F0A3
:101180008EFD9423FF33FB18FF221A70694B180061
:1011900006F0E4FF0023C0225200BA181360C023F7
:1011A0005B00FB181A68C6235B00FB181B689A4299
:1011B0007BDA9423FF33FB181B78FF2B15D15D4B93
:1011C000180006F0F3FF0C23F91886235B00FB18C8
:1011D000FF22180007F015FD9423FF33FB180022AF
:1011E0001A70544B180006F0B9FF9423FF33FB1814
:1011F0001B789422FF32BA18591C11701900582319
:10120000FF33FB184C4ACC2040008446BC44624467
:10121000525C1A709423FF33FB181B789422FF3220
:10122000BA18591C11701900AB235B00FB18424A15
:10123000CC2040008446BC446244525C1A70942323
:10124000FF33FB181B789422FF32BA18591C117017
:1012500019005623FF33FB18374ACC204000844640
:10126000BC446244525C1A705823FF33FB181C784C
:10127000AB235B00FB181A785623FF33FB18197851
:101280002C48230006F05AFB03001A00294B1100DA
:10129000180007F095F8C0235B00FB181B680133AA
:1012A000C0225200BA18136079E7C2235B00FB1812
:1012B0001B680133C2225200BA181360DDE61D4BD1
:1012C000180006F073FF1D4A1D4B1100180001F0B5
:1012D00060FF01F0A3FE0200B8235B00FB181B684F
:1012E000D11A174B0A22180001F0EFFF154A144BD0
:1012F0001100180002F008F886235B00FB181800A4
:1013000007F010FDC9235B00FB181B780122534036
:10131000DBB2002B05D00C4A094B1100180001F07C
:10132000F3FF074B180002F009F800E0C046BD4685
:1013300067B090BDBC02002074FEFFFF8434010042
:10134000940E0020903401009434010080B584B0E4
:1013500002AF78607B6815490022180006F0B7F8E4
:101360007B6800229B5E180000230093F023F0228C
:10137000002105F063FE03001AB27B681A807B68C7
:1013800002229B5E1800A0235900A0235A000023CC
:1013900000930B00002105F051FE03001AB27B6898
:1013A0005A80C0467868BD4602B080BD2003002048
:1013B00090B587B000AF0400381D0160426019008D
:1013C0000F23FB18221C1A700E23FB180A1C1A701C
:1013D000324A334B1100180001F0DBFE0E23FB18DC
:1013E00019782F4B0A22180002F011F80E23FB186F
:1013F0001B78022B25D12B4A294B1100180001F034
:1014000083FF0F23FB181B780122134004D01723FE
:10141000FB186A221A7003E01723FB186B221A705C
:101420003B1D0021595E3B1D02229A5E1723FB18CB
:101430001B781800FEF716FF0E23FB1801221A7006
:1014400024E0194A164B1100180001F05DFF0F232C
:10145000FB181B780122134004D01723FB186822C5
:101460001A7003E01723FB1869221A703B1D002134
:10147000595E3B1D02229A5E1723FB181B78180049
:10148000FEF7F0FE0E23FB1802221A700E23FB1843
:101490001B781800BD4607B090BDC046C03401009F
:1014A000940E0020D4340100EC34010090B58BB0D0
:1014B00000AF7860396079680C23FB180A221800A5
:1014C00005F023FE2723FC180C23FB18002118002D
:1014D00005F068FF030023702723FB181B781D22EB
:1014E0005F211800FEF7BEFE39681823FB180A2298
:1014F000180005F00AFE1823FA180C23FB18110037
:10150000180005F01FFF1823FB18180005F01CFE3B
:101510002723FC180C23FB180021180005F042FFBC
:10152000030023702723FB181B781C22842118003A
:10153000FEF798FE0C23FB18180005F005FEC046C8
:10154000BD460BB090BD80B584B000AF3B001860C5
:1015500059600F23FB18FF221A703B0002229B5E8A
:101560004F2B22DD3B0002229B5EA02B1DDC3B00AB
:1015700000229B5E502B04DC0F23FB1800221A7004
:101580005EE03B0000229B5EA02B04DC0F23FB18D7
:1015900001221A7054E03B0000229B5EEF2B4FDCCF
:1015A0000F23FB1802221A704AE03B0002229B5EC6
:1015B000A02B22DD3B0002229B5EF02B1DDC3B00BA
:1015C00000229B5E502B04DC0F23FB1803221A70B1
:1015D00038E03B0000229B5EA02B04DC0F23FB18AD
:1015E00004221A702EE03B0000229B5EEF2B29DCC8
:1015F0000F23FB1805221A7024E03B0002229B5E99
:10160000F02B20DD3B0000229B5E502B04DC0F23DF
:10161000FB1806221A7016E03B0000229B5EA02BEE
:1016200004DC0F23FB1807221A700CE03B00002299
:101630009B5EEF2B07DC0F23FB1808221A7002E0D9
:10164000C04600E0C0460F23FB181B781800BD46BB
:1016500004B080BD80B582B000AF78600A00FB1C8A
:101660001A707B68180006F0C7F8FB1C1B78002B6B
:1016700007D0FB1C1B78032B03D0FB1C1B78062B0D
:1016800003D17B6800221A8012E0FB1C1B78012B1F
:1016900007D0FB1C1B78042B03D0FB1C1B78072BEB
:1016A00003D17B6850221A8002E07B68A0221A8056
:1016B000FB1C1B78002B07D0FB1C1B78012B03D0D5
:1016C000FB1C1B78022B03D17B6850225A8012E04E
:1016D000FB1C1B78032B07D0FB1C1B78042B03D0AF
:1016E000FB1C1B78052B03D17B68A0225A8002E0EB
:1016F0007B68F0225A80C0467868BD4602B080BD43
:1017000090B585B000AFF860080011000B23FB18FE
:10171000021C1A700A23FB180A1C1A70FB681800B6
:1017200006F06AF8FC683A000B23FB181B781900D6
:101730001000FFF78FFF3B002000190006231A005E
:101740000FF079F90A23FB181B78012B09D00A2323
:10175000FB181B78042B04D00A23FB181B78072BDB
:1017600009D1FB6800229B5E9BB201339BB21AB287
:10177000FB681A8021E00A23FB181B78022B09D092
:101780000A23FB181B78052B04D00A23FB181B78AF
:10179000082B09D1FB6800229B5E9BB21B339BB2D6
:1017A0001AB2FB681A8008E0FB6800229B5E9BB2BD
:1017B00035339BB21AB2FB681A800A23FB181B78D8
:1017C000012B09D00A23FB181B78022B04D00A2313
:1017D000FB181B78032B09D1FB6802229B5E9BB28E
:1017E00001339BB21AB2FB685A8021E00A23FB182E
:1017F0001B78042B09D00A23FB181B78052B04D077
:101800000A23FB181B78062B09D1FB6802229B5E7A
:101810009BB21B339BB21AB2FB685A8008E0FB688C
:1018200002229B5E9BB235339BB21AB2FB685A8090
:10183000C046F868BD4605B090BD90B58DB000AF0C
:1018400002000F23FB181A700E23FB180A1C1A70D3
:101850001823FB18180005F0CFFF1823FC183800D8
:101860000E23FB181A780F23FB181B781900FFF7BB
:1018700047FF3B002000190006231A000FF0DBF899
:101880000F23FB181B780122134004D02F23FB18D1
:1018900062221A7003E02F23FB1877221A7010239C
:1018A000FB18180008231A0000210FF0CDF81023B0
:1018B000FB1863225A701023FB182E22DA701023B3
:1018C000FB1862221A711023FB186D225A71102323
:1018D000FB1870229A711023FB182F22BA18127865
:1018E0001A700E23FB1819782023FB180A221800FF
:1018F00005F0E6FB2023FB180021180005F052FD3F
:1019000003001A001023FB189A702023FB181800FC
:1019100005F01AFC1823FB180021595E1823FB1848
:1019200002229A5E1023FB181800FFF7F9F8C04650
:10193000BD460DB090BD90B587B002AF78600C0089
:1019400010001900FB1C221C1A70BB1C021C1A7010
:101950007B1C0A1C1A700F23FB1800221A700F231D
:10196000FB181B78082B00DD90E0FB1C1A78130095
:101970009B009B185B009B187A68D2180F23FB18FA
:101980001B780233D35C002B00D177E00F23FB18C8
:101990001B789A1CBB1C1B789A4200D16EE00E2368
:1019A000FB1800221A700E23FB181B78082B65DC2D
:1019B0000E23FB181A7813009B009B185B009B18E2
:1019C0007A68D2180F23FB181B780233D35C002BE4
:1019D0004CD00E23FA18FB1C12781B789A4245D083
:1019E0000E23FA187B1C12781B789A4206D1BB1C76
:1019F0001B78013BDAB23B6A1A7047E00F23FB18F1
:101A00001B780233DAB27B1C1C780E23FB18197882
:101A100078683B6A00932300FFF78DFF3B6A1B78D1
:101A2000FF2B23D00D23FB1800221A700D23FB1867
:101A30001B78082B1ADC0D23FB181B783A6AD31885
:101A40001B78FF2B0AD10D23FB181B783A6AD31899
:101A5000BA1C1278013AD2B21A7017E00D23FB18A3
:101A60001A780D23FB1801321A70DFE70E23FB18DA
:101A70001A780E23FB1801321A7094E70F23FB1813
:101A80001A780F23FB1801321A7068E7BD4605B0BB
:101A900090BD90B58DB002AF78600C0010001900B9
:101AA000FB1C221C1A70BB1C021C1A707B1C0A1C1B
:101AB0001A70FB1C1B780122134004D02723FB184B
:101AC00062221A7003E02723FB1877221A70BB1CCE
:101AD0001B780122134004D02623FB1802221A701F
:101AE00003E02623FB1801221A701023FB181800AC
:101AF00007231A0000210EF0A7FF1023FB18622213
:101B00005A701023FB182E22DA701023FB18622261
:101B10001A711023FB186D225A711023FB187022C2
:101B20009A711023FB182722BA1812781A70BB1C5E
:101B30001B78591E1823FB180A22180005F0E5FA35
:101B40001823FB180021180005F02CFC03001A00D4
:101B50001023FB189A701823FB18180005F0F4FAEC
:101B60000823FA18FB1C1B7819001000FFF772FD00
:101B70000823FB180021595E0823FB1802229A5EF5
:101B80001023FB181800FEF7CBFFFB1C1A7813007C
:101B90009B009B185B009B187A68D3182622BA1802
:101BA00012781A70FB1C1A7813009B009B185B00BC
:101BB0009B187A68D318BA1C12785A702523FB1820
:101BC00000221A702523FB181B78082B6ADCFB1CEB
:101BD0001A7813009B009B185B009B187A68D21838
:101BE0002523FB181B780233D35C002B52D025230E
:101BF000FB181B789A1CBB1C1B789A424AD02423E2
:101C0000FB1800221A702423FB181B78082B41DCD8
:101C10002423FB181A7813009B009B185B009B1869
:101C20007A68D2182523FB181B780233D35C002B6B
:101C300028D02423FA18FB1C12781B789A4221D052
:101C40002423FA187B1C12781B789A421AD0252379
:101C5000FB181B789A1C3823FB181B789A4211D06A
:101C60002523FB181B780233DAB27B1C1C78242353
:101C7000FB18197878683823FB181B780093230029
:101C8000FFF707FF2423FB181A782423FB180132DF
:101C90001A70B8E72523FB181A782523FB180132A0
:101CA0001A708FE7C046BD460BB090BD90B587B0A7
:101CB00000AF78600823FB18180006231A000021E3
:101CC0000EF0C2FE1723FB1800221A701623FB1811
:101CD00000221A701523FB1800221A701523FB1816
:101CE0001B78072B00DDDBE01523FB181A789249DF
:101CF00013005B009B185B5C1A0013009B009B1891
:101D00005B009B187A68D31819781523FB181A788A
:101D1000894813005B009B18C31801331B781A0015
:101D200013009B009B185B009B187A68D3181B78E4
:101D3000994200D0ACE01523FB181A787E491300B5
:101D40005B009B185B5C1A0013009B009B185B00F8
:101D50009B187A68D31819781523FB181A787648D7
:101D600013005B009B18C31802331B781A00130082
:101D70009B009B185B009B187A68D3181B789942CC
:101D800000D085E01523FB181A786B4913005B001F
:101D90009B185B5C1A0013009B009B185B009B1850
:101DA0007A68D3181B78002B72D01723FB18197888
:101DB0001523FB181A78604813005B009B181B5C06
:101DC0001A0013009B009B185B009B187A68D318BD
:101DD00018780823FB184A00011CD1541423FB185F
:101DE00000221A701323FB1800221A701323FB1809
:101DF0001B78022B39DC1423FB1819781523FB18E8
:101E00001A781323FB1818784B4C13005B009B18AF
:101E1000E3181B5C1A0013009B009B185B009B18C7
:101E20007A68D3185B78994217DA1523FB181A7869
:101E30001323FB181978404813005B009B18C31844
:101E40005B5C1A0013009B009B185B009B187A6870
:101E5000D2181423FB1852781A701323FB181A781F
:101E60001323FB1801321A70C0E71723FB181B78E5
:101E70000822BA185B00D31801331422BA1812785A
:101E80001A701723FB181A781723FB1801321A70DF
:101E90001523FB181A781523FB1801321A701DE759
:101EA0001223FB18FF221A701123FB1800221A704C
:101EB0001123FB181B78022B37DC1123FB181B782E
:101EC0000822BA185B00D31801331B781A001223BA
:101ED000FB181B789A4220DA1123FB181B78082282
:101EE000BA185B00D31801331B78002B15D01123CF
:101EF000FB1819781623FB180822BA1849008A5CC7
:101F00001A701123FB181A781223FB18082179186C
:101F100052008A18013212781A701123FB181A78AD
:101F20001123FB1801321A70C2E71623FB181B7825
:101F30001800BD4607B090BD0400002090B59DB0CC
:101F400000AF02000F23FB181A700E23FB180A1CA7
:101F50001A706F23FB1802221A702023FB18180036
:101F600009231A0000210EF06FFD6E23FB180022DA
:101F70001A706D23FB1800221A706B23FB18FF22C6
:101F80001A701823FB18180005F036FC50220021A7
:101F90006420FEF767F96D23FB181B78082B00DD22
:101FA000DBE0714B180005F075FA03005A4253410B
:101FB000DBB2002B2ED11023FB181800FFF7C6F957
:101FC0006B23FC181023FB1818685968FFF7BBFA3D
:101FD000030023701823FC183A006B23FB181B78AE
:101FE00019001000FFF736FB3B0020001900062304
:101FF0001A000EF020FD6B23FB181B78FF2BD0D0AE
:102000006B23FB181B782022BA18D35C002B00D05E
:10201000A0E001E0C046C4E76B23FB181B78202238
:10202000BA186F2179180978D1546F23FC186F23DF
:10203000FB1819781823FA186B23FB1818780B0073
:1020400011685268FFF7B4F9030023706D23FB1881
:102050001A786D23FB1801321A706C23FB180022CA
:102060001A706C23FB181B78072B5CDC6C23FB18A5
:102070001A783E4913005B009B185B5C1A00202312
:10208000FB18995C6C23FB181A78384813005B0026
:102090009B18C31801331B781A002023FB189B5C84
:1020A000994238D16C23FB181A78304913005B0031
:1020B0009B185B5C1A002023FB18995C6C23FB18AF
:1020C0001A782A4813005B009B18C31802331B7848
:1020D0001A002023FB189B5C99421CD16C23FB182F
:1020E0001A78224913005B009B185B5C1A002023BE
:1020F000FB189B5C002B0ED06C23FB181A781B4935
:1021000013005B009B185B5C19006E23FB182022F8
:10211000BA18525C1A706C23FB181A786C23FB18DF
:1021200001321A709DE7124A124B1100180001F09B
:1021300030F86E23FB1819780E4B0A22180001F0B4
:1021400066F96E23FB181B78002B05D1642000F084
:102150006FFF20E7C0461EE7C0466E23FB181B78C2
:102160001800BD461DB090BD2003002004000020D3
:1021700004350100940E0020B0B5C2B002AF0200D9
:10218000FB1D1A70BB1D0A1C1A70FF23FB180122CD
:102190001A70FE23FB1801221A70FD23FB1800227F
:1021A0001A705423FB18180063231A0000210EF044
:1021B0004BFCF623FB1800221A704C23FB18180066
:1021C00005F01AFB502200216420FEF74BF8F6239D
:1021D000FB181B78082B00DDB9E2FC23FB1800225A
:1021E0001A70FB23FB18FF221A704823FB18E14AE0
:1021F00012881A80FE23FB181B78092B00D097E069
:10220000FA23FB1800221A70F923FB1800221A7017
:10221000F923FB181B78082B1BDCF923FB181A7811
:102220005423F91813009B009B185B009B185B5C00
:10223000002B06D0FA23FB181A78FA23FB18013278
:102240001A70F923FB181A78F923FB1801321A7057
:10225000DEE7FA23FB181B78082B69D1C64B180060
:1022600005F018F903005A425341DBB2002B5BD151
:102270003423FB181800FFF769F8FB23FC183423FC
:10228000FB1818685968FFF75EF903002370FB23F9
:10229000FB181B78FF2B49D0FB23FB181A7854231B
:1022A000F91813009B009B185B009B185B5C002BCC
:1022B000D4D1FB23FB181A78FE23FB181B78591C7A
:1022C0005423F81813009B009B185B009B18C3183D
:1022D000FF22BA1812785A54FE23FB181A78FB23EF
:1022E000FB181B7811001800FFF7A7FAFE23FB1854
:1022F0001B780133DCB2FE23FB181B780133DBB201
:10230000FB22BA181578FB22BA1811785422B81893
:1023100000932B002200FFF7BCFB5423FB1818008E
:10232000FFF7C4FC030015E2C04697E7C04695E7F7
:10233000FC23FB181B78012B00DD7AE08E4B180084
:1023400005F0A8F803005A425341DBB2002B21D11B
:102350002C23FB181800FEF7F9FFFB23FC182C2395
:10236000FB1818685968FFF7EEF803002370FB2389
:10237000FB181B78FF2BE1D0FB23FB181A785423A2
:10238000F91813009B009B185B009B185B5C002BEB
:102390004BD101E0C046D1E7FB23FB181A78FE239E
:1023A000FB181B78591C5423F81813009B009B182A
:1023B0005B009B18C3185B5C002B38D1FB23FB1818
:1023C0001A78FE23FB181B78591C5423F8181300A5
:1023D0009B009B185B009B18C318FF22BA18127849
:1023E0005A544823FB181B78FF2B06D14823FB18AF
:1023F000FB22BA1812781A7005E04823FB18FB225A
:10240000BA1812785A70FE23FB181A78FB23FB18AF
:102410001B7811001800FFF710FAFC23FB181A783C
:10242000FC23FB1801321A7082E7C04680E7C046E1
:102430007EE73C23FB18514A03CA03C312781A7083
:10244000FE23FB181B780133DAB2FB23FB181C7840
:10245000FB23FB1819785423F8183C23FB1800932E
:102460002300FFF768FA3C23FB181B78FF2B00D1F1
:102470003AE1F823FB1800221A70F823FB181B78A6
:10248000082B00DD7EE0F823FB181A78FE23FB18EA
:102490001B78591C5423F81813009B009B185B00F1
:1024A0009B18C3185B5C002B5CD01423F818FE2328
:1024B000FB181A78F823FB181B781900FFF720F98E
:1024C0001423FB1800229B5E9BB202339BB219B20D
:1024D0001423FB1802229B5E9BB21A339BB21CB2E0
:1024E0001423FB1800229B5E9BB218339BB21DB2D3
:1024F0001423FB1802229B5E9BB21A339BB21BB2C1
:102500001F48F8221202019200932B0022000AF0C9
:1025100010FB1423FB1800229B5E9BB202339BB27C
:1025200019B21423FB1802229B5E9BB219339BB293
:102530001CB21423FB1800229B5E9BB218339BB283
:102540001DB21423FB1802229B5E9BB219339BB26F
:102550001BB20B48F8221202019200932B002200BA
:102560000AF0E7FAF823FB181A78F823FB1801326F
:102570001A7082E718350100200300201C35010085
:10258000BC0200204823FB181A782423FB181100F2
:102590001800FFF75FF84823FB185A781C23FB1834
:1025A00011001800FFF756F8F723FB18FF221A70E6
:1025B0006A4B180004F06EFF03005A425341DBB22D
:1025C000002B00D070E00C23FB181800FEF7BEFEB5
:1025D0000C23FB1800229A5E2423FB1800215B5E6B
:1025E0009A4228DD0C23FB1800229B5E1A0024234C
:1025F000FB1800215B5E50339A421CDA0C23FB1857
:1026000002229A5E2423FB1802215B5E9A4212DDAD
:102610000C23FB1802229B5E1A002423FB180221C4
:102620005B5E50339A4206DAF723FB184822BA1849
:1026300012781A7032E00C23FB1800229A5E1C23D9
:10264000FB1800215B5E9A42B2DD0C23FB180022CE
:102650009B5E1A001C23FB1800215B5E50339A42DC
:10266000A6DA0C23FB1802229A5E1C23FB18022117
:102670005B5E9A429CDD0C23FB1802229B5E1A00D3
:102680001C23FB1802215B5E50339A4290DAF72339
:10269000FB184822BA1852781A70C046F723FB1864
:1026A0001B78FF2B02D119E0C04681E7FE23FB18FF
:1026B0001B780133DCB2FE23FB181B780133DBB23D
:1026C000F722BA181578F722BA1811785422B818D8
:1026D00000932B002200FFF7DCF905E0204A214B94
:1026E0001100180000F010FEFD23FC185423FB1805
:1026F0001800FFF7DBFA030023701B4A194B110087
:10270000180000F046FDFD23FB181978154B0A222E
:10271000180000F05CFEFD23FB181B78002B15D180
:10272000FE23FB181A78FE23FB1801321A70FF23D0
:10273000FB181B78012B04D1FF23FB1802221A700F
:1027400045E5FF23FB1801221A7040E5C046FD2332
:10275000FB181B781800BD4640B0B0BD2003002018
:1027600010350100940E00200435010090B589B0A9
:1027700000AF78601F23FB1800221A701E23FB187D
:1027800000221A701D23FB1800221A70002200215B
:102790006120FDF767FD202276216320FDF762FDB1
:1027A0001F23FB181A781E23FB181B781900100032
:1027B000FEF77CFE0A2251216220FDF753FD1D2306
:1027C000FB181A787B689A4200DBE6E01B23FC18B2
:1027D0001E23FB181A781F23FB181B781100180002
:1027E000FFF7ACFB030023701B23FB181B78012BA6
:1027F00017D0022B02D0002B26D02AE01C23FB1876
:1028000065221A701E23FB181A781E23FB1801324A
:102810001A701D23FB181A781D23FB1801321A7039
:1028200017E01C23FB1867221A701F23FB181A7865
:102830001F23FB1801321A701D23FB181A781D2361
:10284000FB1801321A7004E01C23FB1866221A7070
:10285000C0461F23FB181A781E23FB181B7819008B
:102860001000FEF723FE7B68002B00DA01335B10BB
:10287000DAB21A23FB1801321A701F23FB181A78D8
:102880001A23FB181B789A421CDA1E23FB181A78AD
:102890001A23FB181B789A4214DA1C23FB181B78A6
:1028A0006E2200211800FDF7DDFC414B180004F0FA
:1028B000F1FD03005A1E9341DBB2002B00D1F4E777
:1028C000C04668E01E23FB181A781F23FB181B78EC
:1028D0009A4230DD002200216D20FDF7C3FC344B0D
:1028E000180004F0D7FD03005A1E9341DBB2002B01
:1028F0001FD01423FB181800FEF728FD1423FB1823
:1029000000229B5E162BEADD1423FB1800229B5E3F
:10291000D72BE4DC1423FB1802229B5EB92BDEDDEF
:102920001423FB1802229A5E84235B009A4233DD53
:10293000D5E7C046D3E7002200216E20FDF792FCC8
:102940001B4B180004F0A6FD03005A1E9341DBB296
:10295000002BF5D00C23FB181800FEF7F7FC0C2316
:10296000FB1800229B5E162B13DD0C23FB180022A4
:102970009B5ED72B0DDC0C23FB1802229B5EB92B30
:1029800007DD0C23FB1802229A5E84235B009A4227
:1029900003DDC046D4E712E7C046064A064B1100E5
:1029A000180000F0DDFCC046BD4609B090BDC04631
:1029B0002003002028350100940E002090B589B036
:1029C00000AF78601F23FB1800221A701E23FB182B
:1029D00000221A701D23FB1800221A700022002109
:1029E0006120FDF73FFC202276216320FDF73AFCB1
:1029F0001F23FB181A781E23FB181B7819001000E0
:102A0000FEF754FD0A2251216220FDF72BFC1D2305
:102A1000FB181A787B689A4200DBE6E01B23FC185F
:102A20001E23FB181A781F23FB181B7811001800AF
:102A3000FFF7A2FB030023701B23FB181B78012B5D
:102A400004D0022B15D0002B26D02AE01C23FB1823
:102A500065221A701E23FB181A781E23FB180132F8
:102A60001A701D23FB181A781D23FB1801321A70E7
:102A700017E01C23FB1867221A701F23FB181A7813
:102A80001F23FB1801321A701D23FB181A781D230F
:102A9000FB1801321A7004E01C23FB1866221A701E
:102AA000C0461F23FB181A781E23FB181B78190039
:102AB0001000FEF7FBFC7B68002B00DA01335B1093
:102AC000DAB21A23FB1801321A701F23FB181A7886
:102AD0001A23FB181B789A421CDA1E23FB181A785B
:102AE0001A23FB181B789A4214DA1C23FB181B7854
:102AF0006E2200211800FDF7B5FB414B180004F0D1
:102B0000C9FC03005A1E9341DBB2002B00D1F4E74D
:102B1000C04668E01E23FB181A781F23FB181B7899
:102B20009A4230DD002200216D20FDF79BFB344BE3
:102B3000180004F0AFFC03005A1E9341DBB2002BD7
:102B40001FD01423FB181800FEF700FC1423FB18F9
:102B500000229B5E162BEADD1423FB1800229B5EED
:102B6000D72BE4DC1423FB1802229B5EB92BDEDD9D
:102B70001423FB1802229A5E84235B009A4233DD01
:102B8000D5E7C046D3E7002200216E20FDF76AFB9F
:102B90001B4B180004F07EFC03005A1E9341DBB26D
:102BA000002BF5D00C23FB181800FEF7CFFB0C23ED
:102BB000FB1800229B5E162B13DD0C23FB18002252
:102BC0009B5ED72B0DDC0C23FB1802229B5EB92BDE
:102BD00007DD0C23FB1802229A5E84235B009A42D5
:102BE00003DDC046D4E712E7C046064A064B110093
:102BF000180000F0B5FBC046BD4609B090BDC04608
:102C00002003002028350100940E002080B500AF7D
:102C100096239A011B4B1100180000F00BFF1A4B72
:102C20000021180004F04EFF184B8021180004F01A
:102C3000EFFB03001A0001235340DBB2002B0CD042
:102C4000134A104B1100180000F05EFB114A0D4BA7
:102C50001100180000F058FBFEE70F4B042118008C
:102C600006F02AF903001A0001235340DBB2002BBF
:102C700005D00A4A034B1100180000F045FBC0467E
:102C8000BD4680BD940E0020BC0200202003002021
:102C90003C3501006C350100F4080020903501003E
:102CA00090B58FB000AF3723FB1801221A700022B5
:102CB00000216C20FDF7D6FA3723FB18197824235E
:102CC000FB180A22180004F0FBF93523FC18242312
:102CD000FB180021180004F065FB03002370352366
:102CE000FB181B787322AD211800FDF7BBFA7C4B53
:102CF000180004F0CFFB03005A1E9341DBB2002BF7
:102D000000D1CEE01C23FB181800FEF71FFB1C238C
:102D1000FB1800229B5E142B18DD1C23FB180022DD
:102D20009B5EDB2B12DC1C23FB1802229B5EF02B2C
:102D30000CDD1C23FB1802229A5E9D235B009A4245
:102D400004DC3623FB1801221A70A4E01C23FB18B4
:102D500000229B5E142B16DD1C23FB1800229B5EB9
:102D6000DB2B10DC1C23FB1802229B5EAA2B0ADD46
:102D70001C23FB1802229B5EF02B04DC3623FB187D
:102D800000221A7087E01C23FB1800229B5E692B2F
:102D90003FDD1C23FB1800229B5EB42B39DC1C2377
:102DA000FB1802229B5E5A2B33DD1C23FB180222E8
:102DB0009B5EAA2B2DDC3723FB181B78012B00D13F
:102DC00071E03723FB183722BA181278023A1A70CA
:102DD0003723FB1819781023FB180A22180004F077
:102DE0006FF93423FC181023FB180021180004F09D
:102DF000D9FA030023703423FB181B787322AD210A
:102E00001800FDF72FFA1023FB18180004F09CF9A6
:102E100049E01C23FB1800229B5EB42B45DD1C23DC
:102E2000FB1800229B5EF02B3FDC1C23FB180222C8
:102E30009B5E5A2B39DD1C23FB1802229B5EAA2BBA
:102E400033DC3723FB181B78092B30D03723FB18D2
:102E50003722BA18127802321A703723FB18197801
:102E60003B1D0A22180004F02BF93323FC183B1DEC
:102E70000021180004F096FA030023703323FB1896
:102E80001B787322AD211800FDF7ECF93B1D1800EB
:102E900004F05AF90BE03623FB181B78002B08D1FD
:102EA0000EE0C04623E7C04621E7C0461FE7C04604
:102EB0001DE73723FB181B781800FFF77FFD05E09F
:102EC0003723FB181B781800FFF750FC2423FB184E
:102ED000180004F039F9C046BD460FB090BDC04699
:102EE0002003002080B582B000AF786039607B6835
:102EF000012B0ED13B68094A93420AD101235B4260
:102F0000074809220A2104F047FD064B180004F087
:102F100072FAC046BD4602B080BDC046FFFF000049
:102F2000BC0200202003002080B500AF034B190035
:102F30000120FFF7D7FFBD4680BDC046FFFF000060
:102F400080B500AF03BEFEE780B582B000AF1A4B7C
:102F50007B601A4B3B60194A194B9A4212D07A682F
:102F60003B689A420ED009E07B681A683B681A6099
:102F70003B6804333B607B6804337B603A68104BEA
:102F80009A42F1D30D4A0E4B9A4210D07A683B68B0
:102F90009A420CD00B4B3B6005E03B6800221A6064
:102FA0003B6804333B603A68074B9A42F5D300F024
:102FB00009FB00F075F8FEE7BC46010000000020A8
:102FC000A0020020A0020020880F002080B500AFE2
:102FD00000F05BF8031E02D100F044F800E0C046A8
:102FE000BD4680BD80B500AF044B1B68002B02D0EE
:102FF000024B1B689847C046BD4680BD3003002089
:1030000080B582B000AF7860034B7A681A60C04622
:10301000BD4602B080BDC0463003002080B500AF81
:10302000024B1B681800BD4680BDC046340300201B
:1030300080B584B000AF78607B68002B0CD0084B63
:103040001B68FB6000F01CF8054B1A68FB68D21A7D
:103050007B689A42F6D300E0C046BD4604B080BD0E
:103060003403002080B500AF044B1B685A1C034B8F
:103070001A6000F08DFAC046BD4680BD34030020C2
:1030800080B500AFC046BD4680BD80B500AF00230F
:103090001800BD4680BD80B500AFC046BD4680BDAE
:1030A00080B500AF03F0F0FB0DF06CFCFFF7F3FF11
:1030B0000120FFF7BDFF094B180002F0A1FB074BF1
:1030C000180002F037FCFFF7A1FDFFF7E9FD044B04
:1030D000002BFAD000E000BFF7E7C046F008002060
:1030E0000000000090B583B000AF786039603B68A5
:1030F000002B01D100230DE07B681B6804331C68A2
:103100003B6818000EF036FB020039687B68180037
:10311000A04703001800BD4603B090BD80B582B043
:1031200000AF786000231800BD4602B080BD80B5B6
:1031300082B000AF7860C046BD4602B080BD80B5A9
:1031400086B000AFF860B9607A6000237B617B686D
:103150005A1E7A605A1E9341DBB2002B14D0FB68D2
:103160001B681A68BB68591CB9601978FB6818009D
:10317000904703005A1E9341DBB2002B03D07B69BA
:1031800001337B61E3E7C0467B691800BD4606B0AA
:1031900080BD80B582B000AF786039603A687B68E6
:1031A0001100180000F005F803001800BD4602B039
:1031B00080BD80B582B000AF786039603A687B68C6
:1031C00011001800FFF78EFF03001800BD4602B083
:1031D00080BD80B582B000AF78600A00FB1C1A7019
:1031E0007B681B681B68FA1C11787A681000984786
:1031F00003001800BD4602B080BD80B584B000AFAA
:10320000F8607A600B23FB180A1C1A700B23FB185A
:1032100019787A68FB68180000F057F80300180066
:10322000BD4604B080BD80B584B000AFF860B96021
:103230007A607A68B968FB68180000F005F8030046
:103240001800BD4604B080BD80B586B000AFF86000
:10325000B9607A607B68002B09D1FB681B681B682A
:10326000BA68D1B2FA6810009847030029E07B6879
:103270000A2B1ED1BB68002B13DAFB682D21180026
:10328000FFF7A7FF03007B61BB685B42BB60B968C7
:10329000FB680A22180000F0F0F802007B69D318DE
:1032A0000FE0B968FB680A22180000F0E6F8030096
:1032B00007E0B9687B68DAB2FB68180000F0DDF857
:1032C00003001800BD4606B080BD80B584B000AFD5
:1032D000F860B9607A607B68002B09D1FB681B68D5
:1032E0001B68BA68D1B2FA6810009847030007E07B
:1032F0007B68DAB2B968FB68180000F0BEF803001A
:103300001800BD4604B080BD80B584B000AF7860C1
:1033100039603A687B6811001800FFF73AFF030034
:10332000FB607B68180000F009F80200FB689B183E
:10333000FB60FB681800BD4604B080BD80B582B05C
:1033400000AF7860054A7B6811001800FFF7CAFEDD
:1033500003001800BD4602B080BDC046B035010074
:1033600080B584B000AF786039603A687B6811003E
:103370001800FFF71EFF0300FB607B681800FFF7D3
:10338000DDFF0200FB689B18FB60FB681800BD4670
:1033900004B080BD80B584B000AF78600A00FB1C2B
:1033A0001A70FB1C1A787B6811001800FFF711FFD8
:1033B0000300FB607B681800FFF7C0FF0200FB689A
:1033C0009B18FB60FB681800BD4604B080BD80B54B
:1033D00086B000AFF8607A600B23FB180A1C1A70E5
:1033E0007A680B23FB181978FB681800FFF705FFB4
:1033F00003007B61FB681800FFF7A0FF02007B69F8
:103400009B187B617B691800BD4606B080BD80B506
:1034100086B000AFF860B9607A607A68B968FB6816
:103420001800FFF700FF03007B61FB681800FFF73F
:1034300085FF02007B699B187B617B691800BD4694
:1034400006B080BD80B586B000AFF860B9607A6024
:103450007A68B968FB681800FFF737FF03007B61E3
:10346000FB681800FFF76AFF02007B699B187B610D
:103470007B691800BD4606B080BD80B58EB000AF38
:10348000F860B960FB1D1A701023FB1820337B63B2
:103490007B6B00221A70FB1D1B78012B02DCFB1DCD
:1034A0000A221A70FB1D1A78BB68110018000BF075
:1034B0007BFB0B001A003323FB181A70FB1D1B78D3
:1034C0001900B8680BF0EAFA0300BB607B6B013BA4
:1034D0007B633323FB181B78092B05DC3323FB1894
:1034E0001B783033DBB204E03323FB181B7837330F
:1034F000DBB27A6B1370BB68002B04D0FB1DFA1D86
:1035000012781A70CEE77A6BFB6811001800FFF78B
:10351000E9FD03001800BD460EB080BD80B500AFC8
:10352000BFF34F8F034B044ADA60BFF34F8FC0469F
:10353000FDE7C04600ED00E00400FA0580B500AFED
:10354000054B1B7DDBB21A00012313405A1E934129
:10355000DBB21800BD4680BD0040004180B582B09E
:1035600000AF7860034B7A681A60C046BD4602B06F
:1035700080BDC0461C00002080B500AF034B012277
:1035800052421A60C046BD4680BDC0461C000020A5
:1035900080B500AF094B1B6801330BD0074B1B688C
:1035A0005A1E064B1A60054B1B68002B03D1044BB7
:1035B000984700E0C046BD4680BDC0461C000020C4
:1035C0004946010080B582B000AF754A53681E219C
:1035D0008B4302210B435360724B724A926908215C
:1035E0000A439A61704B714A9A826F4A938A022108
:1035F0000B439382C0466C4BDB6802221340FAD027
:103600006B4B01221A70C046694B1B78DBB21A0063
:103610000123134005D0664B5B78DBB25BB2002B15
:10362000F2DB634B01229A60C046614B5B78DBB2F0
:103630005BB2002BF9DB5E4B5E4A5A60C0465C4BC6
:103640005B78DBB25BB2002BF9DB594B8222D201F3
:103650005A80C046564B5B78DBB25BB2002BF9DB7D
:10366000514B02229A84C0464F4BDB681022134014
:10367000FAD04D4B504ADA62C0464B4BDB68102201
:103680001340FAD0484A484B9B8C9BB24B490B43A2
:103690009BB29384C046444BDB6810221340FAD09F
:1036A000414A414B9B8C9BB202210B439BB29384BA
:1036B000C0463D4BDB6880221340FAD03A4BDB68B2
:1036C00040221340F5D0C046374BDB681022134030
:1036D000FAD0374B00229A60C046354B5B78DBB29C
:1036E0005BB2002BF9DB324B354A5A60C046304B97
:1036F0005B78DBB25BB2002BF9DB2B4A136A3149F2
:103700000B401362284A136A80218B431362284BB3
:1037100003229A60264B2C4A5A60C046244B5B78A1
:10372000DBB25BB2002BF9DB1E4B00221A721D4B81
:1037300000225A721B4B00229A721A4B0022DA7234
:10374000224B234A1A60234B1B68DB0807221340D5
:103750007B60214B1B68DB0E3B601E4B1B685B01D3
:10376000FF2213403A6813433B601C497B689BB2BD
:103770001B029AB2E023DB0013409AB23B689BB273
:10378000FF2003409BB213439BB20B85044A53684E
:1037900080210B435360C046BD4602B080BDC04689
:1037A0000040004100040040000800400C060000FA
:1037B000000C004001050100B905FF7D040A00006E
:1037C00000070300FFFCFFFF030601004800002084
:1037D000006CDC0224608000206080000040004219
:1037E00080B582B000AF7860054A7B681A607B685C
:1037F00000225A607B681800BD4602B080BDC046FA
:10380000C835010080B582B000AF78607B681800D1
:10381000FFF7E6FF054A7B681A607B68FA22920090
:103820009A607B681800BD4602B080BD5836010022
:1038300080B582B000AF78607B681800FFF7E2FFC8
:10384000034A7B681A607B681800BD4602B080BDE1
:103850001C36010080B582B000AF7860034A7B68F7
:103860001A607B681800BD4602B080BD1C3601009E
:1038700080B582B000AF78607B681800FFF7EAFF80
:103880007B6818000AF03BF87B681800BD4602B060
:1038900080BD80B582B000AF78603960C046BD465B
:1038A00002B080BD80B584B000AFF860B960BB1DC8
:1038B0001A80C046BD4604B080BD80B582B000AF5E
:1038C0007860C046BD4602B080BD000080B582B0C1
:1038D00000AF0200FB1D1A70FB1D1B787F2B13D855
:1038E000174AFB1D1B785BB29B08C0339B009A589C
:1038F000FB1D1B785BB203210B40DB00DA40130099
:103900009B090322134017E00E4AFB1D1B785BB294
:103910000F210B40083B9B0806339B00D318043350
:103920001A68FB1D1B785BB203210B40DB00DA40F9
:1039300013009B09032213401800BD4602B080BD4E
:1039400000E100E000ED00E080B582B000AF7860FB
:1039500001231800BD4602B080BD90B589B004AF08
:10396000F860B9601900FB1D1A70BB1D0A1C1A70A3
:10397000BB1D1C78FB1D1A78B968F868FF230393F8
:10398000FF2302932423FB181B7801932023FB18A9
:103990001B780093230000F005F8FB681800BD4673
:1039A00005B090BD80B584B000AFF860B960190073
:1039B000FB1D1A70BB1D0A1C1A70FB681800FFF76C
:1039C00037FF1B4AFB681A60FB681433180000F0CD
:1039D000D6FAFB685C33180000F0D1FAFB68BA68CD
:1039E0001A61FB68FA1DA42112785A54FB68BA1DAB
:1039F000A52112785A54FB681822BA18A621127809
:103A00005A54FB681C22BA18A72112785A54FB6832
:103A10002022BA18A82112785A54FB682422BA1816
:103A2000B82112785A54FB681800BD4604B080BD16
:103A3000E035010080B582B000AF786039607B6806
:103A40001B6828331B68044A396878689847C04661
:103A5000BD4602B080BDC04613040000F0B589B079
:103A600002AFF860B960BB1D1A80FB68A4229B5CA2
:103A70001800FB68A4229B5C1900614A0B005B00E4
:103A80005B18DB00D31808331B785BB2190003F016
:103A900087F9FB68A5229B5C1800FB68A5229B5C4C
:103AA0001900574A0B005B005B18DB00D318083382
:103AB0001B785BB2190003F073F9FB68A7229B5CCB
:103AC000022B18D1FB68B8229B5CFF2B13D0FB683C
:103AD000B8229B5C1800FB68B8229B5C1900484A1E
:103AE0000B005B005B18DB00D31808331B785BB25C
:103AF000190003F055F9FB68A8229B5CFF2B41D00D
:103B0000FB68A8229B5C0121180002F0ADFFFB6856
:103B1000A8229B5C18001723FA18394903005B00A0
:103B20001B18DB005B5C13701723FB181B785BB260
:103B3000DB011833334A9A18FB68AC215A5017231B
:103B4000FB181B785BB2DB0114332E4A9A18FB6812
:103B5000B0215A50FB68A8229B5C1900284A0B0030
:103B60005B005B18DB00D31804331B6801229A400A
:103B7000FB68B4215A50FB68B0229B58FA68B42104
:103B800052581A60FB681869BB680122012109F0CC
:103B900059FFFB681C69BB1D1A88FB6811001800DF
:103BA00000F0B2F903001D00BB1D1A88FB6811006C
:103BB000180000F0CCF903001E00BB1D1A88FB683A
:103BC0001100180000F08CF903000093330001226B
:103BD0002900200009F0AAFFFB681869FB68A722EA
:103BE000995CFB68A6229B5C1A0009F0E3FFFB6866
:103BF0001B6918000AF031F8C046BD4607B0F0BD99
:103C0000CC3801000044004180B582B000AF78603C
:103C10007B681B69180009F0FCFF7B6814331800EF
:103C200000F0C0F97B685C33180000F0BBF9C046B7
:103C3000BD4602B080BD80B582B000AF78607B68C1
:103C40005C33180000F0BCF903005A1E9341DBB24C
:103C5000002B00D0F3E77B681B6918000AF014F80A
:103C6000C046BD4602B080BD90B585B000AF78605B
:103C70007B681B6918000AF02DF8031E27D07B68AB
:103C800014331C007B681B6918000AF05CF8030001
:103C90001900200000F0A9F97B68A8229B5CFF2B8B
:103CA00015D07B681433180000F0C5F90200092311
:103CB000D00FD917934248410300DBB2002B06D046
:103CC0007B68AC229B587A68B42152581A607B6892
:103CD0001B6918000AF029F8031E22D07B685C33A8
:103CE000180000F06DF903005A1E9341DBB2002B5F
:103CF00012D07B685C33180000F0BFF902000F237C
:103D0000FB181A707B681A690F23FB181B781900BF
:103D100010000AF027F804E07B681B6918000AF01D
:103D20004BF87B681B69180009F0E2FF031E09D0FD
:103D30007B681B69180009F0E9FF7B681B691800A4
:103D400009F0BCFFC046BD4605B090BD80B582B04D
:103D500000AF78607B681433180000F031F903007D
:103D60001800BD4602B080BD80B582B000AF78605B
:103D70007B685C33180000F05EF903001800BD4654
:103D800002B080BD80B582B000AF78607B6814332C
:103D9000180000F09BF903001800BD4602B080BD7A
:103DA00080B584B000AF78607B681433180000F0F1
:103DB00064F90300FB607B68A8229B5CFF2B14D096
:103DC0007B681433180000F036F9030001220A2B37
:103DD00001DC00231A1CD3B2002B06D07B68B02272
:103DE0009B587A68B42152581A60FB681800BD4687
:103DF00004B080BD80B586B000AF78600A00FB1CBF
:103E00001A707B681B69180009F08FFF031E08D029
:103E10007B685C33180000F0D3F8031E01D1012346
:103E200000E00023002B08D07B681A69FB1C1B787C
:103E30001900100009F096FF4BE07B685C33180016
:103E400000F05DF9031E36D0EFF31083FB60FB68D2
:103E5000012213405A425341DAB21723FB181A7059
:103E60001723FB181B78002B17D01C4B5B68DB0556
:103E7000DB0D3B613B69002B0AD03B69DBB2103B99
:103E8000DBB25BB21800FFF721FD0300032B01D961
:103E9000012300E00023002B0BD17B681B69180075
:103EA00009F043FF031EC8D07B681800FFF7DCFE53
:103EB000C3E7C046C1E77B685C331A00FB1C1B7874
:103EC0001900100000F091F87B681B69180009F0D8
:103ED00067FF01231800BD4606B080BD00ED00E07D
:103EE00080B582B000AF78600A00BB1C1A80BB1C92
:103EF0001B88F0221340302B01D0002300E0012367
:103F00001800BD4602B080BD80B582B000AF7860B9
:103F10000A00BB1C1A80BB1C1A88F0231B0113402B
:103F200080229200934209D0C0229200934207D08F
:103F300080225200934205D1052304E0062302E0CB
:103F4000072300E000231800BD4602B080BD80B505
:103F500082B000AF78600A00BB1C1A80BB1C1B88B3
:103F60000F221340012B03D0022B03D0022302E0C7
:103F7000002300E001231800BD4602B080BD80B5DB
:103F800082B000AF78607B684022002118000CF0FE
:103F90005BFD7B68180000F005F87B681800BD46E3
:103FA00002B080BD80B582B000AF78607B6800222F
:103FB0001A647B6800225A64C046BD4602B080BDC8
:103FC00080B584B000AF78607B681A6C7B685B6CEE
:103FD000D31AFB60FB68002B02DAFB68403300E079
:103FE000FB681800BD4604B080BD80B584B000AF4A
:103FF00078600A00FB1C1A707B681A6C7B681100E1
:10400000180000F092F80300FB607B685A6CFB68B4
:10401000D31A5A1E9341DBB2002B08D07B681B6C6D
:104020007A68F91C0978D1547B68FA681A64C0462A
:10403000BD4604B080BD80B582B000AF78607B68BB
:104040001A6C7B685B6CD017D90F9A424841030009
:10405000DBB2002B07D07B681B6C3F22D21A7B6837
:104060005B6CD31805E07B685A6C7B681B6CD31AB9
:10407000013B1800BD4602B080BD80B584B000AFE2
:1040800078607B685A6C7B681B6CD31A5A42534128
:10409000DBB2002B02D001235B4213E07B685A6C39
:1040A0000F23FB1879688A5C1A707B685A6C7B68EE
:1040B0001100180000F039F802007B685A640F23E1
:1040C000FB181B781800BD4604B080BD80B582B0D7
:1040D00000AF78607B685A6C7B681B6CD31A5A42BD
:1040E0005341DBB2002B02D001235B4203E07B682B
:1040F0005B6C7A68D35C1800BD4602B080BD80B5A9
:1041000082B000AF78607B681A6C7B681100180081
:1041100000F00BF802007B685B6CD31A5A425341E3
:10412000DBB21800BD4602B080BD80B582B000AFE2
:10413000786039603B6801333F2213401800BD4668
:1041400002B080BD80B582B000AF7860054A7B6860
:104150001A607B681800FFF77DFB7B681800BD467E
:1041600002B080BDE035010080B582B000AF78605C
:104170007B681800FFF7E6FF7B68180009F0BFFBBB
:104180007B681800BD4602B080BD000080B582B0DB
:1041900000AF0200FB1D1A70FB1D1B787F2B09D896
:1041A000064BFA1D127852B21F210A40012191409C
:1041B0000A001A60C046BD4602B080BD00E100E0C2
:1041C000B0B582B000AF02003960FB1D1A70FB1D54
:1041D0001B787F2B28D82F4CFB1D1B785BB29B08CC
:1041E0002C49FA1D127852B29208C03292005258ED
:1041F000F91D097849B203200140C900FF20884019
:104200000100C94311403A689201FF201040FA1D95
:10421000127852B203252A40D200904002000A438D
:10422000C0339B001A5131E01B4CFB1D1B785BB265
:104230000F221340083B9908174AFB1D1B785BB2FD
:104240000F200340083B9B0806339B00D318043320
:104250001B68FA1D127852B203200240D200FF20E0
:1042600090400200D2431A403B689B01FF20184057
:10427000FB1D1B785BB203252B40DB00984003003D
:104280001A438B1D9B00E31804331A60C046BD46D9
:1042900002B0B0BD00E100E000ED00E080B582B00A
:1042A00000AF78607B681800BD4602B080BD80B565
:1042B00082B000AF78607B681800BD4602B080BD58
:1042C000B0B582B000AF78607B6801241D00002C7F
:1042D00005DB2800FFF7EBFF1035013CF7E77B68B3
:1042E0001800BD4602B0B0BDB0B582B000AF786076
:1042F0007B68094A1A607B68043307241D00002C80
:1043000005DB2800FFF7DCFF2035013CF7E77B6881
:104310001800BD4602B0B0BD0050004180B582B06B
:1043200000AF78607B681A68137802210B43137022
:10433000C046BD4602B080BD80B582B000AF786097
:104340007B681A6813787F210B401370C046BD4606
:1043500002B080BD80B582B000AF78607B681A681B
:10436000137804210B431370C046BD4602B080BDD4
:1043700080B582B000AF78607B681A6813890C2121
:104380008B431381C046BD4602B080BD80B582B06C
:1043900000AF78607B681A68138901218B43138111
:1043A000C046BD4602B080BD80B582B000AF786027
:1043B0007B681B689B8B1B07DB0FDBB21800BD46BD
:1043C00002B080BD80B582B000AF78607B681B68AA
:1043D00008229A83C046BD4602B080BD80B582B037
:1043E00000AF78607B681A68138B08210B43138336
:1043F000C046BD4602B080BD80B582B000AF7860D7
:104400007B681B689B8B5B07DB0FDBB21800BD462C
:1044100002B080BD80B582B000AF78607B681B6859
:1044200004229A83C046BD4602B080BD80B582B0EA
:1044300000AF78607B681A68138B04210B431383E9
:10444000C046BD4602B080BD90B583B000AF786075
:1044500008001100FB1C021C1A70BB1C0A1C1A70FD
:104460007B681A68FB1C1B78B91C0978072001407F
:10447000C8B2083359018B5C0724044007208343EA
:10448000181C231C03438B54C046BD4603B090BD8B
:1044900090B583B000AF786008001100FB1C021CCF
:1044A0001A70BB1C0A1C1A707B681A68FB1C1B78EC
:1044B000B91C097807200140C8B2083359018B5C48
:1044C00007242040040170208343181C231C03434D
:1044D0008B54C046BD4603B090BD80B582B000AFDE
:1044E00078607B681B681B8C9BB21800BD4602B0CD
:1044F00080BD80B582B000AF78600A00FB1C1A70E6
:104500007B681A68FB1C1B7808335B01D318DB79C6
:10451000DB06DB0FDBB21800BD4602B080BD80B504
:1045200082B000AF78600A00FB1C1A707B681A68C2
:10453000FB1C1B7808335B01D318DB795B06DB0FB0
:10454000DBB21800BD4602B080BD80B582B000AFBE
:1045500078600A00FB1C1A707B681A68FB1C1B78C9
:1045600008335B01D318DB79DB07DB0FDBB2180004
:10457000BD4602B080BD80B582B000AF78600A0051
:10458000FB1C1A707B681A68FB1C1B7808335B01E4
:10459000D318DB799B07DB0FDBB21800BD4602B0F6
:1045A00080BD80B582B000AF78600A00FB1C1A7035
:1045B0007B681A68FB1C1B7808335B01D318073330
:1045C00010221A70C046BD4602B080BD80B582B0D0
:1045D00000AF78600A00FB1C1A707B681A68FB1C2D
:1045E0001B7808335B01D318073340221A70C0468A
:1045F000BD4602B080BD80B582B000AF78600A00D1
:10460000FB1C1A707B681A68FB1C1B7808335B0163
:10461000D318073301221A70C046BD4602B080BDD0
:1046200080B582B000AF78600A00FB1C1A707B680E
:104630001A68FB1C1B7808335B01D318073302226E
:104640001A70C046BD4602B080BD80B582B000AFD2
:1046500078600A00FB1C1A707B681968FB1C1A78CA
:1046600084235B0052018A18D218537810210B431F
:104670005370C046BD4602B080BD80B582B000AF69
:1046800078600A00FB1C1A707B681968FB1C1A789A
:1046900084235B0052018A18D218537801210B43FE
:1046A0005370C046BD4602B080BD80B582B000AF39
:1046B00078600A00FB1C1A707B681968FB1C1A786A
:1046C00084235B0052018A18D218537802210B43CD
:1046D0005370C046BD4602B080BD80B582B000AF09
:1046E00078600A00FB1C1A707B681968FB1C1A783A
:1046F00084235B0052018A18D218137840210B439F
:104700001370C046BD4602B080BD80B582B000AF18
:1047100078600A00FB1C1A707B681968FB1C1A7809
:1047200084235B0052018A18D218137801210B43AD
:104730001370C046BD4602B080BD80B582B000AFE8
:1047400078600A00FB1C1A707B681A68FB1C1B78D7
:1047500008335B01D3189B795B06DB0FDBB21800D3
:10476000BD4602B080BD80B582B000AF78600A005F
:10477000FB1C1A707B681A68FB1C1B7808335B01F2
:10478000D3189B791B06DB0FDBB21800BD4602B0C5
:1047900080BD80B582B000AF78600A00FB1C1A7043
:1047A0007B681A68FB1C1B7808335B01D2185379AD
:1047B00040210B435371C046BD4602B080BD80B559
:1047C00082B000AF78600A00FB1C1A707B681A6820
:1047D000FB1C1B7808335B01D218537980214942B6
:1047E0000B435371C046BD4602B080BD80B582B058
:1047F00000AF78600A00FB1C1A707B681A68FB1C0B
:104800001B7808335B01D218137940210B431371D5
:10481000C046BD4602B080BD80B582B000AF7860B2
:104820000A00FB1C1A707B681A68FB1C1B78083393
:104830005B01D2181379802149420B431371C046A2
:10484000BD4602B080BD80B582B000AF78600A007E
:10485000FB1C1A70FB1C1B787A685B01D3189B68E1
:104860009B049B0C9BB21800BD4602B080BD80B576
:1048700082B000AF786008001100FB1C021C1A70A7
:104880003B000A1C1A80FB1C1B783A001288920419
:10489000920C91B27A685B01D3189A688904890CEA
:1048A000920B92030A439A60C046BD4602B080BD97
:1048B00080B582B000AF786008001100FB1C021CBC
:1048C0001A703B000A1C1A80FB1C1B783A001288E5
:1048D0009204920C91B27A685B01D31810339A68F3
:1048E0008904890C920B92030A439A60C046BD4624
:1048F00002B080BD80B582B000AF786008001100C2
:10490000FB1C021C1A703B000A1C1A80FB1C1B7843
:104910003A0012889204920C91B27A685B01D31823
:104920009A688904890C8903034802400A439A6003
:10493000C046BD4602B080BDFF3F00F080B582B0EA
:1049400000AF786008001100FB1C021C1A703B00CD
:104950000A1C1A80FB1C1B783A0012889204920CE5
:1049600091B27A685B01D31810339A688904890C74
:104970008903044802400A439A60C046BD4602B01B
:1049800080BDC046FF3F00F080B584B000AFF86046
:104990007A600B23FB180A1C1A700B23FB181B7878
:1049A0007A68F9685B01CB1804331A60C046BD46CB
:1049B00004B080BD80B584B000AFF8607A600B238E
:1049C000FB180A1C1A700B23FB181B787A68F9680D
:1049D0005B01CB1814331A60C046BD4604B080BDDD
:1049E00090B583B000AF786008001100FB1C021C7A
:1049F0001A703B000A1C1A80FB1C1C783B001A88AA
:104A00007B681100180000F043F803001A1C07230C
:104A10001340D9B27A686301D3189A68072001401D
:104A20000907044802400A439A60C046BD4603B0E5
:104A300090BDC046FFFFFF8F90B583B000AF786098
:104A400008001100FB1C021C1A703B000A1C1A8093
:104A5000FB1C1C783B001A887B681100180000F0D2
:104A600017F803001A1C07231340D9B27A686301B0
:104A7000D31810339A680720014009070348024001
:104A80000A439A60C046BD4603B090BDFFFFFF8F4A
:104A900080B582B000AF78600A00BB1C1A80BB1CD6
:104AA0001B88402B20D006DC102B19D0202B19D0CE
:104AB000082B13D022E080225200934218D080228B
:104AC0005200934202DC802B10D017E0802292002B
:104AD00093420FD00C4A93420ED00FE000230EE019
:104AE00001230CE002230AE0032308E0042306E08C
:104AF000052304E0062302E0072300E0002318005A
:104B0000BD4602B080BDC046FF03000080B582B044
:104B100000AF78607B681A68137801210B4313702B
:104B20007B68181D80235B001A0000210BF08CFFAE
:104B30007B681B689B78DB07DB0FDBB2002B00D0A8
:104B4000F6E77B681B687A6804325A62C046BD4645
:104B500002B080BD80B588B000AF7860314B3B615A
:104B6000304BFB602F4BBB603B691B685B0B1F220C
:104B70001340FB61FB681B689B0C1F221340BB6149
:104B8000BB681B68DB0D072213407B61FB691F2B91
:104B900001D10523FB61BB691F2B01D11D23BB6123
:104BA0007B69072B01D103237B617B681A68FB6952
:104BB000DBB2191C1F230B40D9B2138D081C1F2117
:104BC0000140880118490B40191C031C0B43138535
:104BD0007B681A68BB69DBB2191C1F230B40D9B272
:104BE000138D081C1F2108401F218B43191C031C17
:104BF0000B4313857B681A687B69DBB2191C07239A
:104C00000B40D9B2138D081C072101400803074946
:104C10000B40191C031C0B431385C046BD4608B04E
:104C200080BDC046246080003FF8FFFFFF8FFFFF7C
:104C300080B584B000AF7860EFF31083FB60FA6852
:104C40007B681A607B6801225A6072B67B68180024
:104C5000BD4604B080BD80B582B000AF78607B688F
:104C60001B68002B02D162B6BFF36F8F7B68180000
:104C7000BD4602B080BD80B582B000AF78607B6871
:104C80005A68511E7B68596013001800BD4602B077
:104C900080BD000080B582B000AF7860034A7B68B9
:104CA0001A607B681800BD4602B080BD083701005D
:104CB00080B584B000AFF860B9607A603B60FB6893
:104CC0001800FFF7E7FF304AFB681A60FB68BA6814
:104CD0005A60FB687A689A60FB683A68DA60FB6839
:104CE00000221A61FB6800225A61FB680022DA6127
:104CF000FB6800221A62FB68242200219954FB6899
:104D00000022DA62FB6800221A63FB683422002169
:104D10009954FB68352200219954FB68DB68180020
:104D20000BF054FE03001A00FB689A61FB68DB6815
:104D300018000BF04BFE03001A00FB689A62FB6838
:104D40005868FB689B68DBB240221900FFF748FEF9
:104D5000FB685868FB689B68DBB203221900FFF709
:104D600073FBFB685868FB689B68D9B2FB689B695A
:104D70001A00FFF709FEFB68180000F047FAFB680D
:104D80001800BD4604B080BDF4360100B0B590B047
:104D900000AFF860B9607A60BB687B63FB681B6931
:104DA000002B00D082E02C23FB181800FFF740FFF7
:104DB0002C23FB181800FFF75EFF03005A1E9341D7
:104DC000DBB2002B0BD0FB6824229B5CDBB2012200
:104DD0005340DBB2002BEBD00024002500E001257E
:104DE0002C23FB181800FFF736FF012D00D0DEE062
:104DF000C0460023FB63FA6B7B689A4207D2FB68CC
:104E0000DA69FB681B6A9A4201D2012300E00023A1
:104E1000002B11D07A6BFB6BD118FB689869FB688B
:104E2000DB695C1CFA68D461C3181B78DBB20B70B9
:104E3000FB6B0133FB63DEE7FB68DA69FB681B6A27
:104E4000D31A5A425341DBB2002B2DD0FB6800220B
:104E5000DA61FB6801221A612423FB181800FFF7AE
:104E6000E7FE2423FB181800FFF705FF03005A1E76
:104E70009341DBB2002B12D0FB682422002199540D
:104E8000FB6835229B5CDBB2002BEAD0FB68352245
:104E900000219954FB68180000F0B8F9E1E72423D9
:104EA000FB181800FFF7D7FEFC6B80E01C23FB18F3
:104EB0001800FFF7BDFE1C23FB181800FFF7DBFEF0
:104EC00003005A1E9341DBB2002B0BD0FB68342247
:104ED0009B5CDBB201225340DBB2002BEBD0002401
:104EE000002500E001251C23FB181800FFF7B3FE86
:104EF000012D5CD1C0460023BB63BA6B7B689A422C
:104F000007D2FB68DA6AFB681B6B9A4201D2012365
:104F100000E00023002B11D07A6BBB6BD118FB682B
:104F2000986AFB68DB6A5C1CFA68D462C3181B7859
:104F3000DBB20B70BB6B0133BB63DEE7FB68DA6A85
:104F4000FB681B6BD31A5A425341DBB2002B2DD0A6
:104F5000FB680022DA62FB6800221A611423FB1846
:104F60001800FFF765FE1423FB181800FFF783FEF7
:104F700003005A1E9341DBB2002B12D0FB6834228F
:104F800000219954FB6835229B5CDBB2002BEAD0F0
:104F9000FB68352200219954FB68180000F036F9AF
:104FA000E1E71423FB181800FFF755FEBC6B230044
:104FB0001800BD4610B0B0BD90B587B000AF7860A6
:104FC0007B685A687B689B68DBB219001000FFF7AA
:104FD000BCFA031E00D1B0E07B685A687B689B680E
:104FE000DBB219001000FFF706FB7B685B69002B42
:104FF0004FD17B685A687B689B68DBB21900100050
:10500000FFF721FC03001A007B681A627B681B6AA9
:105010005A1E9341DBB2002B00D18AE07B6801224B
:105020005A617B6858687B689B68D9B27B689B6AC9
:105030001A00FFF7A9FC1023FB181800FFF7F8FD72
:105040001023FB181800FFF716FE03005A1E9341A9
:10505000DBB2002B14D07B682422012199547B6899
:1050600034229B5CDBB2002B05D07B68352201210A
:105070009954002405E07B68352200219954DFE72C
:1050800001241023FB181800FFF7E5FD012C4FD079
:1050900053E07B685A687B689B68DBB2190010009C
:1050A000FFF7D1FB03001A007B681A637B681B6B58
:1050B0005A1E9341DBB2002B3BD07B6800225A6121
:1050C0007B6858687B689B68D9B27B689B691A00CB
:1050D000FFF75AFC0823FB181800FFF7A9FD082367
:1050E000FB181800FFF7C7FD03005A1E9341DBB2FF
:1050F000002B14D07B683422012199547B68242230
:105100009B5CDBB2002B05D07B68352201219954D2
:10511000002405E07B68352200219954DFE7012453
:105120000823FB181800FFF796FD012C05D100E0BD
:10513000C0467B68180000F069F8BD4607B090BD16
:1051400080B588B000AF78607B681B69002B2CD1DC
:105150001F23FB1800221A701423FB181800FFF7F6
:1051600067FD1423FB181800FFF785FD03005A1E86
:105170009341DBB2002B06D01F23FB187A68242151
:10518000525C1A70EDE71423FB181800FFF763FD5B
:105190001F23FB181B78002B05D07B681A6A7B68DD
:1051A000DB69D31A2EE000232CE01E23FB1800221B
:1051B0001A700C23FB181800FFF73AFD0C23FB189C
:1051C0001800FFF758FD03005A1E9341DBB2002B75
:1051D00006D01E23FB187A683421525C1A70EDE762
:1051E0000C23FB181800FFF736FD1E23FB181B7855
:1051F000002B05D07B681A6B7B68DB6AD31A00E052
:105200000023C0461800BD4608B080BD80B582B0FE
:1052100000AF78607B685A687B689B68DBB21900D6
:105220001000FFF72AFA7B6858687B689B68D9B240
:105230007B68DB689BB21A00FFF75CFB7B685868F1
:105240007B689B68DBB200221900FFF710FB7B68CC
:105250005A687B689B68DBB219001000FFF7C6FA3A
:10526000C046BD4602B080BD80B500AF034B1800FC
:1052700001F010F9C046BD4680BDC046F0080020D0
:10528000F0B58DB000AFF861B96111001722BA18FE
:1052900011706A463A611722BA181278012A01DCA5
:1052A000002392E01722BA181278013ABA6211006C
:1052B0000131B9600021F960B968490FF868C6008A
:1052C0000E43B968CD0011000131396000217960C9
:1052D0003D687E682900490F3000C4000C43290056
:1052E000CB00130001330733DB08DB006A46D31A17
:1052F0009D466B4600337B62BB6918000CF03AFA9E
:1053000003000133DBB2DB18DAB27B6A1A707B6A06
:1053100003225A701F2310229446BC446344022285
:105320001A701F2310229446BC4463441A78172332
:10533000FB181B789A4239DABB691B78002B35D0F1
:105340001F2310229446BC4463441B781F22102163
:105350008C46BC446244591C11701900BB695A1C2C
:10536000BA611A787B6A5A541F231022BA18D218CD
:105370001723FB1812781B789A4216D01F2310228D
:105380009446BC4463441B787A6A0021D1541F239D
:1053900010229446BC4463441A781F2310218C4683
:1053A000BC44634401321A70BBE7C046796A1F23CC
:1053B00010229446BC4463441A78074B180000F04E
:1053C0001DFF03005A1E9341DBB23A69954618004F
:1053D000BD460DB0F0BDC046F008002080B582B0DB
:1053E00000AF78600A00FB1C1A70FB1C1B78002BB6
:1053F00006D00B4B01221A700A4B00221A800AE0D9
:10540000074B00221A70074B1B881A0006497B685D
:10541000180000F0F3FEC046BD4602B080BDC04695
:10542000E5070020E6070020E807002080B584B0EB
:1054300000AF786039600F23FB1800221A700F2329
:10544000FB18180009F01CF902003B681B689A1849
:105450003B681A6009F0F2FA02000F23FB181900EA
:10546000100009F05BFA02003B681B689A183B6861
:105470001A600F23FB181B781800BD4604B080BDCE
:1054800090B589B000AF786039600023BB61324BC2
:1054900001221A701F23FC181823FA187B681100C8
:1054A0001800FFF7C3FF030023700C23FB1818003C
:1054B00009231A0000210BF0C7FA0C23FB1809225C
:1054C0001A700C23FB1802225A700C23FB180122BD
:1054D0005A710C23FB18A022DA710C23FB18FA2254
:1054E0001A72BB699BB209339AB20C23FB185A801B
:1054F0000C23FB181F22BA1812781A71164B0022BF
:105500001A703B68092B08D10C23F9187B68092213
:10551000180000F073FE01231AE00023BB617B68D2
:1055200001211800FFF75AFF0C23F9187B680922A4
:10553000180000F063FE1823FA187B6811001800A9
:10554000FFF774FF7B6800211800FFF747FF012376
:105550001800BD4609B090BDE407002080B584B0B6
:1055600000AF786039600023FB60FB68072B1DDC0F
:105570007B680F221340BB607B681B097B60FB6864
:105580000722D31A1A003B689A18BB68092B04DD5E
:10559000BB68DBB23733DBB203E0BB68DBB230336E
:1055A000DBB21370FB680133FB60DEE7C046BD462B
:1055B00004B080BD80B598B000AF786039605723E3
:1055C000FB183A68D2781A705F23FB1800221A7011
:1055D0000023BB655723FB181B78022B0CD13B68BB
:1055E000DB881A00674B11001800FFF749FF030022
:1055F0005A1E9341DBB2C1E009F020FA02003B6879
:105600001900100009F0B4F903003B653B6D002B55
:1056100005D03B6DDA17D31ADB0FDBB2AEE05723B0
:10562000FB181B78012B1ED13B68DB88082B03D1AC
:105630005E23FB1801221A705E23FB181B78002BD7
:1056400001D0514B00E0514BBB65BB6D1B781A007C
:105650003B68DB889A4200DC78E03B68DA885F23AD
:10566000FB181A7072E05723FB181B78032B00D02D
:105670006CE03B689B78002B09D1454BBB65BB6D4B
:105680001B781A003B68DB889A425FDD59E03B6873
:105690009B78022B09D13B68DB88DAB23D497B68F5
:1056A0001800FFF7EDFD030068E03B689B78012BD5
:1056B00009D13B68DB88DAB237497B681800FFF70D
:1056C000DFFD03005AE03B689B78032B37D1334B57
:1056D0001B680C22BA1811001800FFF73FFF304B6F
:1056E0001A680C23FB18083319001000FFF736FF67
:1056F0002C4B1A680C23FB18103319001000FFF70D
:105700002DFF294B1A680C23FB18183319001000C1
:10571000FFF724FF09F092F902000C23FB18203355
:105720001900100009F047F93B68DB88DAB20C2356
:10573000F9187B681800FFF7A3FD03001EE00023A3
:105740001CE03B68DA885F23FB181A70BB6D002BE6
:1057500001D1002312E05F23FB181B78002B04D13A
:105760005F23FB18BA6D12781A705F23FB181A7842
:10577000B96D7B68180000F041FD01231800BD469B
:1057800018B080BDF008002094360100A836010052
:105790007436010078360100883601000CA08000C4
:1057A00040A0800044A0800048A0800080B582B066
:1057B00000AF78600A00FB1C1A70FB1C1B78032BDF
:1057C00009D10E4B03211800FFF726F80B4B0321DC
:1057D0001800FEF725FFFB1C1B78012B09D1074B96
:1057E00001211800FFF718F8044B01211800FEF7FB
:1057F00017FFC046BD4602B080BDC046380300203A
:1058000080B582B000AF7860424B00221A7001214F
:105810001F2001F029F901211F2001F04FFA3E4B12
:1058200000221A7001211E2001F01EF901211E2004
:1058300001F044FA394B394AD26920210A43DA612E
:10584000374958228B5C012003438B54344A344936
:105850003C23CB5CDBB20F218B43D9B23C23D15428
:105860002F4A2F493C23CB5CDBB206210B43D9B234
:105870003C23D1542A4959228B5C012003438B5489
:10588000274A27493C23CB5CDBB20F210B40D9B21E
:105890003C23D154224A22493C23CB5CDBB2602119
:1058A0000B43D9B23C23D1541E4B1F4A5A801D4B87
:1058B0005B781B06DB0FDBB2002B00D0F7E71B4B3E
:1058C0001800FDF79DFB1A4B1800FFF71FF9184B46
:1058D0001800FFF73FF9164B1800FEF72DFD144B8B
:1058E0001800FEF737FD124B1800FEF741FD0021AE
:1058F0000720FEF765FC0720FEF748FC0C4B18005C
:10590000FEF70CFD7B6801221A70C046BD4602B04E
:1059100080BDC0463C0400203D040020000400403F
:1059200000440041000C00400640000069520000A5
:105930003803002080B582B000AF78607B681B78A8
:1059400001225340DBB2002B01D000230FE00A4BB1
:105950001800FEF71BFD084B1800FEF73FFD064B35
:105960001800FEF763FD054B00221A6001231800A2
:10597000BD4602B080BDC046380300204004002070
:1059800080B582B000AF786039601B4B00220021E7
:105990001800FEF78DFF184B00211800FEF740FE9F
:1059A000154B00211800FEF70AFF134B00211800C9
:1059B000FEF7E1FD03001A0001235340DBB2002B88
:1059C00000D0F2E70D4A3B68DBB2191C7F230B4085
:1059D000D9B2937A7F2008407F218B43191C031C86
:1059E0000B439372054A937A802149420B43937289
:1059F000C046BD4602B080BD3803002000500041C3
:105A000090B585B000AF786039603B689A880F2305
:105A1000FB181A700F23FB181B78002B11D13B6861
:105A2000180008F047FE03001A0001235340DBB2C0
:105A3000002B04D07B680021180000F02FFC01230C
:105A40001BE008F0FBFF02000E23FC183B68190066
:105A5000100008F0D3FF030023700E23FB181B78FF
:105A600001225340DBB2002B04D07B6800211800D8
:105A700000F014FC0E23FB181B781800BD4605B07F
:105A800090BD000080B584B000AF78600F23FB1894
:105A900001221A700F23FB181B78272B1CD80F2309
:105AA000FB181A780E4B9200D358002B14D00F23FA
:105AB000FB1819780F23FB181A78094B9200D2585B
:105AC0007B68180000F00EF80F23FB181A780F23DC
:105AD000FB1801321A70DDE7C046BD4604B080BD38
